:10000000EFC000000C9488110C94AF1111C10000D6
:100010000FC100000DC100000BC100000C940B16B5
:1000200007C100000C94D71603C100000C9488226D
:10003000FFC00000FDC00000FBC00000F9C00000D0
:100040000C94D611F5C000000C9468140C949A140A
:10005000EFC00000EDC00000EBC00000E9C00000F0
:10006000E7C00000E5C00000021FAF2019211C21DD
:1000700005203820C11EE21EA51EF620E520F22034
:100080001C211C211C21901E000000080002010000
:100090000003040700000000000000000102040843
:1000A00010204080010204081020010204081020E2
:1000B000040404040404040402020202020203030E
:1000C0000303030300000000250028002B000000AC
:1000D0000000240027002A0002001D3A2774694E00
:1000E00053E8F5D2CF9C81A6BBCDD0F7EAB9A48363
:1000F0009E25381F02514C6B76879ABDA0F3EEC93E
:10010000D46F7255481B06213C4A57706D3E23043C
:1001100019A2BF9885D6CBECF1130E2934677A5D0E
:1001200040FBE6C1DC8F92B5A8DEC3E4F9AAB79024
:100130008D362B0C11425F78659489AEB3E0FDDA01
:10014000C77C61465B0815322F5944637E2D3017FA
:100150000AB1AC8B96C5D8FFE2263B1C01524F6812
:1001600075CED3F4E9BAA7809DEBF6D1CC9F82A5DA
:10017000B8031E3924776A4D50A1BC9B86D5C8EFC1
:10018000F24954736E3D20071A6C71564B180522C4
:100190003F8499BEA3F0EDCAD735280F12415C7B8E
:1001A00066DDC0E7FAA9B4938EF8E5C2DF8C91B69C
:1001B000AB100D2A3764795E43B2AF8895C6DBFC7D
:1001C000E15A47607D2E3314097F6245580B163182
:1001D0002C978AADB0E3FED9C400BF142B15C81606
:1001E00011241FBECFEFD8E0DEBFCDBF12E0A0E0EC
:1001F000B1E0ECEAF1E502C005900D92AC39B1072F
:10020000D9F725E0ACE9B2E001C01D92AB32B207EC
:10021000E1F710E0C0EFD0E004C02197FE010E949A
:100220004127CD3ED107C9F70E9497240C94D428CA
:10023000E7CE4F925F926F927F928F929F92AF9292
:10024000BF92CF92DF92EF92FF920F931F93CF93C3
:10025000DF93CDB7DEB768970FB6F894DEBF0FBE59
:10026000CDBFE0911105F0911205C080D180E280F0
:10027000F380C0926504D0926604E0926704F09225
:10028000680480912505811117C081E080932505C0
:1002900082E0809326051092690410926A041092FD
:1002A0006B0410926C04C0921F05D0922005E0925E
:1002B0002105F092220556C080912605813009F46F
:1002C00051C0823061F520911F0530912005409189
:1002D000210550912205C701B6010E94272520E083
:1002E00030E040EA50E40E946E2687FD3BC083E088
:1002F0008093260580E090E0A0E8BFE38093690446
:1003000090936A04A0936B04B0936C04C0921B0595
:10031000D0921C05E0921D05F0921E0523C020918D
:100320001B0530911C0540911D0550911E05C7010C
:10033000B6010E94272520E030E040EA50E40E9408
:100340006E2687FD0FC081E08093260580E090E057
:10035000A0E0B0E48093690490936A04A0936B04D6
:10036000B0936C0420E030E040E85FE36091690402
:1003700070916A0480916B0490916C040E948C25AA
:10038000811131C08BEA9DEAA3EBB2E489839A83A1
:10039000AB83BC838BE99AE3A1EFB2E48D839E83A8
:1003A000AF83B88786E498E5A0EFB2E489879A879F
:1003B000AB87BC8783E490ECA1E0B3E48D879E8794
:1003C000AF87B88B83E994E2A3EBB2E4898B9A8B75
:1003D000AB8BBC8B80E090E0A4E3B2E48D8B9E8B72
:1003E000AF8BB88F1EC084E3E82E82E0F82E8E011A
:1003F0000F5F1F4F6E0189E1C80ED11CF70161919B
:100400007F01062E000C770B880B990B0E94BE25EE
:10041000F80161937193819391938F01EC15FD0520
:1004200069F769817A818B819C810E9490258091F6
:1004300092010E94BD166D817E818F8198850E94F8
:100440009025809193010E94BD1669857A858B85E0
:100450009C850E949025809194010E94BD166D8517
:100460007E858F8598890E949025809195010E94B4
:10047000BD1669897A898B899C890E949025809113
:1004800096010E94BD166D897E898F89988D0E9484
:100490009025809197010E94BD1682E090E00E9415
:1004A0003511E0911105F091120540815181628171
:1004B000738180E090E00E94311160910605709197
:1004C000070580910805909109050E94BC252DEC37
:1004D0003CEC4CEC5EE30E947226AB01BC0181E077
:1004E00090E00E94311140900A0550900B056090F9
:1004F0000C0570900D0520E030E040E85FEBC30193
:10050000B2010E948C25E0901105F090120588231D
:1005100019F1F70180809180A280B380A501940138
:10052000C301B2010E9427252B013C0120E030E0ED
:1005300040E054E3C501B4010E9472269B01AC0166
:10054000C301B2010E946E26181634F081EA91E0D0
:1005500090936E0480936D0480911005882331F090
:1005600081EA91E090936E0480936D048091FE0483
:100570009091FF04A0910005B0910105BC01CD014F
:100580006F5F7F4F8F4F9F4F6093FE047093FF0408
:1005900080930005909301050E94BC2520910205DF
:1005A0003091030540910405509105050E94722683
:1005B000F701608371838283938380910605909114
:1005C0000705A0910805B09109050196A11DB11D6F
:1005D0008093060590930705A0930805B09309053D
:1005E00068960FB6F894DEBF0FBECDBFDF91CF91F6
:1005F0001F910F91FF90EF90DF90CF90BF90AF9041
:100600009F908F907F906F905F904F9008950F9381
:100610001F93CF93DF93EDE6F4E08EEADF011D92A6
:100620008A95E9F78EE095E097838683C1E1D5E06E
:10063000D093AE04C093AD0402E015E0158B048B9B
:10064000F093D804E093D704F583E48321E030E00D
:10065000DC012D933C9385EB91E09387828723E126
:1006600035E03983288340E050E060EA71E440934C
:100670000A0550930B0560930C0570930D054DEC26
:100680005CEC6CEC7EE3E801488359836A837B83EE
:100690004CEE54E081E097E2ABE4B8EFEA018883E6
:1006A0009983AA83BB838CEA9CE7A9E9BBE2809388
:1006B000F0049093F104A093F204B093F30482E564
:1006C0009BEAAFE5B7E58093F4049093F504A0931B
:1006D000F604B093F70486EA9AEDACE8B1E48093AF
:1006E000F8049093F904A093FA04B093FB04A4EBEC
:1006F000B2E0B383A283EEEAF2E01196FC93EE93AC
:1007000083E392E0918380839383828395838483C0
:10071000CCEFD4E01596DC93CE93149713965C93AC
:100720004E93129717963C932E93169788E0E5E622
:10073000F4E0DF011D928A95E9F70BE115E08CE00A
:10074000F80111928A95E9F7ECE9F2E082E1DF0124
:100750001D928A95E9F7F983E8838EE090E0918312
:1007600080838EE591E09383828382E491E0958398
:1007700084838EE191E0978386838AE091E091877C
:100780008087CAE7D1E06881888D0E94B2166C81AB
:10079000898D0E94B21668858A8D0E94B2166C857A
:1007A0008B8D0E94B21668898C8D0E94B2166C895E
:1007B0008D8D0E94B216E8011A861B86DF91CF91BB
:1007C0001F910F9108950895EF92FF920F931F9339
:1007D000CF93DF93DC01EA01F90114968D919C918E
:1007E000159712960D911C911397080F191F2881C8
:1007F000398118964D915C9119974217530728F04B
:100800004D915C911197452B39F17801E21AF30A69
:1008100018964D915C911997481B590B4E0D5F1D11
:100820004617570794F1A901460F571F4017510764
:10083000E0F0F182E082338322836E197F097583B1
:100840006483161617061CF4382F292F02C030E0D7
:1008500020E03683278313C018968D919C911997B9
:10086000821B930B8617970784F071836083338311
:100870002283158214821782168288819981680FDB
:10088000791F7983688380E001C081E0DF91CF9197
:100890001F910F91FF90EF900895CF92DF92EF920A
:1008A000FF92CF93DF936B017C0184E48C9DE00188
:1008B0008D9DD00D1124C054DD4F8AA99BA90097AE
:1008C00021F00E9423281BAA1AAA84E48C9DF0011F
:1008D0008D9DF00D1124E054FD4F86A997A9009736
:1008E00011F00E94232884E48C9DF0018D9DF00D71
:1008F0001124E054FD4F138A128A168A178A108E2B
:10090000118E128E138E148E158E168E178E10A2C7
:1009100011A281E090E093A382A315A214A216A2D3
:1009200017A210A611A613A612A615A614A616A6FF
:1009300017A610AA11AA13AA12AA15AA14AA17AACE
:1009400016AA11AE10AE12AE13AE14AE15AEDF0184
:10095000DE961D921D921D921C921397EE5BFF4F27
:1009600011821082DF91CF91FF90EF90DF90CF90B6
:1009700008950F931F93CF93DF93EB01DC018D91CB
:100980009C91FC01A681B781E881F98123E0EE0FFB
:10099000FF1F2A95E1F712962D913C911397E20FD4
:1009A000F31F00811181AC85BD859D01220F331F8E
:1009B000DC0112968D919C911397D901A80FB91F54
:1009C0008D919C9124813581232B19F461E070E095
:1009D00002C062E070E0689F9001699F300D789FCF
:1009E000300D112488859985289FB001299F700DAD
:1009F000389F700D1124EC81FD812E9FC0012F9F27
:100A0000900D3E9F900D1124800F911FFA0191834C
:100A1000808373836283DF91CF911F910F9108953B
:100A20002F923F924F925F926F927F928F929F92FE
:100A3000AF92BF92CF92DF92EF92FF920F931F93EC
:100A4000CF93DF9300D000D000D0CDB7DEB7DC016C
:100A50001496ED91FC9115970190F081E02D808521
:100A600091859A838983A281B381BC83AB83FB0187
:100A700081909190A190B1908F01C12CD12C7601E1
:100A8000C814D904EA04FB040CF05FC0D801149622
:100A90004D905D906D907C90179718964D915D915B
:100AA0006D917C911B97F8017096FE83ED83F801A0
:100AB000A081B18183E0AA0FBB1F8A95E1F7E9818C
:100AC000FA8182819381A80FB91F2D903C901197D4
:100AD000F80124853585220F331F8B819C81280FD7
:100AE000391FF9010081118114968D919C91159700
:100AF000892B19F481E090E002C082E090E0809FB1
:100B00009001819F300D909F300D1124249F800112
:100B1000259F100D349F100D1124249DC001259D8B
:100B2000900D349D900D1124A8016D817E81820D60
:100B3000931D0E94BB288D819E81080F191F9FEF76
:100B4000C91AD90AE90AF90A9BCF26960FB6F89472
:100B5000DEBF0FBECDBFDF91CF911F910F91FF90F0
:100B6000EF90DF90CF90BF90AF909F908F907F904D
:100B70006F905F904F903F902F900895CF93DF93A9
:100B8000DB01A856BE4F2C91222369F024E4269F56
:100B9000F001279FF00D1124E054FD4FEF01199251
:100BA0002A95E9F71C9224E4269FF001279FF00D77
:100BB0001124E054FD4F148215821682178211868B
:100BC000108613861286118A108A17861686DF9180
:100BD000CF9163CE2F923F924F925F926F927F920E
:100BE0008F929F92AF92BF92CF92DF92EF92FF923D
:100BF0000F931F93CF93DF93CDB7DEB728970FB630
:100C0000F894DEBF0FBECDBF6B017C011A0184E4F6
:100C10008C9D90018D9D300D112420543D4FF90184
:100C200084819581A681B781892B8A2B8B2B09F42E
:100C3000B8C0A12CB12C412C512C320138872F8304
:100C4000C90104969A838983D9011896BC83AB8322
:100C5000E981FA8180819181A281B3814816590688
:100C60006A067B0694F5AB81BC81ED91FC91EA0D9F
:100C7000FB1D228133818901812C912C82149304E4
:100C8000C4F4D801ED91FC91309769F0848195818D
:100C90002D833E830E942328F801808191810E9448
:100CA00023283E812D81FFEF8F1A9F0A0E5F1F4F71
:100CB000E5CFC9010E9423288FEF481A580A680A15
:100CC000780A94E0A90EB11CC3CFAF81B8851896FD
:100CD0008D919C9119970E942328EF81F885828538
:100CE0009385892B59F1A12CB12C812C912C84E472
:100CF0008C9D80018D9D100D112406531D4F821473
:100D0000930484F4D801ED91FC91EA0DFB1D8481DC
:100D100095810E942328BFEF8B1A9B0AEEE0AE0E4E
:100D2000B11CEDCF84E48C9DF0018D9DF00D11245C
:100D3000E054FD4F828593850E94232884E48C9D96
:100D400090018D9D300D1124890100541D4FD80153
:100D500050968D919C9151970E942328F801868589
:100D600097850E942328C701B60197DDC701B60108
:100D700028960FB6F894DEBF0FBECDBFDF91CF919E
:100D80001F910F91FF90EF90DF90CF90BF90AF90A9
:100D90009F908F907F906F905F904F903F902F909B
:100DA000EDCE28960FB6F894DEBF0FBECDBFDF9113
:100DB000CF911F910F91FF90EF90DF90CF90BF9058
:100DC000AF909F908F907F906F905F904F903F90EB
:100DD0002F90089524E4269FF001279FF00D112401
:100DE000E054FD4F828993890497029758F485E077
:100DF00090E0938B828B8FEF9FEFDC01828F938F3C
:100E0000A48FB58F08952F923F924F925F926F9269
:100E10007F928F929F92AF92BF92CF92DF92EF928A
:100E2000FF920F931F93CF93DF93CDB7DEB7E09779
:100E30000FB6F894DEBF0FBECDBF9AA389A31B01E6
:100E40006A012801390184E4849D8001859D100D8B
:100E50001124980120543D4F7901D9014D925D92A2
:100E60006D927C921397AB01C301B201B3DEF8011E
:100E7000EC53FD4FD6014D915D916D917D918D01AA
:100E8000CA01408351836283738364E070E00E94EF
:100E90007427F70191878087892B09F499C11E8EE9
:100EA0001D8E198E1A8E1B8E1C8EF8A2EF8E970146
:100EB0002C5F3F4F38A72FA32C5F3F4F3AA729A79E
:100EC000EFA1F8A580819181A281B381298D3A8D0E
:100ED0004B8D5C8D281739074A075B070CF0E4C07F
:100EE000A9A5BAA58D919C912D8D3E8D280F391FF6
:100EF0003A8B298BD801ED91FC91EE0FFF1FA9A130
:100F0000BAA18D919C91E80FF91F80819181F9011F
:100F100091838083D80114962D913D914D915C91E0
:100F200017972BA33CA34DA35EA3085F1F4F62E05E
:100F300070E0C1010E947427E989FA899383828352
:100F4000892B09F445C11D8A1E8A1F8A188E2D8996
:100F50003E894F89588D8BA19CA1ADA1BEA12817B8
:100F600039074A075B070CF08CC0D801ED90FC9064
:100F7000EE0CFF1CE989FA89C280D380CE0CDF1CFD
:100F800068E070E081E090E00E947427D6018D93C4
:100F90009C93E989FA8982819381FC01EE0DFF1D02
:100FA000C080D180C114D10409F412C1D8011496B3
:100FB0004D915D916D917C911797CA01F601408327
:100FC000518362837383085F1F4F64E070E00E9467
:100FD0007427D60115969C938E931497892B09F448
:100FE000F7C01C8A1B8A812C912C5401F601808148
:100FF0009181A281B38188169906AA06BB06A4F541
:10100000F601E480F5802B893C89E20EF31EF8019D
:10101000DE01119680E101900D928A95E1F7005F63
:101020001F4FA701BE016F5F7F4FA9A1BAA1149600
:101030008D919C9115979DDCF60126813781D70112
:1010400012968D919C911397820F931F978386839D
:10105000BFEF8B1A9B0AAB0ABB0A2B893C892C5F1A
:101060003F4F3C8B2B8BC2CF2D893E894F89588DAA
:101070002F5F3F4F4F4F5F4F2D8B3E8B4F8B588FC6
:1010800066CF298D3A8D4B8D5C8D2F5F3F4F4F4F33
:101090005F4F298F3A8F4B8F5C8F2D8D3E8D2C5F4C
:1010A0003F4F3E8F2D8F0CCF6EE070E0C1010E944C
:1010B0007427AF8DB8A11B969C938E931A97812CA1
:1010C000912CA12CB12CC12CD12C24E4249DC00145
:1010D000259D900D11249C0126533D4F3A8B298B61
:1010E00021E030E0A214B3040CF04AC0D8014D91C5
:1010F0005D916D917D918D01CA01E989FA89E08048
:10110000F180E80CF91C57FD63C0D70111963C93A0
:101110002E930097A1F02FA738AB4BA75CA76DA724
:101120007EA70E948E27F701958384832FA538A977
:101130004BA55CA56DA57EA5892B31F449C0D701CF
:1011400015961C921E921497F70153834283848153
:10115000958197838683918780871386128681E0A5
:1011600090E0452B462B472B11F480E090E0C80E11
:10117000D91EFFEFAF1ABF0A4EE0840E911CB2CF0A
:1011800084E4849D8001859D100D112400541D4F21
:10119000D8011D961C921E921C97C60133E0880F41
:1011A000991F3A95E1F70E948E27F801918B808B69
:1011B000892B71F0C601880F991F0E948E27D801D4
:1011C0001F969C938E931E97892B11F080E005C08B
:1011D000A101C301B201FEDC81E0E0960FB6F894F4
:1011E000DEBF0FBECDBFDF91CF911F910F91FF905A
:1011F000EF90DF90CF90BF90AF909F908F907F90B7
:101200006F905F904F903F902F9008952F923F9254
:101210004F925F926F927F928F929F92AF92BF9206
:10122000CF92DF92EF92FF920F931F93CF93DF93B2
:10123000CDB7DEB768970FB6F894DEBF0FBECDBF4F
:101240009C8B8B8BDB0149015A0124E4289DC00152
:10125000299D900D11249C0120543D4F79012D9121
:101260003C911197F701358B248BFC01EA52FD4F1D
:1012700014964D915D916D917C91179740835183A8
:1012800062837383FC01E652FD4F18964D915D9188
:101290006D917C911B974083518362837383FC0122
:1012A000E252FD4F1C964D915D916D917C911F977F
:1012B0004083518362837383FC01E251FD4F50965A
:1012C0005C91509751964C91519752963C91529700
:1012D00053962C91539750834183328323838D01FE
:1012E0000C5E1F4F852F942F181619060CF068C03E
:1012F000880F991F880F991F0E948E27D701D396B8
:101300009C938E93D297892B09F4BCC0212C312C4D
:10131000412C512C32019701225D3F4F3E8B2D8B8A
:101320002C5F3F4F388F2F8B2E5F3F4F3A8B298B8F
:10133000B301A2012FEF421A520A620A720AED8922
:10134000FE8980819181A281B381481759076A077C
:101350007B074CF5AF89B88DCD90DC90C20CD31CC7
:10136000F801DE01119680E101900D928A95E1F776
:10137000005F1F4FA601BE016F5F7F4FEB89FC89A5
:1013800084819581F6DAA989BA898D919C9111970A
:10139000F60122813381820F931F8D939C93F4E099
:1013A0002F0E311CC5CFD701D4968D919C91D59726
:1013B0000E948E27F70197AB86AB892B09F462C098
:1013C000F80180819181A281B38124E4289DF001FC
:1013D000299DF00D1124E054FD4FAC01BD014D7F5E
:1013E00021E030E0452B462B472B11F020E030E088
:1013F00033A322A324E4289DF001299DF00D11249C
:10140000E054FD4F0197A109B10921E030E00297B6
:10141000A105B10510F020E030E035A324A384E459
:10142000889DF001899DF00D1124CF018A519D4FB7
:10143000D80114964D915D916D917C911797DC01C7
:101440004D935D936D937C931397E054FD4F868D80
:10145000978DA0A1B1A1B7FF10C0B095A0959095B0
:1014600081959F4FAF4FBF4F82AF93AFA4AFB5AF42
:10147000168E178E10A211A20AC012AE13AE14AEB1
:1014800015AE05C0C501B40108DA81E001C080E0F5
:1014900068960FB6F894DEBF0FBECDBFDF91CF9137
:1014A0001F910F91FF90EF90DF90CF90BF90AF9082
:1014B0009F908F907F906F905F904F903F902F9074
:1014C0000895CF92DF92EF92FF92CF93DF93109225
:1014D000480324E4269FF001279FF00D1124E054D7
:1014E000FD4F15A614A620E030E0C12CD12CDF0161
:1014F0001A96C1E0D0E0C416D506D4F4ED91FC9163
:101500001197E20FF31FE280F3801E141F0454F4BE
:10151000E480F580F782E682F186E0861386128603
:10152000D183C083EFEFCE1ADE0A225F3F4FE3CFB5
:1015300024E4269FF001279FF00D1124E054FD4F75
:1015400013A612A611AE10AEDF01DE961D921D92FB
:101550001D921C92139782E090E0938B828BDF9117
:10156000CF91FF90EF90DF90CF90089524E4269FD5
:10157000F001279FF00D1124E054FD4F138A128AC9
:1015800029CB24E4269FF001279FF00D1124E0547D
:10159000FD4F8289938981309105C8F0853091058E
:1015A00018F0059769F008958FEF9FEFDC01828FA7
:1015B000938FA48FB58F85E090E0938B828B0895F5
:1015C0008FEF9FEFDC01828F938FA48FB58F0895EB
:1015D00024E4249FF001259FF00D1124E054FD4FD9
:1015E0002EE0AC01249FC001259F900D11240284A0
:1015F000F385E02DE80FF91F81E080934803828591
:10160000938591878087408551852681378181E048
:1016100090E04217530711F080E090E091838083BF
:1016200008952F923F924F925F926F927F928F9286
:101630009F92AF92BF92CF92DF92EF92FF920F9361
:101640001F93CF93DF93CDB7DEB7C255D1090FB645
:10165000F894DEBF0FBECDBF21969FAF8EAF21970E
:101660004BA75CA76DA77EA74801590184E4889D1C
:101670008001899D100D1124F801E054FD4F228551
:10168000338527963FAF2EAF27978289938902979C
:1016900009F060C186A597A5A0A9B1A9892B8A2BBD
:1016A0008B2B29F484E090E0938B828B53C1848947
:1016B000958921964EAD5FAD21974817590709F0DE
:1016C00049C186A997A99AAB89AB1EAE1DAE19AECA
:1016D0001AAE1BAE1CAE8F01DF019E962996BFAFDE
:1016E000AEAF2997F2962B96FFAFEEAF2B979801EE
:1016F000285C3F4F2D963FAF2EAF2D97A8014A5D36
:101700005F4F2F965FAF4EAF2F97C80182966196BD
:101710009FAF8EAF61971A976396BFAFAEAF6397D7
:101720002996EEADFFAD299780819181A281B38189
:1017300029AD3AAD4BAD5CAD281739074A075B07B9
:101740000CF0E7C02B96EEADFFAD2B978081918119
:101750002DAD3EAD280F391F3EAB2DABD9011296F2
:101760000D90BC91A02D2396BFAFAEAF2397B69539
:10177000A795B695A7952596BFAFAEAF25972D96A1
:10178000EEADFFAD2D9780819181892B09F496C034
:101790002F96AEADBFAD2F97CD90DD90ED90FC9024
:1017A00029A83AA8F9010190F081E02DF8ABEFA744
:1017B00018AE1FAA8FA998AD2596AEADBFAD2597DF
:1017C0008A179B070CF07AC06196AEADBFAD6197EA
:1017D0008D919C91892B69F1EFA5F8A940805180EA
:1017E00062807380A7019601C301B2010E946E2638
:1017F00087FD0BC0A7019601D1016D917D918D915F
:101800009C910E948C2587FD8CC0A7019601C30185
:10181000B2010E946E26181664F4A7019601F10128
:1018200060817181828193810E948C25882309F4D3
:1018300078C06396AEADBFAD63978D919C91892BB7
:1018400069F1EFA5F8A94080518062807380A701FB
:101850009601C301B2010E948C2587FF0BC0A7012E
:101860009601D1016D917D918D919C910E946E2682
:1018700087FF57C0A7019601C301B2010E948C25C2
:1018800081110CC0A7019601F101608171818281F3
:1018900093810E946E2618160CF443C02FA938AD10
:1018A0002F5F3F4F38AF2FAB34E0230E311C4FA5D5
:1018B00058A94C5F5F4F58AB4FA77CCFEDA9FEA94D
:1018C0006081718123964EAD5FAD239789A99AA956
:1018D0000E94BB2825968EAD9FAD2597880F991F36
:1018E000880F991F29A93AA9280F391F3AAB29ABAC
:1018F00089AD9AADABADBCAD0196A11DB11D89AF4F
:101900009AAFABAFBCAFADADBEAD1496BEAFADAF91
:1019100007CF81E090E0D801D9969C938E93D89719
:1019200019C084E4889DF001899DF00D1124E054D4
:10193000FD4F868D978DA0A1B1A1892B8A2B8B2B72
:1019400009F064C284E090E0938B828B86AD97AD02
:1019500093A782A784E4889DF001899DF00D11244E
:10196000E054FD4F828993898230910571F482ADF4
:1019700093ADA4ADB5AD181619061A061B060CF0EA
:101980004CC2CC24C394D12C05C0049709F045C2A5
:10199000C12CD12C8EE02196EEADFFAD21978E9F0C
:1019A00070018F9FF00C112427962EAD3FAD279725
:1019B000E20EF31ED70112964D915C9113974115DB
:1019C000510509F42AC216968D919C9117979AA7F2
:1019D00089A7FE01319684E1DF011D928A95E9F71E
:1019E000898A9A8AAB8ABC8AC114D10409F457C087
:1019F00084E4889DF001899DF00D1124E054FD4F91
:101A0000DF01DE964D905D906D907C9082AD93AD40
:101A1000A4ADB5AD481659066A067B0609F03FC06D
:101A2000F701648175810084F185E02D84819581C1
:101A3000A681B7819C018D8B9E8BAF8BB88F285F61
:101A40003F4F3E8B2D8BD70118968D919C91199706
:101A5000280F391F19963C932E93189718968D913D
:101A60009C911997460F571F841B950B97FD06C035
:101A7000860F971F19969C938E93189784E4889DE0
:101A8000F001899DF00D1124E250FD4FB1E04B1A99
:101A900051086108710840825182628273829E01FE
:101AA0002B5E3F4FAE01475D5F4F64E170E0C701C1
:101AB0000E94E403082F10E00115110509F091C1FF
:101AC0008CE090E0A0E0B0E08D839E83AF83B88788
:101AD0009E01235E3F4FAE01475D5F4F64E070E0C3
:101AE000C7010E94E403082F10E00115110509F059
:101AF00078C180E190E0A0E0B0E08D839E83AF8369
:101B0000B8874D8D5E8DBE01655D7F4F8F8D98A12D
:101B10000E94BB288BA19CA1009761F06D8D7E8DEA
:101B2000EBE2F0E0EC0FFD1F6E0F7F1F49A15AA101
:101B30000E94BB281DA21EA21FA218A621962EAD90
:101B40003FAD2197220F331F38AF2FAB24E4289DE0
:101B5000C001299D900D112480549D4FAC014C5F14
:101B60005F4F5AAF49AFDC011896BEAFADAF2DA1A4
:101B70003EA14FA158A529AB3AAB4BAB5CABE9AD4D
:101B8000FAAD80819181A281B381281739074A0774
:101B90005B070CF0CFC0ADADBEADED91FC9189A956
:101BA0009AA9880F991F880F991FE80FF91FA08124
:101BB000B1818C91882309F4AFC0833009F4ACC0A3
:101BC0000280F381E02D2FA938ADE20FF31F408191
:101BD000518158AB4FA7452B09F49EC089859A8542
:101BE000AB85BC850196A11DB11D89879A87AB87FE
:101BF000BC879E01235E3F4FAE01475D5F4F64E0AF
:101C000070E0C7010E94E40390E0009709F0E8C08B
:101C10008D819E81AF81B8850496A11DB11D8D83F4
:101C20009E83AF83B8874D8D5E8DBE016B5D7F4F08
:101C30008F8D98A10E94BB288BA19CA1009761F079
:101C40006D8D7E8DA5E2B0E0AC0FBD1F6A0F7B1FCE
:101C500049A15AA10E94BB281EAA1DAA412C512CA1
:101C60003201EFA5F8A980819181A281B381481644
:101C700059066A067B060CF04FC0EFA5F8A9248030
:101C800035802DA93EA9220E331ED10112966D91E9
:101C90007C9113979E01235E3F4FAE01475D5F4FDE
:101CA000C7010E94E40390E0009709F099C0F10198
:101CB00082819381092E000CAA0BBB0B4D815E81A2
:101CC0006F817885840F951FA61FB71F8D839E8314
:101CD000AF83B887608171814D8D5E8D8F8D98A1A6
:101CE0000E94BB288BA19CA1009759F0D1016D9156
:101CF0007C912D8D3E8D620F731F49A15AA10E94C8
:101D0000BB28BFEF4B1A5B0A6B0A7B0AEDA9FEA941
:101D10003496FEABEDABA5CF49A85AA86BA87CA81A
:101D2000FFEF4F1A5F0A6F0A7F0A4DA25EA26FA2F1
:101D300078A61DCF89859A85AB85BC85892B8A2B92
:101D40008B2B09F44EC08AE190E0A0E0B0E08983DB
:101D50009A83AB83BC8321962EAD3FAD2197C901F9
:101D6000330FAA0BBB0B8D879E87AF87B88B4D892E
:101D70005E89BE016F5F7F4F8F89988D0E94BB285F
:101D80008B8D9C8D009761F06D897E8941E050E0DC
:101D90004C0F5D1F640F751F498D5A8D0E94BB2823
:101DA00089A59AA5D70117969C938E93169711969D
:101DB0001C921E92CD2889F184E4889DF001899DB2
:101DC000F00D1124E250FD4F80819181A281B381F9
:101DD0000196A11DB11D80839183A283B3831DC091
:101DE0008C01CD28D1F4012BC1F084E4889DF00151
:101DF000899DF00D1124E054FD4F81E090E095A7FE
:101E000084A785E090E0938B828B07C083E090E00D
:101E1000938B828B81E090E09BCDCE5ADF4F0FB643
:101E2000F894DEBF0FBECDBFDF91CF911F910F9110
:101E3000FF90EF90DF90CF90BF90AF909F908F90EA
:101E40007F906F905F904F903F902F900895CF922A
:101E5000DF92EF92FF920F931F936B017C0184E45A
:101E60008C9DF0018D9DF00D1124E054FD4F828971
:101E70009389009709F450C00197B9F482A593A5FE
:101E80009C012F5F3F4F33A722A7092E000CAA0BFE
:101E9000BB0B028D138D248D358D80179107A20702
:101EA000B307D1F5C701B6010CDB84E48C9DF001CA
:101EB0008D9DF00D1124E054FD4F82899389039785
:101EC00059F582A593A59C012F5F3F4F33A722A709
:101ED000092E000CAA0BBB0B468D578D60A171A17A
:101EE00084179507A607B707BCF086AD97AD93A7F3
:101EF00082A784E090E0938B828B82AD93ADA4ADFA
:101F0000B5AD181619061A061B0634F4EE5BFF4F22
:101F100081E090E0918380831F910F91FF90EF907B
:101F2000DF90CF90089524E4269FF001279FF00DC5
:101F30001124E054FD4F828993890497B1F482A55E
:101F400093A5019693A782A7092E000CAA0BBB0BA1
:101F500046895789608D718D84179507A607B70745
:101F600021F485E090E0938B828B08952F923F922D
:101F70004F925F926F927F928F929F92AF92BF9299
:101F8000CF92DF92EF92FF920F931F93CF93DF9345
:101F9000CDB7DEB72C970FB6F894DEBF0FBECDBF1E
:101FA00049835A836B837C834901442E552E24E454
:101FB000249DF001259DF00D1124E054FD4F228950
:101FC000338924503109158614862230310508F0F2
:101FD000DAC0DC0111961C921E9213961C921E927E
:101FE0001297A12CB12C60E070E09F01265F3F4F5B
:101FF0003E832D837F013CE0E30EF11CDF01509610
:10200000B887AF839F01225F3F4F3A8729876815C2
:1020100079050CF06CC0ED81FE81A081B1819D013C
:102020002A0D3B1D3C872B87D9012D913C9111979F
:10203000232B09F056C018960D911C9119971296F2
:102040002D903C90139716962D913C911797F70180
:1020500040815181DA01E3E0AA0FBB1FEA95E1F765
:10206000EF81F885C080D180FD01EC0DFD1D440F8E
:10207000551FA985BA85CD90DC904C0D5D1DDA0108
:102080006D937C93D7014D915C9111974F5F5F4F9A
:102090004D935C9313830283AB85BC851B963C9365
:1020A0002E931A970217130748F4201B310B318324
:1020B0002083158214821782168213C0AB85BC85DB
:1020C0001496CD90DC901597A601420D531D401B30
:1020D000510B518340832C193D0935832483D782CA
:1020E000C6826F5F7F4FBEE0AB0EB11C90CF24E481
:1020F000249D8001259D100D112400541D4FF801D1
:1021000024853585DC0111963C932E9340895189B5
:1021100013965C934E9312974685578515965C935C
:102120004E931497232BA1F582899389059781F506
:1021300010924803828D938DA48DB58DAE014F5FB3
:102140005F4F64E070E08F3F9F4FAF4FBF4F59F438
:1021500080E290E00E94931A69817A818B819C8150
:10216000A40104DA15C08FE190E00E94931AD8010F
:102170009B961C921E929A9781E090E053969C93B6
:102180008E93529705C0FC01118210821382128235
:102190002C960FB6F894DEBF0FBECDBFDF91CF9166
:1021A0001F910F91FF90EF90DF90CF90BF90AF9075
:1021B0009F908F907F906F905F904F903F902F9067
:1021C0000895EF92FF920F931F93CF93DF937C01BB
:1021D0008B01EA010E94161B811121C080919A0196
:1021E00090919B01049711F183E090E090939B0103
:1021F00080939A011BC098819111F0CF28ED38EBA4
:1022000045E050E060E070E0CB010E94A01DAE010F
:10221000B801C7010E94AE1DC8010E94791D8091BE
:10222000490390914A03892B31F3D8CFDF91CF91A5
:102230001F910F91FF90EF900895CF93DF9320911E
:102240009A0130919B012430310541F0EB010E944D
:10225000AE1DCE01DF91CF910C94791DDF91CF910E
:1022600008950C94AC210C94A1210C948F210C9412
:10227000891D0C943321089560E070E080E090E0C7
:102280000C94F11A0895AF92BF92CF92DF92EF9221
:10229000FF920F931F93CF93DF9300D0CDB7DEB79C
:1022A0005C0169017A018B0180E090E0C114D104E6
:1022B000E104F104F1F0C114D10421E0E206F104DB
:1022C00010F4A60102C04FEF5FEF9E012F5F3F4F5A
:1022D000B801C5010E944E228F3F2FEF920749F0AF
:1022E00029813A81C21AD30AE108F108020F131FAB
:1022F000DDCF0F900F90DF91CF911F910F91FF9045
:10230000EF90DF90CF90BF90AF900895089508951B
:102310001F920F920FB60F9211242F933F934F935A
:102320005F936F937F938F939F93AF93BF93EF933D
:10233000FF93E0919C01F0919D010995FF91EF9130
:10234000BF91AF919F918F917F916F915F914F91CD
:102350003F912F910F900FBE0F901F9018951F92D5
:102360000F920FB60F9211242F933F934F935F93C9
:102370006F937F938F939F93AF93BF93EF93FF934D
:10238000E0919E01F0919F010995FF91EF91BF911E
:10239000AF919F918F917F916F915F914F913F91FD
:1023A0002F910F900FBE0F901F9018951F920F92B4
:1023B0000FB60F9211242F933F938F939F93AF9358
:1023C000BF9380914C0390914D03A0914E03B09127
:1023D0004F0330914B0323E0230F2D3720F4019658
:1023E000A11DB11D05C026E8230F0296A11DB11D38
:1023F00020934B0380934C0390934D03A0934E0383
:10240000B0934F038091500390915103A0915203D8
:10241000B09153030196A11DB11D80935003909379
:102420005103A0935203B0935303BF91AF919F9177
:102430008F913F912F910F900FBE0F901F90189585
:102440003FB7F8948091500390915103A0915203AB
:10245000B091530326B5A89B05C02F3F19F00196F4
:10246000A11DB11D3FBFBA2FA92F982F8827820F1A
:10247000911DA11DB11DBC01CD0142E0660F771F6A
:10248000881F991F4A95D1F708958F929F92AF9216
:10249000BF92CF92DF92EF92FF926B017C01D0DF6F
:1024A0004B015C01C114D104E104F104F1F02EDF11
:1024B000C7DFDC01CB0188199909AA09BB09883E4D
:1024C0009340A105B10570F321E0C21AD108E108DB
:1024D000F10888EE880E83E0981EA11CB11CC1147F
:1024E000D104E104F10421F7DDCFFF90EF90DF90FC
:1024F000CF90BF90AF909F908F900895789484B5BF
:10250000826084BD84B5816084BD85B5826085BDEF
:1025100085B5816085BDEEE6F0E0808181608083D5
:10252000E1E8F0E0108280818260808380818160B8
:102530008083E0E8F0E0808181608083E1EBF0E07F
:10254000808184608083E0EBF0E080818160808323
:10255000EAE7F0E08081846080838081826080830C
:102560008081816080838081806880831092C10037
:102570000895833081F028F4813099F08230A1F001
:1025800008958730A9F08830B9F08430D1F4809173
:1025900080008F7D03C0809180008F7780938000C2
:1025A000089584B58F7702C084B58F7D84BD08956A
:1025B0008091B0008F7703C08091B0008F7D8093B1
:1025C000B0000895CF93DF9390E0FC01E456FF4FF5
:1025D0002491FC01E055FF4F8491882361F190E044
:1025E000880F991FFC01E253FF4FC591D491FC0164
:1025F000EC53FF4FA591B491611109C09FB7F894B6
:102600008881209582238883EC912E230BC0623031
:1026100061F49FB7F8943881822F80958323888353
:10262000EC912E2B2C939FBF06C08FB7F894E881B6
:102630002E2B28838FBFDF91CF9108951F93CF93C7
:10264000DF93282F30E0F901E857FF4F8491F9011B
:10265000E456FF4FD491F901E055FF4FC491CC23CC
:10266000C1F0162F811185DFEC2FF0E0EE0FFF1F78
:10267000EC53FF4FA591B4918FB7F894111105C099
:102680009C91ED2FE095E92302C0EC91ED2BEC93AA
:102690008FBFDF91CF911F910895FC01918D228D05
:1026A000892F90E0805C9F4F821B91098F7399273F
:1026B0000895FC01918D828D981731F0828DE80F7D
:1026C000F11D858D90E008958FEF9FEF0895FC0137
:1026D000918D828D981761F0828DDF01A80FB11D59
:1026E0005D968C91928D9F5F9F73928F90E008957D
:1026F0008FEF9FEF0895FC01848DDF01A80FB11DBE
:10270000A35ABF4F2C91848D90E001968F73992727
:10271000848FA689B7892C93A089B1898C91806414
:102720008C93938D848D981306C00288F389E02DD5
:1027300080818F7D80830895CF93DF93EC01888D16
:102740008823C1F0EA89FB89808185FD05C0A889BD
:10275000B9898C9186FD0EC00FB607FCF5CF80813C
:1027600085FFF2CFA889B9898C9185FFEDCFCE0185
:10277000C2DFE8CFDF91CF910895EF92FF920F93E0
:102780001F93CF93DF93EC0181E0888F9B8D8C8D1D
:10279000981305C0E889F989808185FD23C0F62E4C
:1027A0000B8D10E00F5F1F4F0F731127E02E8C8DE4
:1027B000E8120BC00FB607FCFACFE889F9898081CF
:1027C00085FFF5CFCE0197DFF2CF8B8DFE01E80FAD
:1027D000F11DE35AFF4FF0820B8FEA89FB8980815C
:1027E000806207C0EE89FF896083E889F98980816A
:1027F0008064808381E090E0DF91CF911F910F9101
:10280000FF90EF900895CF92DF92EF92FF921F9387
:10281000CF93DF93EC016A017B01122FE889F989DC
:1028200082E080834115514E61057105B1F060E091
:1028300079E08DE390E0A70196010E940327DA0179
:10284000C9010197A109B109B695A79597958795F3
:10285000AC01411580E15807A8F0E889F989108298
:1028600060E874E88EE190E0A70196010E940327DA
:10287000BA01A9014150510961097109769567951D
:1028800057954795EC85FD855083EE85FF85408300
:10289000188EEC89FD891083EA89FB89808180612B
:1028A0008083EA89FB89808188608083EA89FB894B
:1028B000808180688083EA89FB8980818F7D808325
:1028C000DF91CF911F91FF90EF90DF90CF9008950F
:1028D0001F920F920FB60F9211242F938F939F93F5
:1028E000EF93FF93E0916403F09165038081E091A1
:1028F0006A03F0916B0382FD12C0908180916D0399
:102900008F5F8F7320916E03821751F0E0916D03FA
:10291000F0E0EC5AFC4F958F80936D0301C08081ED
:10292000FF91EF919F918F912F910F900FBE0F907C
:102930001F9018951F920F920FB60F9211242F938C
:102940003F934F935F936F937F938F939F93AF9337
:10295000BF93EF93FF9384E593E0CDDEFF91EF917A
:10296000BF91AF919F918F917F916F915F914F91A7
:102970003F912F910F900FBE0F901F901895E4E597
:10298000F3E01382128288EE93E0A0E0B0E084834B
:102990009583A683B78380E492E09183808385EC5E
:1029A00090E09587848784EC90E09787868780EC19
:1029B00090E0918B808B81EC90E0938B828B82EC0A
:1029C00090E0958B848B86EC90E0978B868B118EB4
:1029D000128E138E148E08958F929F92AF92BF9293
:1029E000CF92DF92EF92FF920F931F93CF93DF93DB
:1029F0007C018B016C0182E0C80ED11C4701E5E02F
:102A00008E0E911CC0E0D0E0F60161916F014AE0AA
:102A100050E0C801C6D05C016EE2C80167D08A0DE3
:102A20009B1DC80FD91FC814D90471F74AE050E0A4
:102A3000F7016581C801B5D08C0F9D1FDF91CF9143
:102A40001F910F91FF90EF90DF90CF90BF90AF90CC
:102A50009F908F900895E1EFF3E080E592E09183FD
:102A6000808312821382148215820895CF92DF929E
:102A7000EF92FF920F931F93CF93DF936C017A0134
:102A80008B01C0E0D0E0CE15DF0589F0D8016D9153
:102A90008D01D601ED91FC910190F081E02DC601F0
:102AA0000995892B11F47E0102C02196ECCFC70154
:102AB000DF91CF911F910F91FF90EF90DF90CF901A
:102AC00008956115710579F0FB0101900020E9F787
:102AD0003197AF01461B570BDC01ED91FC91028051
:102AE000F381E02D099480E090E00895DC01ED9100
:102AF000FC910190F081E02D09944F925F926F92CA
:102B00007F92EF92FF920F931F93CF93DF93CDB7F6
:102B1000DEB7A1970FB6F894DEBF0FBECDBF7C0124
:102B2000FA01CB0119A2223008F42AE08E010F5DD0
:102B30001F4F422E512C612C712CBF01A301920119
:102B40000E940327F901CA01015011096A3014F4E7
:102B5000605D01C0695CD8016C93232B242B252B6D
:102B600061F7B801C701ADDFA1960FB6F894DEBFDB
:102B70000FBECDBFDF91CF911F910F91FF90EF90CE
:102B80007F906F905F904F9008952115310541F42B
:102B9000DC01ED91FC910190F081E02D642F09940E
:102BA000ACCF9A01462F50E060E070E0EECF81306C
:102BB00039F018F0823051F0089510926E000895A7
:102BC00080916F008D7F80936F00089580917000D9
:102BD0008D7F8093700081E08093B0008091B10080
:102BE000887F84608093B1001092B3000895CF93E2
:102BF000C82F8091A0018C1307C0E8EDF0E0E491AC
:102C00008FEF8093A00101C0EFEF8E2FD0DF60E047
:102C10008C2FCF9113CD1F920F920FB60F921124CC
:102C20002F933F934F935F936F937F938F939F93D4
:102C3000AF93BF93EF93FF938091FA039091FB03BF
:102C4000A091FC03B091FD03892B8A2B8B2B51F1B2
:102C50008091F703E091F803F091F90390818927BF
:102C600080838091FA039091FB03A091FC03B091C3
:102C7000FD03181619061A061B06BCF48091FA0308
:102C80009091FB03A091FC03B091FD030197A10972
:102C9000B1098093FA039093FB03A093FC03B093D4
:102CA000FD0303C08091A001A2DFFF91EF91BF91CE
:102CB000AF919F918F917F916F915F914F913F91D4
:102CC0002F910F900FBE0F901F9018954F925F920B
:102CD0006F927F92AF92BF92CF92DF92EF92FF926C
:102CE0000F931F93CF93DF93CDB7DEB729013A013E
:102CF0009B01AC01241935094609570989899A892C
:102D0000AB89BC89BC01CD016A197B098C099D097D
:102D10000E94D526A80197012419350946095709AB
:102D20000E942527CA01B9016A0D7B1D8C1D9D1DBE
:102D3000DF91CF911F910F91FF90EF90DF90CF9097
:102D4000BF90AF907F906F905F904F90089540E854
:102D500055E260E070E080E090E000C026E084E5AD
:102D600093E051CD70E090E09C01220F331F820F61
:102D7000931F82509C4F0C94E62370E090E09C01DE
:102D8000220F331F820F931F82509C4F0C942024DC
:102D9000CF93DF93CEEFD3E0CE010E944923239659
:102DA00084E0C031D807C1F7DF91CF9108951F9219
:102DB0000F920FB60F9211242F933F934F935F936F
:102DC0006F937F938F939F93AF93BF93EF93FF93F3
:102DD00086E08093B200809110048F5F809310048E
:102DE000893121F4109210040E947B24FF91EF910D
:102DF000BF91AF919F918F917F916F915F914F9113
:102E00003F912F910F900FBE0F901F90189586E065
:102E10008093B200E0E7F0E080818E7F8083A0EBBA
:102E2000B0E08C918C7F8C93A1EBB0E08C91877F8C
:102E30008C938C9187608C938081816080830895CE
:102E400081E008956F927F928F929F92AF92BF928E
:102E5000CF92DF92EF92FF920F931F93CF93DF9366
:102E60005C017B014A0101E010E00E151F0564F5CD
:102E700068018FEFC81AD80AE801CC0FDD1FC80D12
:102E8000D91D6880798061147104E1F062E572E017
:102E9000C3010E94CB28892B19F41982188212C011
:102EA00065E572E0C3010E94CB28892B59F4CE144A
:102EB000DF0441F06801E2E0CE0ED11C19821882D5
:102EC0001B821A828601D1CF81E0F5018083B40193
:102ED000C7010E94D721F5019283818380E090E0B1
:102EE000DF91CF911F910F91FF90EF90DF90CF90E6
:102EF000BF90AF909F908F907F906F90089581E1E9
:102F000094E0089580E008950F931F93CF93DF938B
:102F10008B01BA01E901198218829801012E000C77
:102F2000440B550BFC0181819281ADD9019621F0B2
:102F30001983088380E001C081E0DF91CF911F9168
:102F40000F9108950F931F93CF93DF9300D0CDB7C8
:102F5000DEB7FB018A01B9019E012F5F3F4FAF0130
:102F6000FC01818192810E94F021019639F08981D2
:102F70009A81F8019183808380E001C081E00F9005
:102F80000F90DF91CF911F910F910895FC018081E7
:102F900008950895089581E0FB01808380E00895FD
:102FA000089510923B040895FC01818192810C9454
:102FB000CE21CF93DF93CDB7DEB72A970FB6F89423
:102FC000DEBF0FBECDBFAC01CB0160E070E0498336
:102FD0005A836B837C83092E000CAA0BBB0B8D8359
:102FE0009E83AF83B8879E01275F3F4FAE014F5F3F
:102FF0005F4F68E070E0809134049091350484DF85
:10300000811108C081E029853A852830310519F4FD
:1030100080E001C081E02A960FB6F894DEBF0FBEB3
:10302000CDBFDF91CF9108950F931F93CF93DF937F
:1030300000D0CDB7DEB78B019E012F5F3F4FAC01B3
:1030400080913404909135045FDF811108C081E0E4
:1030500029813A812017310719F480E001C081E00D
:103060000F900F90DF91CF911F910F910895CF9303
:10307000DF93EC01109238041092370410923A0456
:1030800010923904AC0160E070E0CB010E94B60AF6
:10309000AE0161E070E080E090E00E94B60A8091AD
:1030A000340490913504DF91CF917ACF4F925F92A3
:1030B0006F927F928F929F92AF92BF92CF92DF9248
:1030C000EF92FF920F931F93CF93DF9300D0CDB772
:1030D000DEB79C016C0197FF03C087E0C80ED11CCE
:1030E00043E0D594C7944A95E1F7C90168E070E0E0
:1030F0000E94F0268C017901E2E0EE0EF11C809135
:103100003204909133048E159F050CF092C080918B
:10311000300490913104009731F00E9423281092DE
:10312000330410923204C7010E948E279093310419
:1031300080933004892B29F0F0923304E09232041A
:1031400078C0412C512C3201A12CB12CAC14BD04FF
:103150000CF4AAC10115110509F48AC1E12CF12C66
:1031600068012FEFC21AD20A580182E0A80EB11CE2
:103170000C5E1B4FCE14DF040CF47AC197012C5E59
:103180003B4FAE014F5F5F4F61E070E080913404D0
:1031900090913504D7DE81116BC189819A81EFEF5F
:1031A0004E1A5E0A6E0A7E0AF0E94F16FFE55F06C8
:1031B000F1E06F0671041CF4E80EF91E0CC060917A
:1031C000390470913A048DEE90E0F3DE412C512CDD
:1031D0003201E12CF12CEA14FB0461F6A60160E057
:1031E00070E084E194E00E947A2260913904709149
:1031F0003A048823A9F0F801808190E068177907E4
:1032000009F0B8CF8EEE90E0D4DE80913904909131
:103210003A040196992790933A0480933904AACFEF
:103220008FEE90E0C6DE412C512C3201E12CF12CC6
:10323000A1CFE12CF12CEC14FD040CF078C0412C52
:10324000512C3201A12CB12C470193E0880C991C20
:103250009A95E1F72091300430913104C4018A0D30
:103260009B1D280F391FAE014F5F5F4F61E070E07B
:10327000809134049091350465DE8111F9C0898113
:103280009A81FFEF4F1A5F0A6F0A7F0A20E9421600
:103290002FE5520621E0620671043CF0609139048A
:1032A00070913A048DEE90E035C0A80EB91E8AE008
:1032B000A816B104B1F549E050E0B40180913004A2
:1032C000909131040E947A226091390470913A04FD
:1032D0008823F1F08091300490913104FC01E80DD5
:1032E000F91D808590E06817790709F0A4CF8EEE6C
:1032F00090E05FDE8091390490913A04019699271D
:1033000090933A0480933904EFEFEE1AFE0A93CFBC
:103310008FEE90E04EDE412C512C3201A12CB12CCD
:1033200099CFFAE0AF16B1040CF494CF84CF011515
:10333000110509F47EC083E0EE0CFF1C8A95E1F7CD
:103340004701800E911E412C512C3201C12CD12CF1
:1033500058012FEFA21AB20A0E5F1F4FAC14BD0422
:103360000CF467C02091300430913104C6018E0DF9
:103370009F1D280F391FAE014F5F5F4F61E070E066
:103380008091340490913504DDDD811171C0898113
:103390009A81EFEF4E1A5E0A6E0A7E0AF0E94F1626
:1033A000FFE55F06F1E06F0671041CF4C80ED91E3C
:1033B0000CC06091390470913A048DEE90E0F9DD13
:1033C000412C512C3201C12CD12CC016D10631F622
:1033D000A501B70180913004909131040E947A22B6
:1033E0006091390470913A048823D1F0E09130045F
:1033F000F0913104E80DF91D808190E0681779079C
:1034000009F0ACCF8EEE90E0D4DD8091390490913C
:103410003A040196992790933A04809339049ECFF9
:103420008FEE90E0C6DD412C512C3201C12CD12C05
:1034300095CF809130049091310462C0E80EF91E5E
:103440008AE0E816F10499F1FAE0EF16F1040CF0C5
:103450007DCE97012C5E3B4FAE014F5F5F4F61E029
:1034600070E080913404909135046CDD882319F06C
:1034700080E090E045C089819A81FFEF4F1A5F0A92
:103480006F0A7F0A20E942162FE5520621E0620604
:103490007104A4F26091390470913A048DEE90E0C9
:1034A00088DD412C512C3201E12CF12CD2CF49E0A6
:1034B00050E060E070E084E194E00E947A22609144
:1034C000390470913A048823C1F080911C0490E083
:1034D0006817790709F03ACE8EEE90E06ADD8091A8
:1034E000390490913A040196992790933A04809375
:1034F0003904EFEFAE1ABE0A29CE8FEE90E0D0CF9E
:103500000F900F90DF91CF911F910F91FF90EF904F
:10351000DF90CF90BF90AF909F908F907F906F90F3
:103520005F904F900895CF92DF92EF92FF920F93AA
:103530001F93CF93DF931F92CDB7DEB76C017B0152
:103540008A01452B31F0AB0160E070E0C801CED7B5
:103550008983B701C6012DDD81110DC0011511054B
:1035600051F0B701C80160DD811105C061E070E074
:10357000CE01019659DD0F90DF91CF911F910F91F0
:10358000FF90EF90DF90CF900895CF92DF92EF926F
:10359000FF92CF93DF93CDB7DEB728970FB6F8949D
:1035A000DEBF0FBECDBF6B01E12CF12CC982DA82E8
:1035B000EB82FC822D833E834F835887AE014F5FA1
:1035C0005F4F68E070E0AFDF28960FB6F894DEBF7B
:1035D0000FBECDBFDF91CF91FF90EF90DF90CF90E6
:1035E00008950F931F93CF93DF93EC018B0187DC3A
:1035F0009093350480933404009739F0A801BE01FC
:1036000021DCEC01892B19F40BC0C1E6D2E08091DA
:10361000340490913504BDDC1092350410923404CA
:10362000CE01DF91CF911F910F91089580913404C5
:1036300090913504ABCC2F923F924F925F926F9254
:103640007F928F929F92AF92BF92CF92DF92EF9232
:10365000FF920F931F93CF93DF93CDB7DEB7699798
:103660000FB6F894DEBF0FBECDBF209138042223E1
:1036700009F426C25D8B4C8B688B798B8A8B9B8B74
:103680009A01AB01BC01CE0101960E94B60F10E079
:1036900038E0232E312C89819A81181619060CF0F6
:1036A0000AC21F861E861D861C8689819A81AC856A
:1036B000BD85A817B9070CF0F3C1EB81FC812E85FD
:1036C0003F85E20FF31F2081318130932F04209337
:1036D0002E048481958190932D0480932C04428143
:1036E000538150932B0440932A0446815781509371
:1036F000290440932804820F931F9C01990F440BC7
:10370000550B2E8B3F8B488F598FC12CD12C7601B6
:103710002E893F89488D598DC216D306E406F506D9
:1037200008F0A2C11F8260912E0470912F048B01BA
:10373000072E000C220B330BD701C6010496A11DE6
:10374000B11D80179107A207B30728F4E0912A045E
:10375000F0912B040AC0E4E0F0E0E61BF70BEC0D5F
:10376000FD1D8091280490912904E80FF91F4080E5
:10377000512C612C712CD701C6010596A11DB11DDC
:1037800080179107A207B30728F4E0912A04F0916B
:103790002B040AC0E5E0F0E0E61BF70BEC0DFD1D85
:1037A0008091280490912904E80FF91F8081582AFC
:1037B000D701C6010696A11DB11D80179107A2076A
:1037C000B30728F4E0912A04F0912B040AC0E6E044
:1037D000F0E0E61BF70BEC0DFD1D809128049091A5
:1037E0002904E80FF91F8081682AD701C6010796CE
:1037F000A11DB11D80179107A207B30728F4E0911E
:103800002A04F0912B040AC0E7E0F0E0E61BF70B76
:10381000EC0DFD1D8091280490912904E80FF91FFB
:103820008081782A4601570148E0840E911CA11C32
:10383000B11C081519052A053B0508F4B4C0C016CB
:10384000D106E206F30638F480912A0490912B0405
:103850008C0D9D1D09C0C601861B970B2091280465
:1038600030912904820F931F68E070E0DDDBE09166
:103870002E04F0912F049F010F2E000C440B550BCA
:10388000D301C201880D991DAA1DBB1D2817390738
:103890004A075B07C8F082169306A406B50638F4FB
:1038A00020912A0430912B04C601089609C0C10159
:1038B0008E1B9F0B8C0D9D1D209128043091290497
:1038C000820F931FB20199C08601BF016850710930
:1038D0006C197D0982169306A406B50638F420916A
:1038E0002A0430912B04C601089609C0C1018E1B21
:1038F0009F0B8C0D9D1D2091280430912904820F6F
:10390000931F92DB80912E0490912F04B101681BCC
:10391000790B600F711F640D751D809128049091C3
:10392000290482DB80912E0490912F04AC01485031
:103930005109FA01E01BF10BAC01092E000C660BDA
:10394000770B84169506A606B70638F420912A044C
:1039500030912B04C60108960AC09101281B390B2F
:10396000C9018C0D9D1D2091280430912904820FDE
:10397000931FAF0160E070E0B9D58F8320912E04D2
:1039800030912F04A101421B530B9A01200F311FCC
:10399000240D351D40E050E0682F8091280490915F
:1039A000290490D550C0C016D106E206F306C8F42B
:1039B0006C197D0980912A0490912B048C0D9D1D1A
:1039C00033DB80912E0490912F04B101681B790B99
:1039D0006C0D7D1D640D751D809128049091290446
:1039E0000CC0C601861B970B209128043091290436
:1039F000B201685F7F4F820F931F16DB80912E0408
:103A000090912F04AC01092E000C660B770B8416E5
:103A10009506A606B70638F420912A0430912B04A7
:103A2000C60108960AC0D101A81BB90BCD018C0DA7
:103A30009D1D2091280430912904820F931FA2011B
:103A400060E070E053D58F8361E070E0CE010796AF
:103A5000EBDA182FB8E04B0E511C611C711CC40C22
:103A6000D51CE61CF71C54CE8C859D85880F991FAC
:103A7000ED81FE81E80FF91F488959896A897B89A0
:103A8000808191810E94E80A4C855D854F5F5F4F80
:103A90005D874C878E859F8508969F878E8705CE8C
:103AA0002C893D89488959896A897B89CE0101968B
:103AB0000E94B60FF0CD112319F08C899D89D7DAB9
:103AC00069960FB6F894DEBF0FBECDBFDF91CF91E0
:103AD0001F910F91FF90EF90DF90CF90BF90AF902C
:103AE0009F908F907F906F905F904F903F902F901E
:103AF0000895CF93DF93EC01AC0160E070E0CB015F
:103B00009ADDAE0161E070E080E090E0DF91CF915E
:103B100092CDCF938091340490913504F3D9C82F7E
:103B200081110BC060E070E0CB010E94BE0561E036
:103B300070E080E090E00E94BE058C2FCF91089548
:103B40000F931F9389019A01AB01BC01809134044A
:103B5000909135041FDA1F910F9108954F925F9253
:103B60006F927F928F929F92AF92BF92CF92DF928D
:103B7000EF92FF920F931F93CF93DF93CDB7DEB7F2
:103B800067970FB6F894DEBF0FBECDBF6C017B0107
:103B90005A0180913804882331F0809138048823B9
:103BA00009F44AC30AC068E374E080913404909138
:103BB0003504F1D9811140C3F0CF809137041A82C6
:103BC0001982882309F46AC0E0E94E2EEFE55E2EE3
:103BD00066246394712C00E010E09801225E3B4F54
:103BE000AE014F5F5F4F61E070E0809134049091CF
:103BF0003504A8D9982E81114DC089819A81080F6A
:103C0000191F0115110509F445C081E0481A510832
:103C10006108710839F46091390470913A048DEEAD
:103C200090E030C00A30110589F549E050E060E0CD
:103C300070E08EE194E05ED46091390470913A04B2
:103C40008823F1F08091260490E068177907D9F471
:103C50008EEE90E0AED988E0EEE1F4E0DE01199658
:103C600001900D928A95E1F72091390430913A0440
:103C70002F5F3F4F332730933A04209339040AC013
:103C80008FEE90E096D91A82198204C00A3011058D
:103C90000CF4A3CF81E029813A8124C000E010E038
:103CA00078E0672E712C29E030E02C0F3D1F200FAB
:103CB000311FAE014F5F5F4FB301601B710B8091ED
:103CC0003404909135043ED9982E29813A8181118E
:103CD00008C0020F131F0115110519F00830110556
:103CE00014F381E0121613060CF080E09110A1C2CB
:103CF000882309F4A1C280913704811104C0198678
:103D00001A861B861C8689859A85AB85BC85803181
:103D1000910508F091C2FC01EC5CFF4F0C94412727
:103D2000D6011696ED91FC91179780819181A28121
:103D3000B38189839A83AB83BC83AE014F5F5F4FAE
:103D400064E070E085E190E07EC18D859E85AED90E
:103D5000009731F42FEF3FEFA90161E070E00EC052
:103D6000FC0180809180A280B380A701C501B401CD
:103D70000E94610AA501940160E070E08DE190E08D
:103D800056C28D859E8592D9009721F42FEF3FEF83
:103D9000A90110C0DC018D909D90AD90BD90AD014A
:103DA00095018401B701C6010E940307A501940192
:103DB000882319F061E070E002C060E070E08BE100
:103DC00090E035C28D859E8571D9009721F42FEF43
:103DD0003FEFA9010FC0FC0181909190A190B1909B
:103DE000BF01A5019401C6010E940609A501940125
:103DF000882319F061E070E002C060E070E08CE1BF
:103E000090E015C2D6011496ED91FC9115970081B2
:103E10001181F80182809380A080B18060E1462EFC
:103E2000512C612C712C49825A826B827C8288E0F1
:103E300090E0A0E0B0E08D839E83AF83B8879E01C1
:103E40002F5E3F4FAE014F5F5F4F68E070E08091A3
:103E500034049091350458D8882319F000E010E01C
:103E6000BBC089899A890897C9F7D801ED90FC9061
:103E7000B8E0EB0EF11CEE0CFF1CEE0CFF1CC701B2
:103E80000E948E278C01892B49F349825A826B82CA
:103E90007C82C7010F2C000CAA0BBB0B8D839E8369
:103EA000AF83B8879E012F5E3F4FAE014F5F5F4FDC
:103EB00068E070E0809134049091350425D8811138
:103EC0008BC089899A89089709F086C0D601129615
:103ED000ED91FC9113974081518162817381D801EA
:103EE0004D935D936D937C931397448155816681C7
:103EF000778114964D935D936D937C9317974085CE
:103F000051856285738518964D935D936D937C936F
:103F10001B9784859585A685B785F8018487958745
:103F2000A687B787108A118A128A138A84E090E0E4
:103F3000A0E0B0E0848B958BA68BB78B80919A0123
:103F400090919B01A0E0B0E0808F918FA28FB38F02
:103F5000C5010B2C000CAA0BBB0B848F958FA68F71
:103F6000B78FF401D801909680E090E08A159B0508
:103F700054F44191519160E070E04D935D936D93E5
:103F80007D930196F3CF9E012F5E3F4FA801B701AD
:103F900080913404909135040E94841781111CC0D3
:103FA00089899A898E159F05B9F4A70160E070E0B0
:103FB000C8019CD28B8B9E012F5E3F4FAE014D5EA0
:103FC0005F4F61E070E080913404909135040E946D
:103FD000841781E080933704C80167960FB6F89480
:103FE000DEBF0FBECDBFDF91CF911F910F91FF902C
:103FF000EF90DF90CF90BF90AF909F908F907F9089
:104000006F905F904F900C9423288D859E85AF858F
:10401000B8890097A105B10521F481E080933604A9
:104020000BC144D8009789F481E090E0A0E0B0E0B3
:1040300089839A83AB83BC83AE014F5F5F4F64E09B
:1040400070E082E190E06FDAF7C0BC01C6010E9427
:10405000100519821A821B821C82AE014F5F5F4FCE
:1040600064E070E082E190E05EDA8111E5C0D5CFD6
:10407000D6011496ED91FC9115970190F081E02DF9
:10408000008511850115110509F462C0D801ED9074
:10409000FC90C280D38020E030E060E070E080E0FF
:1040A00090E08E159F050CF5F801A281B381A20F57
:1040B000B31F1296ED91FC911397EE0FFF1FEC0DBD
:1040C000FD1D0190F081E02D16960D90BC91A02D64
:1040D000EA9FA001EB9F500DFA9F500D1124640F31
:1040E000751F0196285F3F4FDCCF83E190E00E946F
:1040F000D9178111A1C0812C912CA12CB12CAE1407
:10410000BF040CF099C0D8011296ED91FC91139761
:10411000E80DF91DA281B381AA0FBB1FAC0DBD1D17
:104120002D913C9186819781289FB001299F700D28
:10413000389F700D1124808191810E941418B8E07D
:104140008B0E911C811178C0EFEFAE1ABE0AD7CF4B
:1041500060E070E083E190E00E94D9176DC040E01C
:1041600050E060E070E081E190E0DDD9811164C051
:10417000812C912C5401C501B4010E94EA06809162
:104180004803882321F0A701C501B40154DAA7012F
:10419000C501B4010E94EA058A9489288A288B28DF
:1041A00029F0812C912C54018394E5CF109238048E
:1041B0001092370410923A0410923904809134041A
:1041C000909135040E94D11737C081E090E0909320
:1041D0004A038093490340E050E060E070E086E1EC
:1041E00090E031CF81E0D5018C9326C08D859E85EE
:1041F0000E945618009731F42FEF3FEFA90161E0BC
:1042000070E013C0FC012081318142815381CA01D9
:10421000B9012C8B3D8B4E8B5F8B0E94C10A2C8980
:104220003D894E895F8960E070E08EE190E0ADD914
:1042300003C0C7010E94371867960FB6F894DEBF17
:104240000FBECDBFDF91CF911F910F91FF90EF90E7
:10425000DF90CF90BF90AF909F908F907F906F90A6
:104260005F904F900895CF92DF92EF92FF92CF939D
:10427000DF93EC01C12CD12C7601C701B6010E945D
:10428000EA06AE01C701B601D6D9AE01C701B60133
:104290000E94EA058091300490913104009729F042
:1042A000D2D61092310410923004CA94CD28CE2870
:1042B000CF2829F0C12CD12C7601C394DECF809178
:1042C0003704882359F040E050E060E070E084E17A
:1042D00090E029D9F82E1092370401C0F12C80917A
:1042E0003804882341F01092380481E090E09093E4
:1042F0009B0180939A0180913404909135040E942F
:10430000D41780913404909135040E94C9178F2DE1
:10431000DF91CF91FF90EF90DF90CF900895CF93F2
:10432000DF93EC01AC0160E070E0CB010E94270F4D
:10433000AE0161E070E080E090E0DF91CF910C94FD
:10434000270F60E070E0CB010E94930F61E070E006
:1043500080E090E00C94930FCF92DF92EF92FF9267
:104360000F931F93CF93DF93EC016A017B0100E071
:1043700010E098010E94110B01E010E020E030E015
:10438000B701A601CE010E94110BDF91CF911F91C1
:104390000F91FF90EF90DF90CF90089568EE73E05B
:1043A00080E090E00E94451280E090E008950E9435
:1043B0007E1226E040E050E16EE070E084E593E09C
:1043C0000E94031484E593E00E944D13892B29F089
:1043D00084E593E00E946713F5CF80E090E00895B4
:1043E000AF92BF92CF92DF92EF92FF920F931F9303
:1043F000CF93DF9300D0CDB7DEB77A018901F90101
:104400001182108284E593E069837A830E944D13C0
:1044100069817A81892B99F15B01DD24D39485E64A
:10442000C82E80913B04811124C084E593E00E9452
:10443000671385369105A9F7D0923B04F501C19227
:104440005F01F80180819181019691838083E9CF9A
:1044500084E593E00E9467138F3FFFEF9F0749F0C9
:10446000F50181935F01F80180819181019691832B
:104470008083F801808191818E159F0548F380E04B
:1044800090E00F900F90DF91CF911F910F91FF90CF
:10449000EF90DF90CF90BF90AF9008950F931F9350
:1044A000CF93DF93EA01890184E593E00E943615FA
:1044B000F801D183C08380E090E0DF91CF911F911C
:1044C0000F910895DC01A40FB51F240F351FAD0116
:1044D000481B590B4217530738F4ED91E627F0E0DB
:1044E000E752FF4F6491F3CF862F08959A01AB01F5
:1044F0006FEFE8CFCF93FC01E60FF71FE40FF51F36
:10450000C081F4DF91E0C81390E0892FCF91089526
:104510001F920F920FB60F9211242F933F934F9338
:104520005F936F937F938F939F93AF93BF93EF931B
:10453000FF9380913D0487FF05C010928500109283
:1045400084001BC020913D04022E000C330B80918F
:104550003C0490E02817390784F480913D04082E2C
:10456000000C990BFC01EE0FFF1F8E0F9F1FFC012B
:10457000E25CFB4F808186FD15C080913D048F5F1A
:1045800080933D0420913D04022E000C330B80915A
:104590003C0490E028173907C4F480913D048C3026
:1045A00064F113C080913D04082E000C990BFC01AE
:1045B000EE0FFF1F8E0F9F1FFC01E25CFB4F8081FF
:1045C00060E08F730E941E13D8CF80918400909179
:1045D0008500049680349C4918F480E49CE905C069
:1045E0008091840090918500049690938900809337
:1045F00088008FEF80933D043BC020918400309170
:10460000850080913D04082E000C990BFC01EE0FF3
:10461000FF1F8E0F9F1FFC01E25CFB4F8181928187
:10462000820F931F909389008093880080913D04AE
:10463000082E000C990BFC01EE0FFF1F8E0F9F1F21
:10464000FC01E25CFB4F808186FF12C080913D043B
:10465000082E000C990BFC01EE0FFF1F8E0F9F1F01
:10466000FC01E25CFB4F808161E08F730E941E13AE
:10467000FF91EF91BF91AF919F918F917F916F913A
:104680005F914F913F912F910F900FBE0F901F9010
:104690001895FC0190913C049C30A0F481E0890FB6
:1046A00080933C049083892F90E0FC01EE0FFF1F64
:1046B0008E0F9F1FFC01E25CFB4F88EB9BE0928317
:1046C000818308958FEF80830895DF92EF92FF92A8
:1046D0000F931F93CF93DF93EC01D62E7A018901BC
:1046E00088818C3008F069C061E08D2D0E94E21253
:1046F0008881E82FF0E09F01220F331FE20FF31FA4
:10470000E25CFB4F9D2D9F732081207CD22ED92A05
:10471000D08260E272E0AB014E195F0957FF02C020
:104720004D5F5F4F5595479555954795498340E6B1
:1047300059E09A01201B310B37FF02C02D5F3F4F1C
:1047400035952795359527952A836CE03DD39CE0D8
:10475000899FB001112440E050E09A01260F371FD5
:10476000F901EE0FFF1F2E0F3F1FF901E25CFB4F17
:10477000908196FD16C04F5F5F4F4C30510569F731
:1047800081110FC01092800082E08093810010920E
:10479000850010928400B19A80916F0082608093AE
:1047A0006F00E881F0E0CF01880F991FE80FF91F33
:1047B000E25CFB4F8081806480838881DF91CF91B0
:1047C0001F910F91FF90EF90DF90089520E639E060
:1047D00040E252E07ACFFC0190819C3080F58181EB
:1047E00028E830E0281B310987FD3395220F331F5D
:1047F000220F331F621773077CF0828128E532E0B5
:10480000281B310987FD3395220F331F220F331FD9
:10481000621773070CF49B0122503109220F331FDA
:104820004FB7F894892F90E0FC01EE0FFF1F8E0F19
:104830009F1FFC01E25CFB4F328321834FBF089531
:10484000AF92BF92CF92DF92EF92FF920F931F939E
:10485000CF93DF93EC01603282E078070CF03FC029
:1048600077FD06C0653B71052CF064EB70E002C07B
:1048700060E070E0898128E830E05901A81AB108A9
:1048800087FDB394AA0CBB1CAA0CBB1C0B2C000C00
:10489000CC08DD08072E000C880B990B2A8108E54F
:1048A00012E0021B110927FD1395000F111F000FC5
:1048B000111F012E000C220B330B3F932F931F93DC
:1048C0000F9314EBE12EF12C00E010E020E030E03B
:1048D000A9010E9466160F900F900F900F90CE01C5
:1048E000DF91CF911F910F91FF90EF90DF90CF90CC
:1048F000BF90AF9070CF8091620491E0980F909339
:104900006204882349F021E030E03093640420936E
:10491000630480936204089578940E941901F894C6
:10492000809162048150809362040C943311DF9271
:10493000EF92FF920F931F93CF93DF9300D0CDB7E9
:10494000DEB7FF24F394FA820E947E120E94A7161B
:1049500000913A0210913B02F8011182108260E04E
:1049600070E080E090E00E943C110E940703789480
:10497000C80183569F4F0E943B1182E090E00E9445
:1049800037111982AE014F5F5F4F62E070E0F801AE
:10499000828193810E94E1108981882321F0F801AE
:1049A000ED55FF4FF0820E944211F8940E940717C4
:1049B000F80180819181892B29F481E0ED55FF4F29
:1049C0009081911180E08A83789478947801F3EA59
:1049D000EF0EF11CDD24D3948A81882329F11982FA
:1049E000AE014F5F5F4F62E070E0F801828193811A
:1049F0000E941D118981882311F0F701D082F801EE
:104A000080819181892B21F481E0F70190819111BE
:104A100080E08A838A81882319F00E94201702C0CF
:104A200080E090E08A83D8CF82E090E00E94391144
:104A30000E94E303F89480E090E00F900F90DF91E4
:104A4000CF911F910F91FF90EF90DF9008955058F4
:104A5000BB27AA270ED008C1F9D030F0FED020F035
:104A600031F49F3F11F41EF4EEC00EF4E095E7FB25
:104A7000E4C0E92F0AD180F3BA17620773078407ED
:104A8000950718F071F49EF522C10EF4E0950B2EF7
:104A9000BA2FA02D0B01B90190010C01CA01A00190
:104AA0001124FF27591B99F0593F50F4503E68F1EB
:104AB0001A16F040A22F232F342F4427585FF3CF2C
:104AC000469537952795A795F0405395C9F77EF4FD
:104AD0001F16BA0B620B730B840BBAF09150A1F046
:104AE000FF0FBB1F661F771F881FC2F70EC0BA0FCC
:104AF000621F731F841F48F4879577956795B79554
:104B0000F7959E3F08F0B3CF9395880F08F099274B
:104B1000EE0F9795879508956CD008F481E008957D
:104B2000BCD088F09F5790F0B92F9927B751A0F0CB
:104B3000D1F0660F771F881F991F1AF0BA95C9F731
:104B400012C0B13081F0C3D0B1E00895C0C0672F6A
:104B5000782F8827B85F39F0B93FCCF386957795E1
:104B60006795B395D9F73EF49095809570956195CA
:104B70007F4F8F4F9F4F0895E89409C097FB3EF4F5
:104B800090958095709561957F4F8F4F9F4F99239A
:104B9000A9F0F92F96E9BB279395F6958795779518
:104BA0006795B795F111F8CFFAF4BB0F11F460FFD8
:104BB0001BC06F5F7F4F8F4F9F4F16C0882311F030
:104BC00096E911C0772321F09EE8872F762F05C044
:104BD000662371F096E8862F70E060E02AF09A95DF
:104BE000660F771F881FDAF7880F9695879597F9D4
:104BF0000895990F0008550FAA0BE0E8FEEF16166E
:104C00001706E807F907C0F012161306E407F507C0
:104C100098F0621B730B840B950B39F40A2661F034
:104C2000232B242B252B21F408950A2609F4A140D7
:104C3000A6958FEF811D811D089597F99F6780E8E4
:104C400070E060E008959FEF80EC089500240A94DE
:104C50001616170618060906089500240A94121657
:104C60001306140605060895092E0394000C11F48A
:104C7000882352F0BB0F40F4BF2B11F460FF04C037
:104C80006F5F7F4F8F4F9F4F089557FD9058440F90
:104C9000551F59F05F3F71F04795880F97FB991F9B
:104CA00061F09F3F79F08795089512161306140658
:104CB000551FF2CF4695F1DF08C0161617061806E5
:104CC000991FF1CF86957105610508940895E894C0
:104CD000BB2766277727CB0197F908958ADF08F469
:104CE0008FEF08950BD0C0CFB1DF28F0B6DF18F0FA
:104CF000952309F0A2CFA7CF1124EACFC6DFA0F3F6
:104D0000959FD1F3950F50E0551F629FF001729F60
:104D1000BB27F00DB11D639FAA27F00DB11DAA1F7F
:104D2000649F6627B00DA11D661F829F2227B00DCC
:104D3000A11D621F739FB00DA11D621F839FA00D57
:104D4000611D221F749F3327A00D611D231F849FA7
:104D5000600D211D822F762F6A2F11249F575040FE
:104D60008AF0E1F088234AF0EE0FFF1FBB1F661F99
:104D7000771F881F91505040A9F79E3F510570F052
:104D80005CCFA6CF5F3FECF3983EDCF3869577953A
:104D90006795B795F795E7959F5FC1F7FE2B880F4D
:104DA000911D9695879597F90895DB018F939F93B1
:104DB0006ED0BF91AF91A29F800D911DA39F900DCA
:104DC000B29F900D11240895991B79E004C0991F9A
:104DD000961708F0961B881F7A95C9F78095089555
:104DE00097FB072E16F4009406D077FD08D059D013
:104DF00007FC05D03EF4909581959F4F08957095DE
:104E000061957F4F0895A1E21A2EAA1BBB1BFD01DD
:104E10000DC0AA1FBB1FEE1FFF1FA217B307E40799
:104E2000F50720F0A21BB30BE40BF50B661F771FF1
:104E3000881F991F1A9469F76095709580959095D1
:104E40009B01AC01BD01CF010895052E97FB16F41F
:104E500000940FD057FD05D0D6DF07FC02D046F4F2
:104E600008C050954095309521953F4F4F4F5F4F6B
:104E7000089590958095709561957F4F8F4F9F4FC6
:104E80000895EE0FFF1F0590F491E02D09941DD0B9
:104E9000A59F900DB49F900DA49F800D911D11248E
:104EA0000895AA1BBB1B51E107C0AA1FBB1FA61771
:104EB000B70710F0A61BB70B881F991F5A95A9F7C3
:104EC00080959095BC01CD010895A29FB001B39F3C
:104ED000C001A39F700D811D1124911DB29F700D03
:104EE000811D1124911D08950F931F93CF93DF937C
:104EF000869F8001879F100D969F100D1124C80179
:104F00000DD0EC01009721F0A80160E070E03CD1E9
:104F1000CE01DF91CF911F910F910895CF93DF9331
:104F20008230910510F482E090E0E0912905F09143
:104F30002A0520E030E0C0E0D0E0309711F1408158
:104F4000518148175907C0F04817590761F4828109
:104F50009381209719F09B838A832BC090932A0515
:104F60008093290526C02115310519F042175307F2
:104F700018F49A01BE01DF01EF010280F381E02DF8
:104F8000DCCF2115310509F1281B390B24303105FF
:104F900090F412968D919C9113976115710521F0F3
:104FA000FB019383828304C090932A058093290593
:104FB000FD01329644C0FD01E20FF31F81939193EE
:104FC000225031092D933C933AC02091270530910E
:104FD0002805232B41F420910201309103013093E5
:104FE000280520932705209100013091010121150A
:104FF000310541F42DB73EB74091040150910501B0
:10500000241B350BE0912705F0912805E217F307E3
:10501000A0F42E1B3F0B2817390778F0AC014E5F28
:105020005F4F2417350748F04E0F5F1F5093280538
:10503000409327058193919302C0E0E0F0E0CF0117
:10504000DF91CF9108950F931F93CF93DF93009734
:1050500009F48CC0FC013297138212820091290559
:1050600010912A050115110581F420813181820FEB
:10507000931F20912705309128052817390779F5C6
:10508000F0932805E093270571C0D80140E050E077
:10509000AE17BF0750F412962D913C911397AD01B6
:1050A0002115310509F1D901F3CF9D01DA013383CF
:1050B000228360817181860F971F8217930769F49D
:1050C000EC0128813981260F371F2E5F3F4F318336
:1050D00020838A819B8193838283452B29F4F093DB
:1050E0002A05E093290542C01396FC93EE9312978C
:1050F000ED01499159919E01240F351FE217F307E5
:1051000071F480819181840F951F029611969C9372
:105110008E938281938113969C938E931297E0E0F5
:10512000F0E0D80112968D919C911397009719F099
:10513000F8018C01F6CF8D919C9198012E5F3F4F25
:10514000820F931F209127053091280528173907D2
:1051500069F4309729F410922A051092290502C0AB
:10516000138212821093280500932705DF91CF91B7
:105170001F910F910895FB01DC0102C001900D9277
:1051800041505040D8F70895DC0101C06D93415063
:105190005040E0F70895FB01DC018D9101908019EA
:0C51A0000110D9F3990B0895F894FFCF8B
:1051AC0000002B0580000100000002000E017A01B6
:1051BC000700000006009201030000000600040036
:1051CC00220165040000000002001B050000000025
:1051DC00020023050B000000010025050300000060
:1051EC000200C701CE01D801D701E001DF01E901BE
:1051FC00E801F101FB0106020C0216021F02040079
:10520C00040001000100020002000400040001007F
:10521C000400020002000400080003000000050066
:10522C00000006000000090000000A0000000B004E
:10523C000000000102030405010101008711871120
:10524C00FF53696D756C6174696F6E2066696E6968
:10525C007368656400466978656453746570446965
:10526C00736372657465007265616C5F540072657E
:10527C00616C33325F540075696E74385F5400751D
:10528C00696E7431365F540075696E7433325F54D5
:10529C0000626F6F6C65616E5F540066636E5F6376
:1052AC00616C6C5F5400696E745F5400706F696E52
:1052BC007465725F5400616374696F6E5F5400743F
:1052CC00696D65725F75696E7433325F7061697296
:1052DC005F5400015A5A5A5A5A6C6D04000000006F
:1052EC00BD1336154D13671359139C1300000000A2
:1052FC00EC142D77002D69676E6F72652D617267E6
:10530C0000436F756C64206E6F74206372656174FA
:10531C00652065787465726E616C206D6F646520B4
:10532C007573657220646174612E20204F75742032
:0C533C006F66206D656D6F72792E0A009F
:00000001FF
