:1000000073C00000CFC50000F4C5000095C000001B
:1000100093C0000091C000008FC000000C94F6094E
:100020008BC000000C94BD0A87C000000C94070B25
:1000300083C0000081C000007FC000007DC00000C0
:10004000FFC5000079C000000C9454080C94860889
:1000500073C0000071C000006FC000006DC00000E0
:100060006BC0000069C0000007634236B79BD8A789
:100070001A39685618AEBAAB558C1D3CB7CC5763CD
:10008000BD6DEDFD753EF6177231BF000000803F7B
:100090000000000800020100000304070000000047
:1000A0000000000001020408102040800102040842
:1000B00010200102040810200404040404040404B1
:1000C0000202020202020303030303030000000012
:1000D000250028002B0000000000240027002A0033
:1000E0000200AB081709AF0A11241FBECFEFD8E0FA
:1000F000DEBFCDBF11E0A0E0B1E0E8E6F1E202C072
:1001000005900D92AA33B107D9F723E0AAE3B1E035
:1001100001C01D92AC30B207E1F710E0C4E7D0E0B7
:1001200004C02197FE010E949D10C137D107C9F775
:100130000E940F0D0C94B21063CF4F925F926F929A
:100140007F928F929F92AF92BF92CF92DF92EF9267
:10015000FF920F931F93CF93DF93CDB7DEB76897CE
:100160000FB6F894DEBF0FBECDBFE091B402F091A0
:10017000B502C080D180E280F3808091F2028111CB
:1001800017C081E08093F20283E08093F302109223
:10019000D6021092D7021092D8021092D902C092C1
:1001A000E602D092E702E092E802F092E902BCC0D7
:1001B0008091F302823079F0833009F449C08130B4
:1001C00009F07FC02091EE023091EF024091F002E1
:1001D0005091F102BAC020E030E040EA50E4609172
:1001E000DA027091DB028091DC029091DD020E94C4
:1001F000550F87FD24C081E08093F30280E090E0FA
:10020000A0E4B0E48093D6029093D702A093D802E2
:10021000B093D90280E090E0A0E0B0E48093DE02E9
:100220009093DF02A093E002B093E102C092EE024D
:10023000D092EF02E092F002F092F10275C02091AC
:10024000EA023091EB024091EC025091ED027DC048
:1002500020E030E040EC50E46091DA027091DB0283
:100260008091DC029091DD020E94550F87FD20C035
:1002700084E08093F30280E090E0A0E8BFE3809305
:10028000D6029093D702A093D802B093D9021092CD
:10029000DE021092DF021092E0021092E102C092A0
:1002A000E202D092E302E092E402F092E5023CC066
:1002B0002091E6023091E7024091E8025091E90274
:1002C00044C020E030E040EA50E46091DA027091EE
:1002D000DB028091DC029091DD020E94550F87FDC8
:1002E0002CC082E08093F30280E090E0A0E0B0E4D4
:1002F0008093D6029093D702A093D802B093D902EC
:1003000080E090E0A0E8BFE38093DE029093DF02FC
:10031000A093E002B093E102C092EA02D092EB0215
:10032000E092EC02F092ED021092DA021092DB02FF
:100330001092DC021092DD0214C02091E202309192
:10034000E3024091E4025091E502C701B6010E9428
:100350004B0D6093DA027093DB028093DC02909382
:10036000DD02C090D602D090D702E090D802F09083
:10037000D90220E030E0A901C701B6010E94B00D0A
:100380008E01075E1F4F8111ACC019821A821B8239
:100390001C821D821E821F82188619861A861B8661
:1003A0001C861D861E861F86188A198A1A8A1B8A31
:1003B0001C8A1D8A1E8A1F8A188EC701B6010E94D8
:1003C0004D0E61307105B1F124F4672B09F463C05F
:1003D0007AC06230710529F06330710509F45BC0A1
:1003E00072C08CEF91E9A9E3B9EB89839A83AB835F
:1003F000BC838EE893EAADE6BFEB8D839E83AF832B
:10040000B88788E793E8A4E1BFE389879A87AB8739
:10041000BC8788EB9BE4A5E8BEE38D879E87AF870A
:10042000B88B84EB99ECA4E9BAEB898B9A8BAB8BF4
:10043000BC8B45C08CEF91E9A9E3B9EB89839A8322
:10044000AB83BC838EE893EAADE6BFEB8D839E83DE
:10045000AF83B88788E793E8A4E1BFE389879A87E9
:10046000AB87BC8788EB9BE4A5E8BEE38D879E87BE
:10047000AF87B88B84EB99ECA4E9BAEB898B9A8BA4
:10048000AB8BBC8B8BED9FE0A9E4BFEB8D8B9E8B80
:10049000AF8BB88F18C019821A821B821C821D82F2
:1004A0001E821F82188619861A861B861C861D8648
:1004B0001E861F86188A198A1A8A1B8A1C8A1D8A18
:1004C0001E8A1F8A188E8D819E81AF81B885B05893
:1004D0008D839E83AF83B887FE013196A4EFB2E08F
:1004E000F3C11092BE021092BF021092C00210928D
:1004F000C1021092C2021092C3021092C402109262
:10050000C5021092C6021092C7021092C802109241
:10051000C9021092CA021092CB021092CC02109221
:10052000CD021092CE021092CF021092D002109201
:10053000D1021092D2021092D3021092D4021092E1
:10054000D502C701B6010E944D0E6130710509F454
:100550004AC024F4672B09F48FC0BEC06230710515
:1005600029F06330710509F487C0B6C08CEF91E9BA
:10057000A9E3B9EB8093BE029093BF02A093C0029F
:10058000B093C1028EE893EAADE6BFEB8093C2025E
:100590009093C302A093C402B093C50288E793E886
:1005A000A4E1BFE38093C6029093C702A093C80260
:1005B000B093C90288EB9BE4A5E8BEE38093CA022E
:1005C0009093CB02A093CC02B093CD0284EB99EC34
:1005D000A4E9BAEB8093CE029093CF02A093D0020D
:1005E000B093D10271C08CEF91E9A9E3B9EB80938C
:1005F000BE029093BF02A093C002B093C1028EE8E6
:1006000093EAADE6BFEB8093C2029093C302A0933E
:10061000C402B093C50288E793E8A4E1BFE38093E6
:10062000C6029093C702A093C802B093C90288EB98
:100630009BE4A5E8BEE38093CA029093CB02A0930B
:10064000CC02B093CD0284EB99ECA4E9BAEB809391
:10065000CE029093CF02A093D002B093D1028BED43
:100660009FE0A9E4BFEB8093D2029093D302A093C2
:10067000D402B093D50230C01092BE021092BF02D5
:100680001092C0021092C1021092C2021092C302D4
:100690001092C4021092C5021092C6021092C702B4
:1006A0001092C8021092C9021092CA021092CB0294
:1006B0001092CC021092CD021092CE021092CF0274
:1006C0001092D0021092D1021092D2021092D30254
:1006D0001092D4021092D5028091C2029091C3026E
:1006E000A091C402B091C502B0588093C202909309
:1006F000C302A093C402B093C50219821A821B825E
:100700001C821D821E821F82188619861A861B86ED
:100710001C861D861E861F86188A198A1A8A1B8ABD
:100720001C8A1D8A1E8A1F8A188E6091DE027091B3
:10073000DF028091E0029091E1020E944D0E613053
:100740007105B1F124F4672B09F463C07AC06230FB
:10075000710529F06330710509F45BC072C08CEF3C
:1007600091E9A9E3B9EB89839A83AB83BC838EE8D3
:1007700093EAADE6BFEB8D839E83AF83B88788E7AE
:1007800093E8A4E1BFE389879A87AB87BC8788EBAE
:100790009BE4A5E8BEE38D879E87AF87B88B84EB8B
:1007A00099ECA4E9BAEB898B9A8BAB8BBC8B45C0D7
:1007B0008CEF91E9A9E3B9EB89839A83AB83BC837E
:1007C0008EE893EAADE6BFEB8D839E83AF83B88757
:1007D00088E793E8A4E1BFE389879A87AB87BC8762
:1007E00088EB9BE4A5E8BEE38D879E87AF87B88B37
:1007F00084EB99ECA4E9BAEB898B9A8BAB8BBC8B1D
:100800008BED9FE0A9E4BFEB8D8B9E8BAF8BB88FF8
:1008100018C019821A821B821C821D821E821F82AE
:10082000188619861A861B861C861D861E861F86BC
:10083000188A198A1A8A1B8A1C8A1D8A1E8A1F8A8C
:10084000188E8D819E81AF81B885B0588D839E832F
:10085000AF83B88720E030E040E050EC6091DA02EE
:100860007091DB028091DC029091DD020E94C90F41
:100870000E94210E2B013C018EEBC82E82E0D82E67
:10088000CE0101967C01F60181909190A190B190EA
:100890006F01A5019401F7016081718182819381CB
:1008A0000E944B0DA30192010E94C90FA501940162
:1008B0000E944C0DF70161937193819391937F0195
:1008C000E017F10701F708CE4191519161917191C3
:1008D0004D935D936D937D93E017F107A9F7C98060
:1008E000DA80EB80FC8020E030E040E853E4C70190
:1008F000B6010E94B00D87FF0EC020E030E0A901D4
:10090000C701B6010E94550F87FD07C0C701B60198
:100910000E94520E03C06FEF01C060E080E015D668
:10092000CD80DE80EF80F88420E030E040E853E4C2
:10093000C701B6010E94B00D87FF0EC020E030E075
:10094000A901C701B6010E94550F87FD07C0C70165
:10095000B6010E94520E03C06FEF01C060E081E05B
:10096000F4D5C984DA84EB84FC8420E030E040E8EC
:1009700053E4C701B6010E94B00D87FF0EC020E00E
:1009800030E0A901C701B6010E94550F87FD07C0DD
:10099000C701B6010E94520E03C06FEF01C060E0B4
:1009A00082E0D3D5CD84DE84EF84F88820E030E087
:1009B00040E853E4C701B6010E94B00D87FF0EC0A6
:1009C00020E030E0A901C701B6010E94550F87FD64
:1009D00007C0C701B6010E94520E03C06FEF01C0ED
:1009E00060E083E0B2D5C988DA88EB88FC8820E033
:1009F00030E040E853E4C701B6010E94B00D87FF24
:100A00000EC020E030E0A901C701B6010E94550FD9
:100A100087FD07C0C701B6010E94520E03C06FEFE9
:100A200001C060E084E091D5CD88DE88EF88F88C45
:100A300020E030E040E853E4C701B6010E94B00D69
:100A400087FF0EC020E030E0A901C701B6010E9477
:100A5000550F87FD07C0C701B6010E94520E03C0A3
:100A60006FEF01C060E085E070D50091B402109195
:100A7000B5028091A6029091A702A091A802B09120
:100A8000A902BC01CD016F5F7F4F8F4F9F4F6093D5
:100A9000A6027093A7028093A8029093A9020E94D5
:100AA0007E0E2091AA023091AB024091AC0250918F
:100AB000AD020E94C90FF801608371838283938322
:100AC0008091AE029091AF02A091B002B091B102BC
:100AD0000196A11DB11D8093AE029093AF02A09329
:100AE000B002B093B10268960FB6F894DEBF0FBEA5
:100AF000CDBFDF91CF911F910F91FF90EF90DF90CD
:100B0000CF90BF90AF909F908F907F906F905F90AD
:100B10004F9008950F931F93CF93DF93E9E2F2E094
:100B200082EB92E095838483C4EBD2E0D093680299
:100B3000C09367020AEA12E0138B028BF0939202D1
:100B4000E0939102F383E28321E030E0DC012D9316
:100B50003C938FE091E09187808786EB92E09983C8
:100B600088834DEC5CEC6CE47FE3F80140835183B7
:100B70006283738363E080E0DED465E081E0DBD4F0
:100B800066E082E0D8D469E083E0D5D46AE084E00E
:100B9000D2D46BE085E0DF91CF911F910F91CBC450
:100BA000089508951F920F920FB60F9211242F935C
:100BB0003F934F935F936F937F938F939F93AF93E5
:100BC000BF93EF93FF93E0910A01F0910B01099518
:100BD000FF91EF91BF91AF919F918F917F916F9115
:100BE0005F914F913F912F910F900FBE0F901F90EB
:100BF00018951F920F920FB60F9211242F933F93C7
:100C00004F935F936F937F938F939F93AF93BF9314
:100C1000EF93FF93E0910C01F0910D010995FF9185
:100C2000EF91BF91AF919F918F917F916F915F9164
:100C30004F913F912F910F900FBE0F901F901895DD
:100C40001F920F920FB60F9211242F933F938F9301
:100C50009F93AF93BF9380913B0190913C01A091F2
:100C60003D01B0913E0130913A0123E0230F2D3731
:100C700020F40196A11DB11D05C026E8230F0296A0
:100C8000A11DB11D20933A0180933B0190933C013B
:100C9000A0933D01B0933E0180913F0190914001AE
:100CA000A0914101B09142010196A11DB11D809317
:100CB0003F0190934001A0934101B0934201BF9145
:100CC000AF919F918F913F912F910F900FBE0F90F9
:100CD0001F901895789484B5826084BD84B5816036
:100CE00084BD85B5826085BD85B5816085BDEEE634
:100CF000F0E0808181608083E1E8F0E01082808113
:100D000082608083808181608083E0E8F0E0808180
:100D100081608083E1EBF0E0808184608083E0EBA0
:100D2000F0E0808181608083EAE7F0E08081846088
:100D300080838081826080838081816080838081E4
:100D4000806880831092C1000895833081F028F478
:100D5000813099F08230A1F008958730A9F0883071
:100D6000B9F08430D1F4809180008F7D03C08091F0
:100D700080008F7780938000089584B58F7702C0BC
:100D800084B58F7D84BD08958091B0008F7703C0B6
:100D90008091B0008F7D8093B0000895CF93DF9352
:100DA00090E0FC01EC55FF4F2491FC01E854FF4F0B
:100DB0008491882361F190E0880F991FFC01EA5229
:100DC000FF4FC591D491FC01E453FF4FA591B4911D
:100DD000611109C09FB7F894888120958223888388
:100DE000EC912E230BC0623061F49FB7F8943881E8
:100DF000822F809583238883EC912E2B2C939FBF89
:100E000006C08FB7F894E8812E2B28838FBFDF911F
:100E1000CF9108951F93CF93DF93282F30E0F901EE
:100E2000E057FF4F8491F901EC55FF4FD491F90140
:100E3000E854FF4FC491CC23C1F0162F811185DFF8
:100E4000EC2FF0E0EE0FFF1FE453FF4FA591B4919C
:100E50008FB7F894111105C09C91ED2FE095E9230F
:100E600002C0EC91ED2BEC938FBFDF91CF911F91DE
:100E70000895FC01918D228D892F90E0805C9F4F19
:100E8000821B91098F7399270895FC01918D828DA2
:100E9000981731F0828DE80FF11D858D90E008954F
:100EA0008FEF9FEF0895FC01918D828D981761F06F
:100EB000828DDF01A80FB11D5D968C91928D9F5F91
:100EC0009F73928F90E008958FEF9FEF0895FC013C
:100ED000848DDF01A80FB11DA35ABF4F2C91848DC3
:100EE00090E001968F739927848FA689B7892C93F8
:100EF000A089B1898C9180648C93938D848D981393
:100F000006C00288F389E02D80818F7D808308955B
:100F1000CF93DF93EC01888D8823C1F0EA89FB89A8
:100F2000808185FD05C0A889B9898C9186FD0EC098
:100F30000FB607FCF5CF808185FFF2CFA889B9896C
:100F40008C9185FFEDCFCE01C2DFE8CFDF91CF914D
:100F50000895EF92FF920F931F93CF93DF93EC01CD
:100F600081E0888F9B8D8C8D981305C0E889F98965
:100F7000808185FD23C0F62E0B8D10E00F5F1F4F83
:100F80000F731127E02E8C8DE8120BC00FB607FCF3
:100F9000FACFE889F989808185FFF5CFCE0197DF07
:100FA000F2CF8B8DFE01E80FF11DE35AFF4FF08267
:100FB0000B8FEA89FB898081806207C0EE89FF89F7
:100FC0006083E889F98980818064808381E090E092
:100FD000DF91CF911F910F91FF90EF900895CF92E5
:100FE000DF92EF92FF921F93CF93DF93EC016A01A0
:100FF0007B01122FE889F98982E080834115514EE7
:1010000061057105B1F060E079E08DE390E0A70142
:1010100096010E945510DA01C9010197A109B10991
:10102000B695A79597958795AC01411580E158072E
:10103000A8F0E889F989108260E874E88EE190E010
:10104000A70196010E945510BA01A901415051090A
:10105000610971097695679557954795EC85FD85EA
:101060005083EE85FF854083188EEC89FD891083BF
:10107000EA89FB89808180618083EA89FB8980819C
:1010800088608083EA89FB89808180688083EA891F
:10109000FB8980818F7D8083DF91CF911F91FF90AD
:1010A000EF90DF90CF9008951F920F920FB60F929E
:1010B00011242F938F939F93EF93FF93E09153010C
:1010C000F09154018081E0915901F0915A0182FD23
:1010D00012C0908180915C018F5F8F7320915D01C0
:1010E000821751F0E0915C01F0E0ED5BFE4F958FCF
:1010F00080935C0101C08081FF91EF919F918F915E
:101100002F910F900FBE0F901F9018951F920F9266
:101110000FB60F9211242F933F934F935F936F93CA
:101120007F938F939F93AF93BF93EF93FF9383E44A
:1011300091E0CDDEFF91EF91BF91AF919F918F91A3
:101140007F916F915F914F913F912F910F900FBEC3
:101150000F901F901895E3E4F1E01382128288EE5D
:1011600093E0A0E0B0E084839583A683B78387E211
:1011700091E09183808385EC90E09587848784EC6F
:1011800090E09787868780EC90E0918B808B81EC54
:1011900090E0938B828B82EC90E0958B848B86EC35
:1011A00090E0978B868B118E128E138E148E08957D
:1011B0008F929F92AF92BF92CF92DF92EF92FF9267
:1011C0000F931F93CF93DF937C018B016C0182E01F
:1011D000C80ED11C4701E5E08E0E911CC0E0D0E0A6
:1011E000F60161916F014AE050E0C801C5D05C0191
:1011F0006EE2C80167D08A0D9B1DC80FD91FC814A5
:10120000D90471F74AE050E0F7016581C801B4D014
:101210008C0F9D1FDF91CF911F910F91FF90EF9049
:10122000DF90CF90BF90AF909F908F900895E0EEA9
:10123000F1E087E391E0918380831282138214822C
:1012400015820895CF92DF92EF92FF920F931F9332
:10125000CF93DF936C017A018B01C0E0D0E0CE1513
:10126000DF0589F0D8016D918D01D601ED91FC91DA
:101270000190F081E02DC6010995892B11F47E01C2
:1012800002C02196ECCFC701DF91CF911F910F9142
:10129000FF90EF90DF90CF9008956115710579F080
:1012A000FB0101900020E9F73197AF01461B570B76
:1012B000DC01ED91FC910280F381E02D099480E046
:1012C00090E00895DC01ED91FC910190F081E02D1A
:1012D00009944F925F926F927F92EF92FF920F93D9
:1012E0001F93CF93DF93CDB7DEB7A1970FB6F894D6
:1012F000DEBF0FBECDBF7C01FA01CB0119A22230A7
:1013000008F42AE08E010F5D1F4F422E512C612CF4
:10131000712CBF01A3019201C8D6F901CA01015085
:1013200011096A3014F4605D01C0695CD8016C93E6
:10133000232B242B252B69F7B801C701AEDFA1961B
:101340000FB6F894DEBF0FBECDBFDF91CF911F91D6
:101350000F91FF90EF907F906F905F904F90089566
:101360002115310541F4DC01ED91FC910190F081F2
:10137000E02D642F0994ADCF9A01462F50E060E034
:1013800070E0EECF813039F018F0823051F00895DE
:1013900010926E00089580916F008D7F80936F0092
:1013A0000895809170008D7F8093700081E080931C
:1013B000B0008091B100887F84608093B10010926A
:1013C000B3000895CF93C82F80910E018C1307C0EE
:1013D000E0EEF0E0E4918FEF80930E0101C0EFEFBB
:1013E0008E2FD0DF60E08C2FCF9114CD1F920F9203
:1013F0000FB60F9211242F933F934F935F936F93E8
:101400007F938F939F93AF93BF93EF93FF938091BD
:10141000E9019091EA01A091EB01B091EC01892BD7
:101420008A2B8B2B51F18091E601E091E701F0913D
:10143000E8019081892780838091E9019091EA01F8
:10144000A091EB01B091EC01181619061A061B06C3
:10145000BCF48091E9019091EA01A091EB01B09177
:10146000EC010197A109B1098093E9019093EA0188
:10147000A093EB01B093EC0103C080910E01A2DFB9
:10148000FF91EF91BF91AF919F918F917F916F915C
:101490005F914F913F912F910F900FBE0F901F9032
:1014A00018954F925F926F927F92AF92BF92CF92B8
:1014B000DF92EF92FF920F931F93CF93DF93CDB7FD
:1014C000DEB729013A019B01AC012419350946090F
:1014D000570989899A89AB89BC89BC01CD016A19F0
:1014E0007B098C099D09C6D5A801970124193509E6
:1014F00046095709FCD5CA01B9016A0D7B1D8C1D2F
:101500009D1DDF91CF911F910F91FF90EF90DF9084
:10151000CF90BF90AF907F906F905F904F90089565
:1015200040E855E260E070E080E090E000C026E036
:1015300083E491E054CD70E090E09C01220F331FD2
:10154000820F931F83519E4FBDC170E090E09C01BC
:10155000220F331F820F931F83519E4FEDC1CF93F4
:10156000DF93CDEED1E0CE0111D1239681E0CF3FC4
:10157000D807C9F7DF91CF9108951F920F920FB648
:101580000F9211242F933F934F935F936F937F9309
:101590008F939F93AF93BF93EF93FF9386E08093D6
:1015A000B2008091FF018F5F8093FF01823319F4B5
:1015B0001092FF011BD2FF91EF91BF91AF919F91CC
:1015C0008F917F916F915F914F913F912F910F90EC
:1015D0000FBE0F901F90189586E08093B200E0E751
:1015E000F0E080818E7F8083A0EBB0E08C918C7FD7
:1015F0008C93A1EBB0E08C91877F8C938C9187606A
:101600008C93808181608083089581E008951F928A
:101610000F920FB60F9211242F933F934F935F9326
:101620006F937F938F939F93AF93BF93EF93FF93AA
:101630008091010287FF05C01092850010928400FE
:101640001BC020910102022E000C330B809100027E
:1016500090E02817390784F480910102082E000CCD
:10166000990BFC01EE0FFF1F8E0F9F1FFC01EE5F19
:10167000FD4F808186FD15C0809101028F5F8093B0
:10168000010220910102022E000C330B8091000216
:1016900090E028173907BCF4809101028C305CF18E
:1016A00012C080910102082E000C990BFC01EE0F74
:1016B000FF1F8E0F9F1FFC01EE5FFD4F808160E0DA
:1016C0008F73A8DBD9CF8091840090918500049618
:1016D00080349C4918F480E49CE905C08091840022
:1016E00090918500049690938900809388008FEFF5
:1016F000809301023AC0209184003091850080914E
:101700000102082E000C990BFC01EE0FFF1F8E0F3B
:101710009F1FFC01EE5FFD4F81819281820F931F1D
:10172000909389008093880080910102082E000C1C
:10173000990BFC01EE0FFF1F8E0F9F1FFC01EE5F48
:10174000FD4F808186FF11C080910102082E000CA0
:10175000990BFC01EE0FFF1F8E0F9F1FFC01EE5F28
:10176000FD4F808161E08F7355DBFF91EF91BF9159
:10177000AF919F918F917F916F915F914F913F9129
:101780002F910F900FBE0F901F901895FC01909114
:1017900000029C30A0F481E0890F809300029083C6
:1017A000892F90E0FC01EE0FFF1F8E0F9F1FFC01A1
:1017B000EE5FFD4F88EB9BE09283818308958FEF6E
:1017C00080830895DF92EF92FF920F931F93CF9340
:1017D000DF93EC01D62E7A01890188818C3008F0E4
:1017E00068C061E08D2DDADA8881E82FF0E09F0192
:1017F000220F331FE20FF31FEE5FFD4F9D2D9F73EE
:101800002081207CD22ED92AD08260E272E0AB0106
:101810004E195F0957FF02C04D5F5F4F55954795C1
:1018200055954795498340E659E09A01201B310BB5
:1018300037FF02C02D5F3F4F35952795359527958A
:101840002A836CE026D49CE0899FB001112440E0FB
:1018500050E09A01260F371FF901EE0FFF1F2E0FE0
:101860003F1FF901EE5FFD4F908196FD16C04F5F5F
:101870005F4F4C30510569F781110FC01092800005
:1018800082E0809381001092850010928400B19ACA
:1018900080916F00826080936F00E881F0E0CF015B
:1018A000880F991FE80FF91FEE5FFD4F808180645C
:1018B00080838881DF91CF911F910F91FF90EF90EE
:1018C000DF90089520E639E040E252E07BCFFC0152
:1018D00090819C3080F5818128E830E0281B310917
:1018E00087FD3395220F331F220F331F62177307B3
:1018F0007CF0828128E532E0281B310987FD339591
:10190000220F331F220F331F621773070CF49B0142
:1019100022503109220F331F4FB7F894892F90E0DE
:10192000FC01EE0FFF1F8E0F9F1FFC01EE5FFD4FAE
:10193000328321834FBF0895AF92BF92CF92DF923F
:10194000EF92FF920F931F93CF93DF93EC016032DE
:1019500082E078070CF03EC077FD06C0653B71055C
:101960002CF064EB70E002C060E070E0898128E850
:1019700030E05901A81AB10887FDB394AA0CBB1C2A
:10198000AA0CBB1C0B2C000CCC08DD08072E000C8D
:10199000880B990B2A8108E512E0021B110927FD2B
:1019A0001395000F111F000F111F012E000C220BA9
:1019B000330B3F932F931F930F9314EBE12EF12CD6
:1019C00000E010E020E030E0A9016BDD0F900F9007
:1019D0000F900F90CE01DF91CF911F910F91FF904B
:1019E000EF90DF90CF90BF90AF9071CF80912602A3
:1019F00091E0980F90932602882339F021E030E09F
:101A0000309328022093270207C078940E949D00FB
:101A1000F8948091260281508093260208950F93B6
:101A20001F93CF93DF931F92CDB7DEB781E08983F9
:101A300051D976DD0091210110912201F801118226
:101A4000108268D8C9DD81E0F80120813181232B23
:101A500009F080E08983789478948981882389F0DB
:101A600081E0F80120813181232B09F080E0898316
:101A70008981882311F0C9DD02C080E090E089836C
:101A8000ECCF8ED8F89480E090E00F90DF91CF916A
:101A90001F910F9108955058BB27AA270ED0CBC194
:101AA000BCD130F0C1D120F031F49F3F11F41EF4CD
:101AB0008CC10EF4E095E7FB82C1E92FCDD180F314
:101AC000BA17620773078407950718F071F49EF53B
:101AD000E5C10EF4E0950B2EBA2FA02D0B01B90134
:101AE00090010C01CA01A0011124FF27591B99F094
:101AF000593F50F4503E68F11A16F040A22F232FA0
:101B0000342F4427585FF3CF469537952795A795EF
:101B1000F0405395C9F77EF41F16BA0B620B730B96
:101B2000840BBAF09150A1F0FF0FBB1F661F771F07
:101B3000881FC2F70EC0BA0F621F731F841F48F4BC
:101B4000879577956795B795F7959E3F08F0B3CF42
:101B50009395880F08F09927EE0F9795879508952C
:101B60000AD108F481E008950CD065C15DD140F040
:101B700054D130F021F45F3F19F021C151118FC1D0
:101B800024C16AD198F39923C9F35523B1F3951B66
:101B9000550BBB27AA2762177307840738F09F5F8E
:101BA0005F4F220F331F441FAA1FA9F333D00E2EFD
:101BB0003AF0E0E830D091505040E695001CCAF76A
:101BC00029D0FE2F27D0660F771F881FBB1F26172F
:101BD00037074807AB07B0E809F0BB0B802DBF0102
:101BE000FF2793585F4F2AF09E3F510568F0E7C0EA
:101BF00056C15F3FECF3983EDCF386957795679589
:101C0000B795F7959F5FC9F7880F911D96958795B2
:101C100097F90895E1E0660F771F881FBB1F6217D1
:101C200073078407BA0720F0621B730B840BBA0B8F
:101C3000EE1F88F7E095089519F40EF0C0C02EC18C
:101C4000C4C012D1C8F39638C0F707F80F92E894D1
:101C50002BE33AEA48EB5FE7AAD10F920F920F927B
:101C60004DB75EB70F9262D1E8E6F0E0B1D04F9188
:101C70005F91EF91FF91E595EE1FFF1F49F0FE5731
:101C8000E0684427EE0F441FFA95E1F74195550BA4
:101C900019D10F9007FE0DC1089504D06894B111B9
:101CA000FEC00895E1D088F09F5790F0B92F992792
:101CB000B751A0F0D1F0660F771F881F991F1AF057
:101CC000BA95C9F712C0B13081F0E8D0B1E00895FB
:101CD000E5C0672F782F8827B85F39F0B93FCCF37C
:101CE000869577956795B395D9F73EF4909580954D
:101CF000709561957F4F8F4F9F4F0895E89409C06D
:101D000097FB3EF490958095709561957F4F8F4F2E
:101D10009F4F9923A9F0F92F96E9BB279395F69544
:101D2000879577956795B795F111F8CFFAF4BB0FC2
:101D300011F460FF1BC06F5F7F4F8F4F9F4F16C026
:101D4000882311F096E911C0772321F09EE8872FB0
:101D5000762F05C0662371F096E8862F70E060E06C
:101D60002AF09A95660F771F881FDAF7880F9695E5
:101D7000879597F90895990F0008550FAA0BE0E889
:101D8000FEEF16161706E807F907C0F0121613063D
:101D9000E407F50798F0621B730B840B950B39F47D
:101DA0000A2661F0232B242B252B21F408950A26E3
:101DB00009F4A140A6958FEF811D811D089597F923
:101DC0009F6780E870E060E008959FEF80EC0895E1
:101DD000DF93CF931F930F93FF92EF92DF927B01DC
:101DE0008C01689405C0DA2EEF01DFD0FE01E89483
:101DF000A5912591359145915591AEF3EF015DDEA9
:101E0000FE019701A801DA9479F7DF90EF90FF9037
:101E10000F911F91CF91DF91089500240A94161617
:101E2000170618060906089500240A9412161306C8
:101E3000140605060895092E0394000C11F4882356
:101E400052F0BB0F40F4BF2B11F460FF04C06F5F72
:101E50007F4F8F4F9F4F089557FD9058440F551F48
:101E600059F05F3F71F04795880F97FB991F61F01C
:101E70009F3F79F087950895121613061406551F93
:101E8000F2CF4695F1DF08C0161617061806991FFF
:101E9000F1CF86957105610508940895E894BB27F4
:101EA00066277727CB0197F9089565DF08F48FEF50
:101EB00008959B01AC0160E070E080E89FE354CEA0
:101EC0007ECFCAC0D1DFE8F39923D9F3940F511D17
:101ED000BBF39150504094F059F0882332F0660FD4
:101EE000771F881F91505040C1F79E3F510544F71E
:101EF000880F911D9695879597F908955F3FACF0EF
:101F0000983E9CF0BB27869577956795B79508F422
:101F1000B1609395C1F7BB0F58F711F460FFE8CF9C
:101F20006F5F7F4F8F4F9F4FE3CFB9CFFA01DC0137
:101F3000AA0FBB1F9B01AC01BF5728F422273327F0
:101F4000442750781FC0B75188F4AB2F0024469522
:101F500037952795011CA395D2F3002069F0220F35
:101F6000331F441FB395DAF30DD095CD6130710561
:101F7000A0E88A07B94630F49B01AC0166277727B1
:101F800088279078309621F02083318342835383D1
:101F900008950BD050CF41DF28F046DF18F095238D
:101FA00009F00DCF12CF11247ACF56DFA0F3959F01
:101FB000D1F3950F50E0551F629FF001729FBB2730
:101FC000F00DB11D639FAA27F00DB11DAA1F649FDC
:101FD0006627B00DA11D661F829F2227B00DA11D8F
:101FE000621F739FB00DA11D621F839FA00D611D15
:101FF000221F749F3327A00D611D231F849F600D36
:10200000211D822F762F6A2F11249F5750408AF06E
:10201000E1F088234AF0EE0FFF1FBB1F661F771FFA
:10202000881F91505040A9F79E3F510570F0C7CED0
:1020300036CF5F3FECF3983EDCF386957795679556
:10204000B795F795E7959F5FC1F7FE2B880F911D18
:102050009695879597F908959F3F31F0915020F418
:10206000879577956795B795880F911D9695879574
:1020700097F90895DB018F939F9355D0BF91AF914E
:10208000A29F800D911DA39F900DB29F900D1124D2
:102090000895991B79E004C0991F961708F0961BC4
:1020A000881F7A95C9F780950895A1E21A2EAA1B78
:1020B000BB1BFD010DC0AA1FBB1FEE1FFF1FA217F8
:1020C000B307E407F50720F0A21BB30BE40BF50BF5
:1020D000661F771F881F991F1A9469F7609570957E
:1020E000809590959B01AC01BD01CF010895052E0F
:1020F00097FB16F400940FD057FD05D0D6DF07FCF0
:1021000002D046F408C050954095309521953F4F38
:102110004F4F5F4F089590958095709561957F4FD3
:102120008F4F9F4F08950FD0A59F900DB49F900D96
:10213000A49F800D911D11240895EE0FFF1F05909F
:10214000F491E02D0994A29FB001B39FC001A39F19
:10215000700D811D1124911DB29F700D811D1124E0
:08216000911D0895F894FFCFD2
:1021680000000C03800001000000D105D105FF46E6
:1021780069786564537465704469736372657465DE
:1021880000290200000000A9072209390753074562
:0A21980007880700000000D80800C7
:00000001FF
