:1000000073C000000C9472080C94990895C000000D
:1000100093C0000091C000008FC000000C94960CAB
:100020008BC000000C945D0D87C000000C94A70DE0
:1000300083C0000081C000007FC000007DC00000C0
:100040000C94C00879C000000C94F40A0C94260BA0
:1000500073C0000071C000006FC000006DC00000E0
:100060006BC0000069C0000007634236B79BD8A789
:100070001A39685618AEBAAB558C1D3CB7CC5763CD
:10008000BD6DEDFD753EF6177231BF000000803F7B
:100090000000000800020100000304070000000047
:1000A0000000000001020408102040800102040842
:1000B00010200102040810200404040404040404B1
:1000C0000202020202020303030303030000000012
:1000D000250028002B0000000000240027002A0033
:1000E00002004B0BB70B4F0D11241FBECFEFD8E012
:1000F000DEBFCDBF11E0A0E0B1E0EAE3F7E202C06D
:1001000005900D92A835B107D9F723E0A8E5B1E035
:1001100001C01D92AA35B207E1F710E0C4E7D0E0B4
:1001200004C02197FE010E948613C137D107C9F789
:100130000E94AF0F0C949B1363CF2F923F924F926C
:100140005F926F927F928F929F92AF92BF92CF9267
:10015000DF92EF92FF920F931F93CF93DF93CDB770
:10016000DEB768970FB6F894DEBF0FBECDBFE09143
:10017000D202F091D302C080D180E280F3808091DE
:100180004003811117C081E08093400383E0809396
:10019000410310922403109225031092260310921B
:1001A0002703C0923403D0923503E0923603F092D5
:1001B0003703BCC080914103823079F0833009F469
:1001C00049C0813009F07FC020913C0330913D034C
:1001D00040913E0350913F03BAC020E030E040EA36
:1001E00050E4609128037091290380912A03909133
:1001F0002B030E94F51187FD24C081E08093410309
:1002000080E090E0A0E4B0E4809324039093250381
:10021000A0932603B093270380E090E0A0E0B0E431
:1002200080932C0390932D03A0932E03B0932F0360
:10023000C0923C03D0923D03E0923E03F0923F0314
:1002400075C0209138033091390340913A035091A1
:100250003B037DC020E030E040EC50E46091280397
:100260007091290380912A0390912B030E94F5112C
:1002700087FD20C084E08093410380E090E0A0E807
:10028000BFE38093240390932503A0932603B093A8
:10029000270310922C0310922D0310922E0310921C
:1002A0002F03C0923003D0923103E0923203F092D8
:1002B00033033CC020913403309135034091360321
:1002C0005091370344C020E030E040EA50E46091B0
:1002D00028037091290380912A0390912B030E9497
:1002E000F51187FD2CC082E08093410380E090E00F
:1002F000A0E0B0E48093240390932503A093260309
:10030000B093270380E090E0A0E8BFE380932C0344
:1003100090932D03A0932E03B0932F03C092380324
:10032000D0923903E0923A03F0923B0310922803F3
:100330001092290310922A0310922B0314C02091CB
:100340003003309131034091320350913303C701A0
:10035000B6010E94EB0F60932803709329038093EA
:100360002A0390932B034090240350902503609020
:1003700026037090270320E030E0A901C301B201F9
:100380000E9450108111A0C18E010F5F1F4F2CE001
:10039000E22E23E0F22E6E0189E1C80ED11CD701B6
:1003A000F80111921192119211921D921D921D92BB
:1003B0001D92EC15FD05A9F7C301B2010E94ED10D5
:1003C0006130710509F44AC06CF4672B09F052C121
:1003D00089E3A82E81E0B82E91E2892E91E0992E32
:1003E000380112C06230710509F4B1C06330710583
:1003F00009F040C1A9E3AA2EA1E0BA2EB1E28B2EEA
:10040000B1E09B2E380114C1D5016D915D01062E1E
:10041000000C770B880B990B0E942011F30161935C
:100420007193819391933F01F40181919191A191F5
:10043000B1914F01F70181939193A193B1937F0102
:10044000FFE3AF16F1E0BF06F9F610921003109229
:10045000110310921203109213030CC180EE9CEE54
:10046000A2E7BCE389839A83AB83BC8382ED9CEAD9
:10047000A7E8B9E380930C0390930D03A0930E03B8
:10048000B0930F0383E895E6ADEEB1EC8D839E83C8
:10049000AF83B88785E596E9A4E0BFEB80931003AE
:1004A00090931103A0931203B09313038AEF94EF78
:1004B000ADEFB1E489879A87AB87BC8789E196ED78
:1004C000ADE0BFE38093140390931503A09316034C
:1004D000B09317038CEB97E1A0E2B0E48D879E8781
:1004E000AF87B88B86E493EDA2E3BDE38093180356
:1004F00090931903A0931A03B0931B0386E392E22F
:10050000A7E3BEE3898B9A8BAB8BBC8B8EEE9FE807
:10051000ACE4BBE380931C0390931D03A0931E03E4
:10052000B0931F0380E090E0A0EAB2EC8D8B9E8B2D
:10053000AF8BB88F82EC98EBA2EBBFEB80932003DC
:1005400090932103A0932203B093230393C080EEE2
:100550009CEEA2E7BCE389839A83AB83BC8382EDE4
:100560009CEAA7E8B9E380930C0390930D03A09352
:100570000E03B0930F0383E895E6ADEEB1EC8D83E7
:100580009E83AF83B88785E596E9A4E0BFEB8093AF
:10059000100390931103A0931203B09313038AEFF7
:1005A00094EFADEFB1E489879A87AB87BC8789E187
:1005B00096EDADE0BFE38093140390931503A093F1
:1005C0001603B09317038CEB97E1A0E2B0E48D879C
:1005D0009E87AF87B88B86E493EDA2E3BDE380935B
:1005E000180390931903A0931A03B0931B0386E397
:1005F00092E2A7E3BEE3898B9A8BAB8BBC8B8EEE2A
:100600009FE8ACE4BBE380931C0390931D03A0938D
:100610001E03B0931F031D8A1E8A1F8A188E109214
:10062000200310922103109222031092230322C070
:10063000D5016D915D01062E000C770B880B990B8F
:100640000E942011F30161937193819391933F0173
:10065000F40181919191A191B1914F01F7018193A1
:100660009193A193B1937F01FFE3AF16F1E0BF0631
:10067000F9F6EBCE8091100390911103A091120333
:10068000B0911303B0588093100390931103A0937B
:100690001203B093130320E030E044EB52E4D8019E
:1006A0006D917D918D919C910E94EC0FF801619369
:1006B0007193819391938F01EC15FD0561F7ACE087
:1006C000B3E0E2E4F3E09CC3FCED2F2EF2E03F2E1A
:1006D000F1011192119211921192148A158A168ABF
:1006E000178A82E0E43FF807A1F7C301B2010E9434
:1006F000ED106130710509F44AC074F4672B09F0FC
:1007000080C179E3C72E71E0D72EE1E2EE2EE1E061
:10071000FE2E0CED12E013C06230710509F4C8C062
:100720006330710509F06DC159E3C52E51E0D52E36
:1007300061E2E62E61E0F62E0CED12E042C1D60138
:100740006D916D01062E000C770B880B990B0E94A2
:100750002011F80161937193819391938F01F701B7
:1007600081919191A191B1917F01F801848B958B39
:10077000A68BB78BF2E0043F1F0709F71092F8022F
:100780001092F9021092FA021092FB023AC180EE26
:100790009CEEA2E7BCE38093DC029093DD02A09381
:1007A000DE02B093DF0282ED9CEAA7E8B9E3809312
:1007B000F4029093F502A093F602B093F70283E857
:1007C00095E6ADEEB1EC8093E0029093E102A09348
:1007D000E202B093E30285E596E9A4E0BFEB8093E3
:1007E000F8029093F902A093FA02B093FB028AEF09
:1007F00094EFADEFB1E48093E4029093E502A0930F
:10080000E602B093E70289E196EDADE0BFE38093A5
:10081000FC029093FD02A093FE02B093FF028CEBCA
:1008200097E1A0E2B0E48093E8029093E902A093FC
:10083000EA02B093EB0286E493EDA2E3BDE380937A
:10084000000390930103A0930203B093030386E394
:1008500092E2A7E3BEE38093EC029093ED02A093B3
:10086000EE02B093EF028EEE9FE8ACE4BBE3809320
:10087000040390930503A0930603B093070380E05D
:1008800090E0A0EAB2EC8093F0029093F102A09382
:10089000F202B093F30282EC98EBA2EBBFEB8093F1
:1008A000080390930903A0930A03B0930B03A9C014
:1008B00080EE9CEEA2E7BCE38093DC029093DD0225
:1008C000A093DE02B093DF0282ED9CEAA7E8B9E3D1
:1008D0008093F4029093F502A093F602B093F7028E
:1008E00083E895E6ADEEB1EC8093E0029093E102EF
:1008F000A093E202B093E30285E596E9A4E0BFEBA2
:100900008093F8029093F902A093FA02B093FB024D
:100910008AEF94EFADEFB1E48093E4029093E502A7
:10092000A093E602B093E70289E196EDADE0BFE364
:100930008093FC029093FD02A093FE02B093FF020D
:100940008CEB97E1A0E2B0E48093E8029093E90297
:10095000A093EA02B093EB0286E493EDA2E3BDE339
:100960008093000390930103A0930203B0930303C9
:1009700086E392E2A7E3BEE38093EC029093ED025C
:10098000A093EE02B093EF028EEE9FE8ACE4BBE3DF
:100990008093040390930503A0930603B093070389
:1009A0001092F0021092F1021092F2021092F302F1
:1009B000109208031092090310920A0310920B037D
:1009C00020C0D6016D916D01062E000C770B880BAF
:1009D000990B0E942011F801619371938193919377
:1009E0008F01F70181919191A191B1917F01F8015E
:1009F000848B958BA68BB78BF2E0043F1F0709F71A
:100A0000BDCE8091F8029091F902A091FA02B091C6
:100A1000FB02B0588093F8029093F902A093FA0277
:100A2000B093FB028E010F5F1F4F4CE0E42E43E0BA
:100A3000F42E6E0189E1C80ED11CD701F801119284
:100A40001192119211921D921D921D921D92EC1500
:100A5000FD05A9F760912C0370912D0380912E0361
:100A600090912F030E94ED106130710509F44AC086
:100A70006CF4672B09F052C129E3422E21E0522E7B
:100A800031E2832E31E0932E380112C062307105BD
:100A900009F4B1C06330710509F040C189E3482E03
:100AA00081E0582E91E2892E91E0992E380114C1EF
:100AB000D2016D912D01062E000C770B880B990B3E
:100AC0000E942011F30161937193819391933F01EF
:100AD000F40181919191A191B1914F01F70181931D
:100AE0009193A193B1937F01FFE34F16F1E05F066D
:100AF000F9F6109210031092110310921203109243
:100B000013030CC180EE9CEEA2E7BCE389839A83B9
:100B1000AB83BC8382ED9CEAA7E8B9E380930C0326
:100B200090930D03A0930E03B0930F0383E895E613
:100B3000ADEEB1EC8D839E83AF83B88785E596E9F2
:100B4000A4E0BFEB8093100390931103A0931203D2
:100B5000B09313038AEF94EFADEFB1E489879A87DE
:100B6000AB87BC8789E196EDADE0BFE380931403CA
:100B700090931503A0931603B09317038CEB97E1A2
:100B8000A0E2B0E48D879E87AF87B88B86E493EDB3
:100B9000A2E3BDE38093180390931903A0931A0373
:100BA000B0931B0386E392E2A7E3BEE3898B9A8BA3
:100BB000AB8BBC8B8EEE9FE8ACE4BBE380931C0355
:100BC00090931D03A0931E03B0931F0380E090E059
:100BD000A0EAB2EC8D8B9E8BAF8BB88F82EC98EB3A
:100BE000A2EBBFEB8093200390932103A0932203F9
:100BF000B093230393C080EE9CEEA2E7BCE389830D
:100C00009A83AB83BC8382ED9CEAA7E8B9E3809327
:100C10000C0390930D03A0930E03B0930F0383E88E
:100C200095E6ADEEB1EC8D839E83AF83B88785E505
:100C300096E9A4E0BFEB8093100390931103A09377
:100C40001203B09313038AEF94EFADEFB1E48987F9
:100C50009A87AB87BC8789E196EDADE0BFE38093CF
:100C6000140390931503A0931603B09317038CEB12
:100C700097E1A0E2B0E48D879E87AF87B88B86E4CA
:100C800093EDA2E3BDE38093180390931903A0931F
:100C90001A03B0931B0386E392E2A7E3BEE3898BBA
:100CA0009A8BAB8BBC8B8EEE9FE8ACE4BBE380935E
:100CB0001C0390931D03A0931E03B0931F031D8A72
:100CC0001E8A1F8A188E1092200310922103109200
:100CD00022031092230322C0D2016D912D01062E12
:100CE000000C770B880B990B0E942011F301619384
:100CF0007193819391933F01F40181919191A1911D
:100D0000B1914F01F70181939193A193B1937F0129
:100D1000FFE34F16F1E05F06F9F6EBCE809110038A
:100D200090911103A0911203B0911303B0588093D6
:100D3000100390931103A0931203B093130320E0C8
:100D400030E040E050EC60912803709129038091DD
:100D50002A0390912B030E9469120E94C1102B015B
:100D60003C01D1018D909D90AD90BD901D01A501DC
:100D70009401F80160817181828193810E94EB0F5F
:100D8000A30192010E946912A50194010E94EC0F37
:100D900020E030E044EB52E40E94EC0FD8016D9368
:100DA0007D938D939D938D01AC15BD05D1F6C30147
:100DB000B2010E94D0124B015C0104EF12E0F80175
:100DC000D801CD90DD90ED90FD908D01A7019601A9
:100DD000608D718D828D938D0E94EB0FA501940122
:100DE0000E946912A70196010E94EC0FF801648B22
:100DF000758B868B978BF3E00C301F0701F75FCC68
:100E00004D915D916D917D9141935193619371935A
:100E100083E0EA35F807A1F7C980DA80EB80FC802F
:100E200020E030E040E853E4C701B6010E945010D2
:100E300087FF0EC020E030E0A901C701B6010E9483
:100E4000F51187FD07C0C701B6010E94F21003C06B
:100E50006FEF01C060E080E018D6CD80DE80EF80CB
:100E6000F88420E030E040E853E4C701B6010E9476
:100E7000501087FF0EC020E030E0A901C701B60185
:100E80000E94F51187FD07C0C701B6010E94F2104C
:100E900003C06FEF01C060E081E0F7D5C984DA8458
:100EA000EB84FC8420E030E040E853E4C701B60165
:100EB0000E94501087FF0EC020E030E0A901C7015A
:100EC000B6010E94F51187FD07C0C701B6010E9457
:100ED000F21003C06FEF01C060E082E0D6D5CD8490
:100EE000DE84EF84F88820E030E040E853E4C70176
:100EF000B6010E94501087FF0EC020E030E0A9012B
:100F0000C701B6010E94F51187FD07C0C701B601F0
:100F10000E94F21003C06FEF01C060E083E0B5D51E
:100F2000C988DA88EB88FC8820E030E040E853E4A8
:100F3000C701B6010E94501087FF0EC020E030E0CC
:100F4000A901C701B6010E94F51187FD07C0C701BD
:100F5000B6010E94F21003C06FEF01C060E084E0B0
:100F600094D5CD88DE88EF88F88C20E030E040E82A
:100F700053E4C701B6010E94501087FF0EC020E065
:100F800030E0A901C701B6010E94F51187FD07C035
:100F9000C701B6010E94F21003C06FEF01C060E00C
:100FA00085E073D50091D2021091D3028091C402E2
:100FB0009091C502A091C602B091C702BC01CD01BB
:100FC0006F5F7F4F8F4F9F4F6093C4027093C50236
:100FD0008093C6029093C7020E941E112091C802FE
:100FE0003091C9024091CA025091CB020E9469120D
:100FF000D8016D937D938D939C9313978091CC0230
:101000009091CD02A091CE02B091CF020196A11D88
:10101000B11D8093CC029093CD02A093CE02B093E9
:10102000CF0268960FB6F894DEBF0FBECDBFDF913A
:10103000CF911F910F91FF90EF90DF90CF90BF90D5
:10104000AF909F908F907F906F905F904F903F9068
:101050002F9008950F931F93CF93DF93E7E4F2E06F
:1010600080ED92E095838483C2EDD2E0D093860236
:10107000C093850208EC12E0138B028BF093B00250
:10108000E093AF02F383E28321E030E0DC012D93B3
:101090003C938FE091E09187808784ED92E0998383
:1010A00088834DEC5CEC6CE47FE3F8014083518372
:1010B0006283738363E080E0DED465E081E0DBD4AB
:1010C00066E082E0D8D469E083E0D5D46AE084E0C9
:1010D000D2D46BE085E0DF91CF911F910F91CBC40B
:1010E000089508951F920F920FB60F9211242F9317
:1010F0003F934F935F936F937F938F939F93AF93A0
:10110000BF93EF93FF93E0910A01F0910B010995D2
:10111000FF91EF91BF91AF919F918F917F916F91CF
:101120005F914F913F912F910F900FBE0F901F90A5
:1011300018951F920F920FB60F9211242F933F9381
:101140004F935F936F937F938F939F93AF93BF93CF
:10115000EF93FF93E0910C01F0910D010995FF9140
:10116000EF91BF91AF919F918F917F916F915F911F
:101170004F913F912F910F900FBE0F901F90189598
:101180001F920F920FB60F9211242F933F938F93BC
:101190009F93AF93BF938091590190915A01A09171
:1011A0005B01B0915C013091580123E0230F2D3792
:1011B00020F40196A11DB11D05C026E8230F02965B
:1011C000A11DB11D209358018093590190935A019C
:1011D000A0935B01B0935C0180915D0190915E01F1
:1011E000A0915F01B09160010196A11DB11D809396
:1011F0005D0190935E01A0935F01B0936001BF9188
:10120000AF919F918F913F912F910F900FBE0F90B3
:101210001F901895789484B5826084BD84B58160F0
:1012200084BD85B5826085BD85B5816085BDEEE6EE
:10123000F0E0808181608083E1E8F0E010828081CD
:1012400082608083808181608083E0E8F0E080813B
:1012500081608083E1EBF0E0808184608083E0EB5B
:10126000F0E0808181608083EAE7F0E08081846043
:10127000808380818260808380818160808380819F
:10128000806880831092C1000895833081F028F433
:10129000813099F08230A1F008958730A9F088302C
:1012A000B9F08430D1F4809180008F7D03C08091AB
:1012B00080008F7780938000089584B58F7702C077
:1012C00084B58F7D84BD08958091B0008F7703C071
:1012D0008091B0008F7D8093B0000895CF93DF930D
:1012E00090E0FC01EC55FF4F2491FC01E854FF4FC6
:1012F0008491882361F190E0880F991FFC01EA52E4
:10130000FF4FC591D491FC01E453FF4FA591B491D7
:10131000611109C09FB7F894888120958223888342
:10132000EC912E230BC0623061F49FB7F8943881A2
:10133000822F809583238883EC912E2B2C939FBF43
:1013400006C08FB7F894E8812E2B28838FBFDF91DA
:10135000CF9108951F93CF93DF93282F30E0F901A9
:10136000E057FF4F8491F901EC55FF4FD491F901FB
:10137000E854FF4FC491CC23C1F0162F811185DFB3
:10138000EC2FF0E0EE0FFF1FE453FF4FA591B49157
:101390008FB7F894111105C09C91ED2FE095E923CA
:1013A00002C0EC91ED2BEC938FBFDF91CF911F9199
:1013B0000895FC01918D228D892F90E0805C9F4FD4
:1013C000821B91098F7399270895FC01918D828D5D
:1013D000981731F0828DE80FF11D858D90E008950A
:1013E0008FEF9FEF0895FC01918D828D981761F02A
:1013F000828DDF01A80FB11D5D968C91928D9F5F4C
:101400009F73928F90E008958FEF9FEF0895FC01F6
:10141000848DDF01A80FB11DA35ABF4F2C91848D7D
:1014200090E001968F739927848FA689B7892C93B2
:10143000A089B1898C9180648C93938D848D98134D
:1014400006C00288F389E02D80818F7D8083089516
:10145000CF93DF93EC01888D8823C1F0EA89FB8963
:10146000808185FD05C0A889B9898C9186FD0EC053
:101470000FB607FCF5CF808185FFF2CFA889B98927
:101480008C9185FFEDCFCE01C2DFE8CFDF91CF9108
:101490000895EF92FF920F931F93CF93DF93EC0188
:1014A00081E0888F9B8D8C8D981305C0E889F98920
:1014B000808185FD23C0F62E0B8D10E00F5F1F4F3E
:1014C0000F731127E02E8C8DE8120BC00FB607FCAE
:1014D000FACFE889F989808185FFF5CFCE0197DFC2
:1014E000F2CF8B8DFE01E80FF11DE35AFF4FF08222
:1014F0000B8FEA89FB898081806207C0EE89FF89B2
:101500006083E889F98980818064808381E090E04C
:10151000DF91CF911F910F91FF90EF900895CF929F
:10152000DF92EF92FF921F93CF93DF93EC016A015A
:101530007B01122FE889F98982E080834115514EA1
:1015400061057105B1F060E079E08DE390E0A701FD
:1015500096010E943E13DA01C9010197A109B10960
:10156000B695A79597958795AC01411580E15807E9
:10157000A8F0E889F989108260E874E88EE190E0CB
:10158000A70196010E943E13BA01A90141505109D9
:10159000610971097695679557954795EC85FD85A5
:1015A0005083EE85FF854083188EEC89FD8910837A
:1015B000EA89FB89808180618083EA89FB89808157
:1015C00088608083EA89FB89808180688083EA89DA
:1015D000FB8980818F7D8083DF91CF911F91FF9068
:1015E000EF90DF90CF9008951F920F920FB60F9259
:1015F00011242F938F939F93EF93FF93E0917101A9
:10160000F09172018081E0917701F091780182FD83
:1016100012C0908180917A018F5F8F7320917B013E
:10162000821751F0E0917A01F0E0EF59FE4F958F6B
:1016300080937A0101C08081FF91EF919F918F91FA
:101640002F910F900FBE0F901F9018951F920F9221
:101650000FB60F9211242F933F934F935F936F9385
:101660007F938F939F93AF93BF93EF93FF9381E605
:1016700091E0CDDEFF91EF91BF91AF919F918F915E
:101680007F916F915F914F913F912F910F900FBE7E
:101690000F901F901895E1E6F1E01382128288EE18
:1016A00093E0A0E0B0E084839583A683B78385E4CC
:1016B00091E09183808385EC90E09587848784EC2A
:1016C00090E09787868780EC90E0918B808B81EC0F
:1016D00090E0938B828B82EC90E0958B848B86ECF0
:1016E00090E0978B868B118E128E138E148E089538
:1016F0008F929F92AF92BF92CF92DF92EF92FF9222
:101700000F931F93CF93DF937C018B016C0182E0D9
:10171000C80ED11C4701E5E08E0E911CC0E0D0E060
:10172000F60161916F014AE050E0C801C5D05C014B
:101730006EE2C80167D08A0D9B1DC80FD91FC8145F
:10174000D90471F74AE050E0F7016581C801B4D0CF
:101750008C0F9D1FDF91CF911F910F91FF90EF9004
:10176000DF90CF90BF90AF909F908F900895EEEF55
:10177000F1E085E591E091838083128213821482E7
:1017800015820895CF92DF92EF92FF920F931F93ED
:10179000CF93DF936C017A018B01C0E0D0E0CE15CE
:1017A000DF0589F0D8016D918D01D601ED91FC9195
:1017B0000190F081E02DC6010995892B11F47E017D
:1017C00002C02196ECCFC701DF91CF911F910F91FD
:1017D000FF90EF90DF90CF9008956115710579F03B
:1017E000FB0101900020E9F73197AF01461B570B31
:1017F000DC01ED91FC910280F381E02D099480E001
:1018000090E00895DC01ED91FC910190F081E02DD4
:1018100009944F925F926F927F92EF92FF920F9393
:101820001F93CF93DF93CDB7DEB7A1970FB6F89490
:10183000DEBF0FBECDBF7C01FA01CB0119A2223061
:1018400008F42AE08E010F5D1F4F422E512C612CAF
:10185000712CBF01A301920111D7F901CA010150F6
:1018600011096A3014F4605D01C0695CD8016C93A1
:10187000232B242B252B69F7B801C701AEDFA196D6
:101880000FB6F894DEBF0FBECDBFDF91CF911F9191
:101890000F91FF90EF907F906F905F904F90089521
:1018A0002115310541F4DC01ED91FC910190F081AD
:1018B000E02D642F0994ADCF9A01462F50E060E0EF
:1018C00070E0EECF813039F018F0823051F0089599
:1018D00010926E00089580916F008D7F80936F004D
:1018E0000895809170008D7F8093700081E08093D7
:1018F000B0008091B100887F84608093B100109225
:10190000B3000895CF93C82F80910E018C1307C0A8
:10191000E0EEF0E0E4918FEF80930E0101C0EFEF75
:101920008E2FD0DF60E08C2FCF9114CD1F920F92BD
:101930000FB60F9211242F933F934F935F936F93A2
:101940007F938F939F93AF93BF93EF93FF93809178
:10195000070290910802A0910902B0910A02892B16
:101960008A2B8B2B51F180910402E0910502F091BA
:101970000602908189278083809107029091080256
:10198000A0910902B0910A02181619061A061B0640
:10199000BCF48091070290910802A0910902B091D5
:1019A0000A020197A109B1098093070290930802E6
:1019B000A0930902B0930A0203C080910E01A2DF36
:1019C000FF91EF91BF91AF919F918F917F916F9117
:1019D0005F914F913F912F910F900FBE0F901F90ED
:1019E00018954F925F926F927F92AF92BF92CF9273
:1019F000DF92EF92FF920F931F93CF93DF93CDB7B8
:101A0000DEB729013A019B01AC01241935094609C9
:101A1000570989899A89AB89BC89BC01CD016A19AA
:101A20007B098C099D090FD6A80197012419350956
:101A30004609570945D6CA01B9016A0D7B1D8C1D9F
:101A40009D1DDF91CF911F910F91FF90EF90DF903F
:101A5000CF90BF90AF907F906F905F904F90089520
:101A600040E855E260E070E080E090E000C026E0F1
:101A700081E691E054CD70E090E09C01220F331F8D
:101A8000820F931F855F9D4FBDC170E090E09C0168
:101A9000220F331F820F931F855F9D4FEDC1CF93A0
:101AA000DF93CBE0D2E0CE0111D1239682E0CD319D
:101AB000D807C9F7DF91CF9108951F920F920FB603
:101AC0000F9211242F933F934F935F936F937F93C4
:101AD0008F939F93AF93BF93EF93FF9386E0809391
:101AE000B20080911D028F5F80931D02823319F432
:101AF00010921D021BD2FF91EF91BF91AF919F9168
:101B00008F917F916F915F914F913F912F910F90A6
:101B10000FBE0F901F90189586E08093B200E0E70B
:101B2000F0E080818E7F8083A0EBB0E08C918C7F91
:101B30008C93A1EBB0E08C91877F8C938C91876024
:101B40008C93808181608083089581E008951F9245
:101B50000F920FB60F9211242F933F934F935F93E1
:101B60006F937F938F939F93AF93BF93EF93FF9365
:101B700080911F0287FF05C010928500109284009B
:101B80001BC020911F02022E000C330B80911E02FD
:101B900090E02817390784F480911F02082E000C6A
:101BA000990BFC01EE0FFF1F8E0F9F1FFC01E05EE3
:101BB000FD4F808186FD15C080911F028F5F80934D
:101BC0001F0220911F02022E000C330B80911E0277
:101BD00090E028173907BCF480911F028C305CF12B
:101BE00012C080911F02082E000C990BFC01EE0F11
:101BF000FF1F8E0F9F1FFC01E05EFD4F808160E0A4
:101C00008F73A8DBD9CF80918400909185000496D2
:101C100080349C4918F480E49CE905C080918400DC
:101C200090918500049690938900809388008FEFAF
:101C300080931F023AC020918400309185008091EA
:101C40001F02082E000C990BFC01EE0FFF1F8E0FD8
:101C50009F1FFC01E05EFD4F81819281820F931FE7
:101C6000909389008093880080911F02082E000CB9
:101C7000990BFC01EE0FFF1F8E0F9F1FFC01E05E12
:101C8000FD4F808186FF11C080911F02082E000C3D
:101C9000990BFC01EE0FFF1F8E0F9F1FFC01E05EF2
:101CA000FD4F808161E08F7355DBFF91EF91BF9114
:101CB000AF919F918F917F916F915F914F913F91E4
:101CC0002F910F900FBE0F901F901895FC019091CF
:101CD0001E029C30A0F481E0890F80931E02908345
:101CE000892F90E0FC01EE0FFF1F8E0F9F1FFC015C
:101CF000E05EFD4F88EB9BE09283818308958FEF38
:101D000080830895DF92EF92FF920F931F93CF93FA
:101D1000DF93EC01D62E7A01890188818C3008F09E
:101D200068C061E08D2DDADA8881E82FF0E09F014C
:101D3000220F331FE20FF31FE05EFD4F9D2D9F73B7
:101D40002081207CD22ED92AD08260E272E0AB01C1
:101D50004E195F0957FF02C04D5F5F4F559547957C
:101D600055954795498340E659E09A01201B310B70
:101D700037FF02C02D5F3F4F359527953595279545
:101D80002A836CE06FD49CE0899FB001112440E06D
:101D900050E09A01260F371FF901EE0FFF1F2E0F9B
:101DA0003F1FF901E05EFD4F908196FD16C04F5F29
:101DB0005F4F4C30510569F781110FC010928000C0
:101DC00082E0809381001092850010928400B19A85
:101DD00080916F00826080936F00E881F0E0CF0116
:101DE000880F991FE80FF91FE05EFD4F8081806426
:101DF00080838881DF91CF911F910F91FF90EF90A9
:101E0000DF90089520E639E040E252E07BCFFC010C
:101E100090819C3080F5818128E830E0281B3109D1
:101E200087FD3395220F331F220F331F621773076D
:101E30007CF0828128E532E0281B310987FD33954B
:101E4000220F331F220F331F621773070CF49B01FD
:101E500022503109220F331F4FB7F894892F90E099
:101E6000FC01EE0FFF1F8E0F9F1FFC01E05EFD4F78
:101E7000328321834FBF0895AF92BF92CF92DF92FA
:101E8000EF92FF920F931F93CF93DF93EC01603299
:101E900082E078070CF03EC077FD06C0653B710517
:101EA0002CF064EB70E002C060E070E0898128E80B
:101EB00030E05901A81AB10887FDB394AA0CBB1CE5
:101EC000AA0CBB1C0B2C000CCC08DD08072E000C48
:101ED000880B990B2A8108E512E0021B110927FDE6
:101EE0001395000F111F000F111F012E000C220B64
:101EF000330B3F932F931F930F9314EBE12EF12C91
:101F000000E010E020E030E0A9016BDD0F900F90C1
:101F10000F900F90CE01DF91CF911F910F91FF9005
:101F2000EF90DF90CF90BF90AF9071CF809144023F
:101F300091E0980F90934402882339F021E030E03B
:101F4000309346022093450207C078940E949D007A
:101F5000F8948091440281508093440208950F9335
:101F60001F93CF93DF931F92CDB7DEB781E08983B4
:101F700051D976DD00913F0110914001F8011182A5
:101F8000108268D8C9DD81E0F80120813181232BDE
:101F900009F080E08983789478948981882389F096
:101FA00081E0F80120813181232B09F080E08983D1
:101FB0008981882311F0C9DD02C080E090E0898327
:101FC000ECCF8ED8F89480E090E00F90DF91CF9125
:101FD0001F910F9108955058BB27AA270ED0CBC14F
:101FE000BCD130F0C1D120F031F49F3F11F41EF488
:101FF0008CC10EF4E095E7FB82C1E92FCDD180F3CF
:10200000BA17620773078407950718F071F49EF5F5
:10201000E5C10EF4E0950B2EBA2FA02D0B01B901EE
:1020200090010C01CA01A0011124FF27591B99F04E
:10203000593F50F4503E68F11A16F040A22F232F5A
:10204000342F4427585FF3CF469537952795A795AA
:10205000F0405395C9F77EF41F16BA0B620B730B51
:10206000840BBAF09150A1F0FF0FBB1F661F771FC2
:10207000881FC2F70EC0BA0F621F731F841F48F477
:10208000879577956795B795F7959E3F08F0B3CFFD
:102090009395880F08F09927EE0F979587950895E7
:1020A0000AD108F481E008950CD065C15DD140F0FB
:1020B00054D130F021F45F3F19F021C151118FC18B
:1020C00024C16AD198F39923C9F35523B1F3951B21
:1020D000550BBB27AA2762177307840738F09F5F49
:1020E0005F4F220F331F441FAA1FA9F333D00E2EB8
:1020F0003AF0E0E830D091505040E695001CCAF725
:1021000029D0FE2F27D0660F771F881FBB1F2617E9
:1021100037074807AB07B0E809F0BB0B802DBF01BC
:10212000FF2793585F4F2AF09E3F510568F0E7C0A4
:1021300056C15F3FECF3983EDCF386957795679543
:10214000B795F7959F5FC9F7880F911D969587956D
:1021500097F90895E1E0660F771F881FBB1F62178C
:1021600073078407BA0720F0621B730B840BBA0B4A
:10217000EE1F88F7E095089519F40EF0C0C02EC147
:10218000C4C012D1C8F39638C0F707F80F92E8948C
:102190002BE33AEA48EB5FE7AAD10F920F920F9236
:1021A0004DB75EB70F9262D1E8E6F0E0B1D04F9143
:1021B0005F91EF91FF91E595EE1FFF1F49F0FE57EC
:1021C000E0684427EE0F441FFA95E1F74195550B5F
:1021D00019D10F9007FE0DC1089504D06894B11174
:1021E000FEC00895E1D088F09F5790F0B92F99274D
:1021F000B751A0F0D1F0660F771F881F991F1AF012
:10220000BA95C9F712C0B13081F0E8D0B1E00895B5
:10221000E5C0672F782F8827B85F39F0B93FCCF336
:10222000869577956795B395D9F73EF49095809507
:10223000709561957F4F8F4F9F4F0895E89409C027
:1022400097FB3EF490958095709561957F4F8F4FE9
:102250009F4F9923A9F0F92F96E9BB279395F695FF
:10226000879577956795B795F111F8CFFAF4BB0F7D
:1022700011F460FF1BC06F5F7F4F8F4F9F4F16C0E1
:10228000882311F096E911C0772321F09EE8872F6B
:10229000762F05C0662371F096E8862F70E060E027
:1022A0002AF09A95660F771F881FDAF7880F9695A0
:1022B000879597F90895990F0008550FAA0BE0E844
:1022C000FEEF16161706E807F907C0F012161306F8
:1022D000E407F50798F0621B730B840B950B39F438
:1022E0000A2661F0232B242B252B21F408950A269E
:1022F00009F4A140A6958FEF811D811D089597F9DE
:102300009F6780E870E060E008959FEF80EC08959B
:10231000DF93CF931F930F93FF92EF92DF927B0196
:102320008C01689405C0DA2EEF01DFD0FE01E8943D
:10233000A5912591359145915591AEF3EF015DDE63
:10234000FE019701A801DA9479F7DF90EF90FF90F2
:102350000F911F91CF91DF91089500240A941616D2
:10236000170618060906089500240A941216130683
:10237000140605060895092E0394000C11F4882311
:1023800052F0BB0F40F4BF2B11F460FF04C06F5F2D
:102390007F4F8F4F9F4F089557FD9058440F551F03
:1023A00059F05F3F71F04795880F97FB991F61F0D7
:1023B0009F3F79F087950895121613061406551F4E
:1023C000F2CF4695F1DF08C0161617061806991FBA
:1023D000F1CF86957105610508940895E894BB27AF
:1023E00066277727CB0197F9089565DF08F48FEF0B
:1023F00008959B01AC0160E070E080E89FE354CE5B
:102400007ECF0CC1D1DFE8F39923D9F3940F511D8E
:10241000BBF39150504094F059F0882332F0660F8E
:10242000771F881F91505040C1F79E3F510544F7D8
:10243000880F911D9695879597F908955F3FACF0A9
:10244000983E9CF0BB27869577956795B79508F4DD
:10245000B1609395C1F7BB0F58F711F460FFE8CF57
:102460006F5F7F4F8F4F9F4FE3CFB9CFFA01DC01F2
:10247000AA0FBB1F9B01AC01BF5728F422273327AB
:10248000442750781FC0B75188F4AB2F00244695DD
:1024900037952795011CA395D2F3002069F0220FF0
:1024A000331F441FB395DAF30DD095CD613071051C
:1024B000A0E88A07B94630F49B01AC01662777276C
:1024C00088279078309621F020833183428353838C
:1024D00008950BD050CF41DF28F046DF18F0952348
:1024E00009F00DCF12CF11247ACF56DFA0F3959FBC
:1024F000D1F3950F50E0551F629FF001729FBB27EB
:10250000F00DB11D639FAA27F00DB11DAA1F649F96
:102510006627B00DA11D661F829F2227B00DA11D49
:10252000621F739FB00DA11D621F839FA00D611DCF
:10253000221F749F3327A00D611D231F849F600DF0
:10254000211D822F762F6A2F11249F5750408AF029
:10255000E1F088234AF0EE0FFF1FBB1F661F771FB5
:10256000881F91505040A9F79E3F510570F0C7CE8B
:1025700036CF5F3FECF3983EDCF386957795679511
:10258000B795F795E7959F5FC1F7FE2B880F911DD3
:102590009695879597F9089511F40EF4B6CE3EC03E
:1025A00003DFD0F39923D9F3CEF39F57550B87FF61
:1025B00043D00024A0E640EA9001805856959795B4
:1025C00028F4805C660F771F881F20F026173707D6
:1025D000480730F4621B730B840B202931294A2BE6
:1025E000A69517940794202531254A2758F7660F9A
:1025F000771F881F20F026173707480730F4620B33
:10260000730B840B200D311D411DA09581F7B9017D
:10261000842F9158880F9695879508959F3F31F0A4
:10262000915020F4879577956795B795880F911D00
:102630009695879597F9089591505040660F771FAA
:10264000881FD2F70895DB018F939F9355D0BF91D8
:10265000AF91A29F800D911DA39F900DB29F900DF1
:1026600011240895991B79E004C0991F961708F06A
:10267000961B881F7A95C9F780950895A1E21A2EB6
:10268000AA1BBB1BFD010DC0AA1FBB1FEE1FFF1F16
:10269000A217B307E407F50720F0A21BB30BE40B66
:1026A000F50B661F771F881F991F1A9469F76095AD
:1026B0007095809590959B01AC01BD01CF01089567
:1026C000052E97FB16F400940FD057FD05D0D6DFEA
:1026D00007FC02D046F408C05095409530952195EE
:1026E0003F4F4F4F5F4F089590958095709561953E
:1026F0007F4F8F4F9F4F08950FD0A59F900DB49F90
:10270000900DA49F800D911D11240895EE0FFF1FC1
:102710000590F491E02D0994A29FB001B39FC001F0
:10272000A39F700D811D1124911DB29F700D811DFD
:0A2730001124911D0895F894FFCFC5
:10273A0000005A0380000100000071087108FF467A
:10274A006978656453746570446973637265746506
:10275A0000000000007CD9A03E000000000000003C
:10276A000000000000000000000012000000004706
:10277A000200000000490AC20BD909F309E5092839
:08278A000A00000000780B00BA
:00000001FF
