:1000000059C0000049C100006EC1000078C0000066
:1000100076C0000074C0000072C0000023C500005C
:100020006EC000006CC000006AC0000068C0000024
:1000300066C0000095C5000062C0000060C00000FE
:1000400079C100005CC000006BC300009BC30000CE
:1000500056C0000054C0000052C0000050C0000054
:100060004EC000004CC0000000000008000201006B
:100070000003040700000000000000000102040863
:100080001020408001020408102001020408102002
:10009000040404040404040402020202020203032E
:1000A0000303030300000000250028002B000200CA
:1000B000E703530411241FBECFEFD8E0DEBFCDBF4E
:1000C00011E0A0E0B1E0EAE9FDE002C005900D9288
:1000D000AC32B107D9F722E0ACE2B1E001C01D9229
:1000E000A231B207E1F710E0CAE5D0E003C02197E2
:1000F000FE014BD6C835D107D1F794D54CC680CF79
:1001000030E02830310511F424E030E0249FC001B4
:10011000259F900D349F900D1124AC0185E391E053
:10012000CDC3CF93DF9300D000D0CDB7DEB76091C1
:100130000E0170E09E012F5F3F4FAE014D5F5F4F9C
:1001400080910A0190910B01F3D420E030E080E02F
:1001500090E08830910529F1F901EE51FE4F44817C
:1001600055816681778101962C5F3F4F4130510563
:100170006105710571F320E030E080E090E041E03E
:1001800050E060E070E02C5F3F4F8830910549F00F
:10019000F901EE51FE4F40835183628373830196D0
:1001A000F2CF9A83898360910A0270910B02809149
:1001B0000C0290910D0272D5262F6091060270916B
:1001C000070280910802909109022C8367D5862F3F
:1001D0002C8141E050E0BE016D5F7F4F91DF0F90B9
:1001E0000F900F900F90DF91CF9108951092110210
:1001F00010921002E2EEF1E08EE2DF011D928A958C
:10020000E9F781E090E0A0E0B0E080839183A283F1
:10021000B38384839583A683B78380879187A287DE
:10022000B38784879587A687B787808B918BA28BAE
:10023000B38B848B958BA68BB78B808F918FA28F7E
:10024000B38F848F958FA68FB78F80A391A3A2A31E
:10025000B3A380E090E0A0E8BFE380A791A7A2A7A6
:10026000B3A708958091E2019091E301A091E40188
:10027000B091E5010197A105B10561F482E090E03C
:10028000A0E0B0E08093E2019093E301A093E40149
:10029000B093E501089508951F920F920FB60F9243
:1002A00011242F933F934F935F936F937F938F937B
:1002B0009F93AF93BF93EF93FF93E0910F01F09162
:1002C00010010995FF91EF91BF91AF919F918F918F
:1002D0007F916F915F914F913F912F910F900FBE42
:1002E0000F901F9018951F920F920FB60F92112426
:1002F0002F933F934F935F936F937F938F939F932E
:10030000AF93BF93EF93FF93E0911101F09112012E
:100310000995FF91EF91BF91AF919F918F917F913F
:100320006F915F914F913F912F910F900FBE0F9062
:100330001F9018951F920F920FB60F9211242F93B2
:100340003F938F939F93AF93BF9380912D01909193
:100350002E01A0912F01B091300130912C0123E0AA
:10036000230F2D3720F40196A11DB11D05C026E8ED
:10037000230F0296A11DB11D20932C0180932D0106
:1003800090932E01A0932F01B09330018091310101
:1003900090913201A0913301B09134010196A11DD9
:1003A000B11D8093310190933201A0933301B0933A
:1003B0003401BF91AF919F918F913F912F910F90F9
:1003C0000FBE0F901F901895789484B5826084BDFD
:1003D00084B5816084BD85B5826085BD85B5816049
:1003E00085BDEEE6F0E0808181608083E1E8F0E0A9
:1003F0001082808182608083808181608083E0E8D8
:10040000F0E0808181608083E1EBF0E080818460B6
:100410008083E0EBF0E0808181608083EAE7F0E0B8
:10042000808184608083808182608083808181601C
:1004300080838081806880831092C100089583301A
:1004400081F028F4813099F08230A1F0089587304E
:10045000A9F08830B9F08430D1F4809180008F7D8C
:1004600003C0809180008F7780938000089584B5C9
:100470008F7702C084B58F7D84BD08958091B000D0
:100480008F7703C08091B0008F7D8093B000089576
:100490001F93CF93DF93282F30E0F901E859FF4FE6
:1004A0008491F901E458FF4FD491F901E057FF4FCF
:1004B000C491CC23C1F0162F8111C1DFEC2FF0E0E5
:1004C000EE0FFF1FEC55FF4FA591B4918FB7F89435
:1004D000111105C09C91ED2FE095E92302C0EC912C
:1004E000ED2BEC938FBFDF91CF911F910895FC010D
:1004F000918D228D892F90E0805C9F4F821B910906
:100500008F7399270895FC01918D828D981731F092
:10051000828DE80FF11D858D90E008958FEF9FEF9C
:100520000895FC01918D828D981761F0828DDF0115
:10053000A80FB11D5D968C91928D9F5F9F73928FD6
:1005400090E008958FEF9FEF0895FC01848DDF0107
:10055000A80FB11DA35ABF4F2C91848D90E0019636
:100560008F739927848FA689B7892C93A089B18925
:100570008C9180648C93938D848D981306C002882F
:10058000F389E02D80818F7D80830895CF93DF9361
:10059000EC01888D8823C1F0EA89FB89808185FD83
:1005A00005C0A889B9898C9186FD0EC00FB607FCDD
:1005B000F5CF808185FFF2CFA889B9898C9185FF1D
:1005C000EDCFCE01C2DFE8CFDF91CF910895EF925A
:1005D000FF920F931F93CF93DF93EC0181E0888FFD
:1005E0009B8D8C8D981305C0E889F989808185FDE4
:1005F00023C0F62E0B8D10E00F5F1F4F0F731127D6
:10060000E02E8C8DE8120BC00FB607FCFACFE889FC
:10061000F989808185FFF5CFCE0197DFF2CF8B8DF1
:10062000FE01E80FF11DE35AFF4FF0820B8FEA89BC
:10063000FB898081806207C0EE89FF896083E88939
:10064000F98980818064808381E090E0DF91CF919F
:100650001F910F91FF90EF900895CF92DF92EF924C
:10066000FF921F93CF93DF93EC016A017B01122F5E
:10067000E889F98982E080834115514E6105710551
:10068000A9F060E079E08DE390E0A70196015BD3EB
:10069000DA01C9010197A109B109B695A795979506
:1006A0008795AC01411580E15807A0F0E889F989E8
:1006B000108260E874E88EE190E0A701960143D3D0
:1006C000BA01A901415051096109710976956795EF
:1006D00057954795EC85FD855083EE85FF854083D2
:1006E000188EEC89FD891083EA89FB8980818061FD
:1006F0008083EA89FB89808188608083EA89FB891D
:10070000808180688083EA89FB8980818F7D8083F6
:10071000DF91CF911F91FF90EF90DF90CF900895E0
:100720001F920F920FB60F9211242F938F939F93C6
:10073000EF93FF93E0914501F09146018081E091B4
:100740004B01F0914C0182FD12C0908180914E01CD
:100750008F5F8F7320914F01821751F0E0914E010E
:10076000F0E0EB5CFE4F958F80934E0101C08081DD
:10077000FF91EF919F918F912F910F900FBE0F904E
:100780001F9018951F920F920FB60F9211242F935E
:100790003F934F935F936F937F938F939F93AF9309
:1007A000BF93EF93FF9385E391E0CFDEFF91EF914D
:1007B000BF91AF919F918F917F916F915F914F9179
:1007C0003F912F910F900FBE0F901F901895E5E36A
:1007D000F1E01382128288EE93E0A0E0B0E084831F
:1007E0009583A683B7838AE191E09183808385EC2A
:1007F00090E09587848784EC90E09787868780ECEB
:1008000090E0918B808B81EC90E0938B828B82ECDB
:1008100090E0958B848B86EC90E0978B868B118E85
:10082000128E138E148E08958F929F92AF92BF9264
:10083000CF92DF92EF92FF920F931F93CF93DF93AC
:100840007C018B016C0182E0C80ED11C4701E5E000
:100850008E0E911CC0E0D0E0F60161916F014AE07C
:1008600050E0C801C5D05C016EE2C80167D08A0DB6
:100870009B1DC80FD91FC814D90471F74AE050E076
:10088000F7016581C801B4D08C0F9D1FDF91CF9116
:100890001F910F91FF90EF90DF90CF90BF90AF909E
:1008A0009F908F900895E2EDF1E08AE291E09183CC
:1008B000808312821382148215820895CF92DF9270
:1008C000EF92FF920F931F93CF93DF936C017A0106
:1008D0008B01C0E0D0E0CE15DF0589F0D8016D9125
:1008E0008D01D601ED91FC910190F081E02DC601C2
:1008F0000995892B11F47E0102C02196ECCFC70126
:10090000DF91CF911F910F91FF90EF90DF90CF90EB
:1009100008956115710579F0FB0101900020E9F758
:100920003197AF01461B570BDC01ED91FC91028022
:10093000F381E02D099480E090E00895DC01ED91D1
:10094000FC910190F081E02D09944F925F926F929B
:100950007F92EF92FF920F931F93CF93DF93CDB7C8
:10096000DEB7A1970FB6F894DEBF0FBECDBF7C01F6
:10097000FA01CB0119A2223008F42AE08E010F5DA2
:100980001F4F422E512C612C712CBF01A3019201EB
:10099000DAD1F901CA01015011096A3014F4605D1D
:1009A00001C0695CD8016C93232B242B252B69F79C
:1009B000B801C701AEDFA1960FB6F894DEBF0FBE37
:1009C000CDBFDF91CF911F910F91FF90EF907F905E
:1009D0006F905F904F9008952115310541F4DC012F
:1009E000ED91FC910190F081E02D642F0994ADCF41
:1009F0009A01462F50E060E070E0EECF813039F090
:100A000018F0823051F0089510926E000895809190
:100A10006F008D7F80936F000895809170008D7FAF
:100A20008093700081E08093B0008091B100887F56
:100A300084608093B1001092B3000895CF93C82FC3
:100A4000809113018C1307C0EEEAF0E0E4918FEF80
:100A50008093130101C0EFEF8E2FD0DF60E08C2F69
:100A6000CF9116CD1F920F920FB60F9211242F9394
:100A70003F934F935F936F937F938F939F93AF9326
:100A8000BF93EF93FF938091DB019091DC01A091E4
:100A9000DD01B091DE01892B8A2B8B2B51F18091E6
:100AA000D801E091D901F091DA0190818927808302
:100AB0008091DB019091DC01A091DD01B091DE011C
:100AC000181619061A061B06BCF48091DB019091DA
:100AD000DC01A091DD01B091DE010197A109B1090E
:100AE0008093DB019093DC01A093DD01B093DE01E4
:100AF00003C080911301A2DFFF91EF91BF91AF91ED
:100B00009F918F917F916F915F914F913F912F9125
:100B10000F900FBE0F901F90189540E855E260E0CF
:100B200070E080E090E000C026E085E391E095CDA4
:100B30000F931F93CF93DF938A01E90185E391E03F
:100B4000F0DCF801808341E050E0019611F440E0D0
:100B500050E059834883DF91CF911F910F91089501
:100B60001F920F920FB60F9211242F933F934F9322
:100B70005F936F937F938F939F93AF93BF93EF9305
:100B8000FF9387EF92EC909385008093840032D09E
:100B9000FF91EF91BF91AF919F918F917F916F9155
:100BA0005F914F913F912F910F900FBE0F901F902B
:100BB000189587EF92EC9093850080938400AFE6C0
:100BC000B0E08C918E7F8C93E0E8F0E080818C7FA8
:100BD0008083E1E8F0E08081877E8083808185608A
:100BE000808380818D7F80838C9181608C93089538
:100BF00081E008958091DF0191E0980F9093DF01EB
:100C0000882339F021E030E03093E1012093E001C6
:100C100006C0789486DAF8948091DF018150809341
:100C2000DF0108950F931F93CF93DF931F92CDB7EA
:100C3000DEB781E08983C8DB70DF00911401109179
:100C40001501F80111821082D1DAB3DF81E0F801D9
:100C500020813181232B09F080E089837894789476
:100C60008981882389F081E0F80120813181232B5B
:100C700009F080E089838981882311F0B9DF02C0FF
:100C800080E090E08983ECCFEDDAF89480E090E0AA
:100C90000F90DF91CF911F910F91089533D088F07D
:100CA0009F5790F0B92F9927B751A0F0D1F0660F58
:100CB000771F881F991F1AF0BA95C9F712C0B13073
:100CC00081F03AD0B1E0089537C0672F782F882798
:100CD000B85F39F0B93FCCF3869577956795B395B2
:100CE000D9F73EF490958095709561957F4F8F4F21
:100CF0009F4F089557FD9058440F551F59F05F3F7F
:100D000071F04795880F97FB991F61F09F3F79F02D
:100D100087950895121613061406551FF2CF4695AF
:100D2000F1DF08C0161617061806991FF1CF869531
:100D30007105610508940895E894BB276627772715
:100D4000CB0197F90895A1E21A2EAA1BBB1BFD0146
:100D50000DC0AA1FBB1FEE1FFF1FA217B307E4079A
:100D6000F50720F0A21BB30BE40BF50B661F771FF2
:100D7000881F991F1A9469F76095709580959095D2
:100D80009B01AC01BD01CF010895EE0FFF1F05903F
:0A0D9000F491E02D0994F894FFCFD0
:100D9A000000120280000100000000000000014B68
:100DAA00014B01FF100200000000E7025E04770217
:0C0DBA0091028302C60200000000140435
:00000001FF
