:100000005FC000008AC10000AFC1000081C00000D5
:100010007FC000007DC000007BC00000A0C50000C4
:1000200077C0000063C6000073C00000A9C60000CE
:100030006FC000006DC000006BC0000069C0000010
:10004000BAC1000065C00000E8C3000018C4000089
:100050005FC000005DC000005BC0000059C0000030
:1000600057C0000055C00000000000080002010059
:100070000003040700000000000000000102040863
:100080001020408001020408102001020408102002
:10009000040404040404040402020202020203032E
:1000A0000303030300000000250028002B000000CC
:1000B0000000240027002A0002006404D00468061F
:1000C00011241FBECFEFD8E0DEBFCDBF11E0A0E00E
:1000D000B1E0EEEFF3E102C005900D92AA34B10752
:1000E000D9F722E0AAE4B1E001C01D92AB33B20718
:1000F000E1F710E0C0E6D0E004C02197FE010E94C5
:10010000E809CD35D107C9F70E94C8080C94FD094C
:1001100077CFCF92DF92EF92FF92C0902201D090E2
:100120002301E0902401F090250120E030E040E838
:1001300053E4C701B6010E94040987FF0EC020E006
:1001400030E0A901C701B6010E94810987FD07C0FF
:10015000C701B6010E94080903C06FEF01C060E04B
:1001600080912601ABD5C0902201D0902301E09070
:100170002401F090250120E030E040E853E4C7017D
:10018000B6010E94040987FF0EC020E030E0A901FB
:10019000C701B6010E94810987FD07C0C701B601EA
:1001A0000E94080903C06FEF01C060E08091270141
:1001B00085D5C0902201D0902301E0902401F090D9
:1001C000250120E030E040E853E4C701B6010E9479
:1001D000040987FF0EC020E030E0A901C701B60185
:1001E0000E94810987FD07C0C701B6010E94080966
:1001F00003C06FEF01C060E0809128015FD5C0901F
:100200002201D0902301E0902401F090250120E00C
:1002100030E040E853E4C701B601F6D787FF0DC0D0
:1002200020E030E0A901C701B6010E94810987FDE5
:1002300006C0C701B601ECD703C06FEF01C060E094
:10024000809129013BD5C0902201D0902301E090FC
:100250002401F090250120E030E040E853E4C7019C
:10026000B601D2D787FF0DC020E030E0A901C70159
:10027000B6010E94810987FD06C0C701B601C8D733
:1002800003C06FEF01C060E080912A0117D5C090D4
:100290002201D0902301E0902401F090250120E07C
:1002A00030E040E853E4C701B601AED787FF0DC088
:1002B00020E030E0A901C701B6010E94810987FD55
:1002C00006C0C701B601A4D703C06FEF01C060E04C
:1002D00080912B01FF90EF90DF90CF90EFC4CF93F0
:1002E000DF9310923A0210923902CAE0D1E068819D
:1002F0008C8DDAD46C818D8DD7D468858E8DD4D4D5
:100300006C858F8DD1D4688988A1CED46C8989A160
:10031000DF91CF91C9C4089508951F920F920FB62F
:100320000F9211242F933F934F935F936F937F937B
:100330008F939F93AF93BF93EF93FF93E0912C0123
:10034000F0912D010995FF91EF91BF91AF919F9190
:100350008F917F916F915F914F913F912F910F906E
:100360000FBE0F901F9018951F920F920FB60F920D
:1003700011242F933F934F935F936F937F938F93AA
:100380009F93AF93BF93EF93FF93E0912E01F09172
:100390002F010995FF91EF91BF91AF919F918F919F
:1003A0007F916F915F914F913F912F910F900FBE71
:1003B0000F901F9018951F920F920FB60F92112455
:1003C0002F933F938F939F93AF93BF9380914B0154
:1003D00090914C01A0914D01B0914E0130914A0194
:1003E00023E0230F2D3720F40196A11DB11D05C078
:1003F00026E8230F0296A11DB11D20934A01809388
:100400004B0190934C01A0934D01B0934E0180910C
:100410004F0190915001A0915101B091520101966C
:10042000A11DB11D80934F0190935001A0935101E4
:10043000B0935201BF91AF919F918F913F912F91B6
:100440000F900FBE0F901F901895789484B582601E
:1004500084BD84B5816084BD85B5826085BD85B568
:10046000816085BDEEE6F0E0808181608083E1E817
:10047000F0E010828081826080838081816080834F
:10048000E0E8F0E0808181608083E1EBF0E0808152
:1004900084608083E0EBF0E0808181608083EAE724
:1004A000F0E08081846080838081826080838081AD
:1004B000816080838081806880831092C10008956C
:1004C000833081F028F4813099F08230A1F00895D2
:1004D0008730A9F08830B9F08430D1F48091800061
:1004E0008F7D03C0809180008F7780938000089576
:1004F00084B58F7702C084B58F7D84BD08958091C7
:10050000B0008F7703C08091B0008F7D8093B000E2
:100510000895CF93DF9390E0FC01E458FF4F2491BE
:10052000FC01E057FF4F8491882361F190E0880F30
:10053000991FFC01E255FF4FC591D491FC01EC5588
:10054000FF4FA591B491611109C09FB7F8948881BC
:10055000209582238883EC912E230BC0623061F4B6
:100560009FB7F8943881822F809583238883EC91FC
:100570002E2B2C939FBF06C08FB7F894E8812E2BAB
:1005800028838FBFDF91CF9108951F93CF93DF937F
:10059000282F30E0F901E859FF4F8491F901E45820
:1005A000FF4FD491F901E057FF4FC491CC23C1F024
:1005B000162F811185DFEC2FF0E0EE0FFF1FEC55B9
:1005C000FF4FA591B4918FB7F894111105C09C917C
:1005D000ED2FE095E92302C0EC91ED2BEC938FBF5A
:1005E000DF91CF911F910895FC01918D228D892F6C
:1005F00090E0805C9F4F821B91098F73992708952B
:10060000FC01918D828D981731F0828DE80FF11DDC
:10061000858D90E008958FEF9FEF0895FC01918DF7
:10062000828D981761F0828DDF01A80FB11D5D9654
:100630008C91928D9F5F9F73928F90E008958FEFC2
:100640009FEF0895FC01848DDF01A80FB11DA35A0F
:10065000BF4F2C91848D90E001968F739927848FE2
:10066000A689B7892C93A089B1898C9180648C93D9
:10067000938D848D981306C00288F389E02D8081C4
:100680008F7D80830895CF93DF93EC01888D88233D
:10069000C1F0EA89FB89808185FD05C0A889B989F7
:1006A0008C9186FD0EC00FB607FCF5CF808185FFCB
:1006B000F2CFA889B9898C9185FFEDCFCE01C2DF39
:1006C000E8CFDF91CF910895EF92FF920F931F93A0
:1006D000CF93DF93EC0181E0888F9B8D8C8D9813F5
:1006E00005C0E889F989808185FD23C0F62E0B8D30
:1006F00010E00F5F1F4F0F731127E02E8C8DE81253
:100700000BC00FB607FCFACFE889F989808185FF15
:10071000F5CFCE0197DFF2CF8B8DFE01E80FF11DF3
:10072000E35AFF4FF0820B8FEA89FB898081806258
:1007300007C0EE89FF896083E889F9898081806438
:10074000808381E090E0DF91CF911F910F91FF9026
:10075000EF900895CF92DF92EF92FF921F93CF9385
:10076000DF93EC016A017B01122FE889F98982E0AD
:1007700080834115514E61057105A9F060E079E073
:100780008DE390E0A7019601DBD5DA01C90101975D
:10079000A109B109B695A79597958795AC01411523
:1007A00080E15807A0F0E889F989108260E874E8D0
:1007B0008EE190E0A7019601C3D5BA01A90141508D
:1007C0005109610971097695679557954795EC85AB
:1007D000FD855083EE85FF854083188EEC89FD8969
:1007E0001083EA89FB89808180618083EA89FB89A3
:1007F000808188608083EA89FB898081806880832A
:10080000EA89FB8980818F7D8083DF91CF911F9161
:10081000FF90EF90DF90CF9008951F920F920FB648
:100820000F9211242F938F939F93EF93FF93E09157
:100830006301F09164018081E0916901F0916A01A6
:1008400082FD12C0908180916C018F5F8F73209127
:100850006D01821751F0E0916C01F0E0ED5AFE4F0E
:10086000958F80936C0101C08081FF91EF919F91E2
:100870008F912F910F900FBE0F901F9018951F9280
:100880000F920FB60F9211242F933F934F935F93C4
:100890006F937F938F939F93AF93BF93EF93FF9348
:1008A00083E591E0CFDEFF91EF91BF91AF919F91F2
:1008B0008F917F916F915F914F913F912F910F9009
:1008C0000FBE0F901F901895E3E5F1E0138212829E
:1008D00088EE93E0A0E0B0E084839583A683B7839D
:1008E00087E391E09183808385EC90E0958784870E
:1008F00084EC90E09787868780EC90E0918B808BEA
:1009000081EC90E0938B828B82EC90E0958B848BD2
:1009100086EC90E0978B868B118E128E138E148E40
:1009200008958F929F92AF92BF92CF92DF92EF92F3
:10093000FF920F931F93CF93DF937C018B016C0188
:1009400082E0C80ED11C4701E5E08E0E911CC0E08C
:10095000D0E0F60161916F014AE050E0C801C5D0D6
:100960005C016EE2C80167D08A0D9B1DC80FD91FBC
:10097000C814D90471F74AE050E0F7016581C80155
:10098000B4D08C0F9D1FDF91CF911F910F91FF90DD
:10099000EF90DF90CF90BF90AF909F908F90089591
:1009A000E0EFF1E087E491E091838083128213828B
:1009B000148215820895CF92DF92EF92FF920F93E7
:1009C0001F93CF93DF936C017A018B01C0E0D0E0DD
:1009D000CE15DF0589F0D8016D918D01D601ED911D
:1009E000FC910190F081E02DC6010995892B11F44D
:1009F0007E0102C02196ECCFC701DF91CF911F91FC
:100A00000F91FF90EF90DF90CF90089561157105E1
:100A100079F0FB0101900020E9F73197AF01461B07
:100A2000570BDC01ED91FC910280F381E02D0994DC
:100A300080E090E00895DC01ED91FC910190F0815F
:100A4000E02D09944F925F926F927F92EF92FF9206
:100A50000F931F93CF93DF93CDB7DEB7A1970FB658
:100A6000F894DEBF0FBECDBF7C01FA01CB0119A205
:100A7000223008F42AE08E010F5D1F4F422E512CC8
:100A8000612C712CBF01A30192015AD4F901CA0152
:100A9000015011096A3014F4605D01C0695CD8012D
:100AA0006C93232B242B252B69F7B801C701AEDFEC
:100AB000A1960FB6F894DEBF0FBECDBFDF91CF91E8
:100AC0001F910F91FF90EF907F906F905F904F90EC
:100AD00008952115310541F4DC01ED91FC9101905F
:100AE000F081E02D642F0994ADCF9A01462F50E09C
:100AF00060E070E0EECF813039F018F0823051F0D4
:100B0000089510926E00089580916F008D7F8093FC
:100B10006F000895809170008D7F8093700081E058
:100B20008093B0008091B100887F84608093B10091
:100B30001092B3000895CF93C82F809130018C1389
:100B400007C0E8EBF0E0E4918FEF8093300101C043
:100B5000EFEF8E2FD0DF60E08C2FCF9116CD1F925C
:100B60000F920FB60F9211242F933F934F935F93E1
:100B70006F937F938F939F93AF93BF93EF93FF9365
:100B80008091F9019091FA01A091FB01B091FC01D3
:100B9000892B8A2B8B2B51F18091F601E091F70183
:100BA000F091F8019081892780838091F9019091DB
:100BB000FA01A091FB01B091FC01181619061A0662
:100BC0001B06BCF48091F9019091FA01A091FB0100
:100BD000B091FC010197A109B1098093F9019093AB
:100BE000FA01A093FB01B093FC0103C08091300196
:100BF000A2DFFF91EF91BF91AF919F918F917F9174
:100C00006F915F914F913F912F910F900FBE0F9079
:100C10001F9018954F925F926F927F92AF92BF9202
:100C2000CF92DF92EF92FF920F931F93CF93DF93B8
:100C3000CDB7DEB729013A019B01AC012419350972
:100C40004609570989899A89AB89BC89BC01CD01BC
:100C50006A197B098C099D0958D3A80197012419A9
:100C60003509460957098ED3CA01B9016A0D7B1DA2
:100C70008C1D9D1DDF91CF911F910F91FF90EF90E3
:100C8000DF90CF90BF90AF907F906F905F904F902C
:100C9000089540E855E260E070E080E090E000C038
:100CA00026E083E591E056CD70E090E09C01220FB4
:100CB000331F820F931F83509E4FBDC170E090E0A1
:100CC0009C01220F331F820F931F83509E4FEDC153
:100CD000CF93DF93CDEFD1E0CE0111D1239682E007
:100CE000CF30D807C9F7DF91CF9108951F920F92A7
:100CF0000FB60F9211242F933F934F935F936F93EF
:100D00007F938F939F93AF93BF93EF93FF9383E86A
:100D10008093B20080910F028F5F80930F02893120
:100D200019F410920F021BD2FF91EF91BF91AF9176
:100D30009F918F917F916F915F914F913F912F91F3
:100D40000F900FBE0F901F90189583E88093B2000C
:100D5000E0E7F0E080818E7F8083A0EBB0E08C91B3
:100D60008C7F8C93A1EBB0E08C91877F8C938C91DE
:100D700087608C93808181608083089581E00895ED
:100D80001F920F920FB60F9211242F933F934F9300
:100D90005F936F937F938F939F93AF93BF93EF93E3
:100DA000FF938091110287FF05C010928500109279
:100DB00084001BC020911102022E000C330B809185
:100DC000100290E02817390784F480911102082E50
:100DD000000C990BFC01EE0FFF1F8E0F9F1FFC01F3
:100DE000EE5EFD4F808186FD15C0809111028F5F00
:100DF0008093110220911102022E000C330B80917E
:100E0000100290E028173907BCF4809111028C3051
:100E10005CF112C080911102082E000C990BFC01AC
:100E2000EE0FFF1F8E0F9F1FFC01EE5EFD4F8081B6
:100E300060E08F73AADBD9CF809184009091850008
:100E4000049680349C4918F480E49CE905C08091A4
:100E50008400909185000496909389008093880087
:100E60008FEF809311023AC0209184003091850069
:100E700080911102082E000C990BFC01EE0FFF1F50
:100E80008E0F9F1FFC01EE5EFD4F81819281820FCC
:100E9000931F909389008093880080911102082EFF
:100EA000000C990BFC01EE0FFF1F8E0F9F1FFC0122
:100EB000EE5EFD4F808186FF11C080911102082EE9
:100EC000000C990BFC01EE0FFF1F8E0F9F1FFC0102
:100ED000EE5EFD4F808161E08F7357DBFF91EF91F4
:100EE000BF91AF919F918F917F916F915F914F9142
:100EF0003F912F910F900FBE0F901F901895FC01FE
:100F0000909110029C30A0F481E0890F8093100230
:100F10009083892F90E0FC01EE0FFF1F8E0F9F1F23
:100F2000FC01EE5EFD4F88EB9BE092838183089588
:100F30008FEF80830895DF92EF92FF920F931F93BC
:100F4000CF93DF93EC01D62E7A01890188818C3012
:100F500008F068C061E08D2DDCDA8881E82FF0E0D0
:100F60009F01220F331FE20FF31FEE5EFD4F9D2DF9
:100F70009F732081207CD22ED92AD08260E272E039
:100F8000AB014E195F0957FF02C04D5F5F4F55958A
:100F9000479555954795498340E659E09A01201BAE
:100FA000310B37FF02C02D5F3F4F359527953595A3
:100FB00027952A836CE0B8D19CE0899FB001112469
:100FC00040E050E09A01260F371FF901EE0FFF1F96
:100FD0002E0F3F1FF901EE5EFD4F908196FD16C06A
:100FE0004F5F5F4F4C30510569F781110FC0109270
:100FF000800082E08093810010928500109284002E
:10100000B19A80916F00826080936F00E881F0E078
:10101000CF01880F991FE80FF91FEE5EFD4F808109
:10102000806480838881DF91CF911F910F91FF9021
:10103000EF90DF90089520E639E040E252E07BCF68
:10104000FC0190819C3080F5818128E830E0281BEC
:10105000310987FD3395220F331F220F331F62178B
:1010600073077CF0828128E532E0281B310987FD77
:101070003395220F331F220F331F621773070CF4AF
:101080009B0122503109220F331F4FB7F894892F4B
:1010900090E0FC01EE0FFF1F8E0F9F1FFC01EE5E24
:1010A000FD4F328321834FBF0895AF92BF92CF92FD
:1010B000DF92EF92FF920F931F93CF93DF93EC0198
:1010C000603282E078070CF03EC077FD06C0653BD9
:1010D00071052CF064EB70E002C060E070E0898183
:1010E00028E830E05901A81AB10887FDB394AA0C8A
:1010F000BB1CAA0CBB1C0B2C000CCC08DD08072E5B
:10110000000C880B990B2A8108E512E0021B1109DB
:1011100027FD1395000F111F000F111F012E000C4A
:10112000220B330B3F932F931F930F9314EBE12E5E
:10113000F12C00E010E020E030E0A9016BDD0F9021
:101140000F900F900F90CE01DF91CF911F910F91D3
:10115000FF90EF90DF90CF90BF90AF9071CF8091D4
:10116000360291E0980F90933602882339F021E0FF
:1011700030E0309338022093370207C078940E9401
:101180008900F89480913602815080933602089548
:101190000F931F93CF93DF931F92CDB7DEB781E0FC
:1011A000898353D976DD0091310110913201F80124
:1011B0001182108294D8C9DD81E0F801208131814B
:1011C000232B09F080E0898378947894898188239F
:1011D00089F081E0F80120813181232B09F080E042
:1011E00089838981882311F0C9DD02C080E090E005
:1011F0008983ECCF90D8F89480E090E00F90DF9155
:10120000CF911F910F9108952FD008F481E0089598
:1012100057D088F09F5790F0B92F9927B751A0F079
:10122000D1F0660F771F881F991F1AF0BA95C9F77A
:1012300012C0B13081F05ED0B1E008955BC0672F7D
:10124000782F8827B85F39F0B93FCCF3869577952A
:101250006795B395D9F73EF4909580957095619513
:101260007F4F8F4F9F4F0895990F0008550FAA0B7E
:10127000E0E8FEEF16161706E807F907C0F01216A9
:101280001306E407F50798F0621B730B840B950BAC
:1012900039F40A2661F0232B242B252B21F4089501
:1012A0000A2609F4A140A6958FEF811D811D08959E
:1012B00057FD9058440F551F59F05F3F71F0479507
:1012C000880F97FB991F61F09F3F79F087950895EC
:1012D000121613061406551FF2CF4695F1DF08C00B
:1012E000161617061806991FF1CF86957105610528
:1012F00008940895E894BB2766277727CB0197F9D0
:101300000895B2DF08F48FEF0895DB018F939F9368
:1013100055D0BF91AF91A29F800D911DA39F900DBD
:10132000B29F900D11240895991B79E004C0991F74
:10133000961708F0961B881F7A95C9F7809508952F
:10134000A1E21A2EAA1BBB1BFD010DC0AA1FBB1FC9
:10135000EE1FFF1FA217B307E407F50720F0A21B3B
:10136000B30BE40BF50B661F771F881F991F1A94A8
:1013700069F760957095809590959B01AC01BD01D2
:10138000CF010895052E97FB16F400940FD057FD5A
:1013900005D0D6DF07FC02D046F408C05095409532
:1013A000309521953F4F4F4F5F4F08959095809511
:1013B000709561957F4F8F4F9F4F08950FD0A59FD8
:1013C000900DB49F900DA49F800D911D1124089540
:1013D000EE0FFF1F0590F491E02D0994A29FB0013C
:1013E000B39FC001A39F700D811D1124911DB29F59
:0E13F000700D811D1124911D0895F894FFCFFA
:1013FE0000003B0280000100000003000000050019
:10140E00000006000000090000000A0000000B00AA
:10141E0000000000B4420001020304058C018C019F
:10142E00FF3902000000006403DB04F4020E030027
:0A143E0003430300000000910400C6
:00000001FF
