:100000005FC000004DC2000072C2000081C000004D
:100010007FC000007DC000007BC0000063C6000000
:1000200077C0000026C7000073C000006CC7000046
:100030006FC000006DC000006BC0000069C0000010
:100040007DC2000065C00000ABC40000DBC400003E
:100050005FC000005DC000005BC0000059C0000030
:1000600057C0000055C00000000000080002010059
:100070000003040700000000000000000102040863
:100080001020408001020408102001020408102002
:10009000040404040404040402020202020203032E
:1000A0000303030300000000250028002B000000CC
:1000B0000000240027002A000200270593052B07D3
:1000C00011241FBECFEFD8E0DEBFCDBF11E0A0E00E
:1000D000B1E0EEEDF7E102C005900D92A835B10751
:1000E000D9F722E0A8E5B1E001C01D92AA3EB2070F
:1000F000E1F710E0C0E6D0E004C02197FE010E94C5
:10010000D80BCD35D107C9F70E948B090C94ED0BA4
:1001100077CF4F925F926F927F928F929F92AF9222
:10012000BF92CF92DF92EF92FF92CF93DF93CDB742
:10013000DEB728970FB6F894DEBF0FBECDBFE091B3
:10014000D602F091D702C080D180E280F380809106
:10015000E802811117C081E08093E80282E0809379
:10016000E90210924702109248021092490210923E
:100170004A02C092E402D092E502E092E602F092D6
:10018000E70256C08091E902813009F451C0823003
:1001900061F52091E4023091E5024091E602509130
:1001A000E702C701B6010E94C70920E030E040EA3B
:1001B00050E40E940E0B87FD3BC083E08093E90270
:1001C00080E090E0A0E8BFE380934702909348026C
:1001D000A0934902B0934A02C092E002D092E10299
:1001E000E092E202F092E30223C02091E00230911B
:1001F000E1024091E2025091E302C701B6010E9480
:10020000C70920E030E040EA50E40E940E0B87FD71
:100210000FC081E08093E90280E090E0A0E0B0E4CC
:100220008093470290934802A0934902B0934A02F8
:1002300020E030E040E85FE36091470270914802BF
:100240008091490290914A020E942C0A811128C093
:1002500080E090E0A4E3B2E489839A83AB83BC831B
:1002600093E9C92E94E2D92E93EBE92E92E4F92E6C
:1002700023E4822E20EC922EAA24A394B82C36E4F8
:10028000432E38E5532E30EF632E32E4732E2BE9E4
:100290003AE341EF52E46BEA7DEA83EB92E418C063
:1002A00080E090E0A8EDB2E489839A83AB83BC83BD
:1002B000C12CD12C84EBE82E82E4F82E46015701A4
:1002C0002601370120E030E046EC52E4C701B601D8
:1002D0002D833E834F8358870E94300A80912201EC
:1002E000B0D52D813E814F815885CA01B9010E9448
:1002F000300A80912301A5D5C301B2010E94300AC2
:10030000809124019ED5C501B4010E94300A8091DC
:10031000250197D5C701B6010E94300A80912601B8
:1003200090D569817A818B819C810E94300A80916D
:10033000270187D5E090D602F090D7028091C802BD
:100340009091C902A091CA02B091CB02BC01CD012B
:100350006F5F7F4F8F4F9F4F6093C8027093C902AA
:100360008093CA029093CB020E945C0A2091CC0237
:100370003091CD024091CE025091CF020E94120BDB
:10038000D7016D937D938D939C9313978091D002A9
:100390009091D102A091D202B091D3020196A11DF9
:1003A000B11D8093D0029093D102A093D202B0935A
:1003B000D30228960FB6F894DEBF0FBECDBFDF91F3
:1003C000CF91FF90EF90DF90CF90BF90AF909F9034
:1003D0008F907F906F905F904F9008950F931F9331
:1003E000CF93DF93EBE4F2E085E9DF011D928A957C
:1003F000E9F784ED92E095838483C6EDD2E0D09353
:100400008A02C09389020CEC12E0138B028BF093EA
:10041000B402E093B302F383E28321E030E0DC0135
:100420002D933C938DE291E09187808788ED92E057
:10043000998388834DEC5CEC6CEC7EE3F80140839F
:100440005183628373831092470210924802109284
:10045000490210924A0200EE12E08AE0D8011D9291
:100460008A95E9F7CAE0D1E06881888DE0D46C8193
:10047000898DDDD468858A8DDAD46C858B8DD7D44F
:1004800068898C8DD4D46C898D8DD1D4F801108677
:100490001186DF91CF911F910F91089508950895CE
:1004A0001F920F920FB60F9211242F933F934F93E9
:1004B0005F936F937F938F939F93AF93BF93EF93CC
:1004C000FF93E0912801F09129010995FF91EF91A7
:1004D000BF91AF919F918F917F916F915F914F915C
:1004E0003F912F910F900FBE0F901F9018951F9264
:1004F0000F920FB60F9211242F933F934F935F9358
:100500006F937F938F939F93AF93BF93EF93FF93DB
:10051000E0912A01F0912B010995FF91EF91BF9194
:10052000AF919F918F917F916F915F914F913F918B
:100530002F910F900FBE0F901F9018951F920F9242
:100540000FB60F9211242F933F938F939F93AF93E6
:10055000BF938091590190915A01A0915B01B09194
:100560005C013091580123E0230F2D3720F40196D0
:10057000A11DB11D05C026E8230F0296A11DB11DC6
:10058000209358018093590190935A01A0935B01E5
:10059000B0935C0180915D0190915E01A0915F013B
:1005A000B09160010196A11DB11D80935D019093F2
:1005B0005E01A0935F01B0936001BF91AF919F91E5
:1005C0008F913F912F910F900FBE0F901F90189514
:1005D000789484B5826084BD84B5816084BD85B51E
:1005E000826085BD85B5816085BDEEE6F0E08081E5
:1005F00081608083E1E8F0E0108280818260808306
:10060000808181608083E0E8F0E080818160808388
:10061000E1EBF0E0808184608083E0EBF0E08081BA
:1006200081608083EAE7F0E080818460808380815C
:100630008260808380818160808380818068808304
:100640001092C1000895833081F028F4813099F030
:100650008230A1F008958730A9F08830B9F0843055
:10066000D1F4809180008F7D03C0809180008F77CE
:1006700080938000089584B58F7702C084B58F7D04
:1006800084BD08958091B0008F7703C08091B00041
:100690008F7D8093B0000895CF93DF9390E0FC01AD
:1006A000E458FF4F2491FC01E057FF4F84918823C9
:1006B00061F190E0880F991FFC01E255FF4FC59151
:1006C000D491FC01EC55FF4FA591B491611109C083
:1006D0009FB7F8948881209582238883EC912E23FC
:1006E0000BC0623061F49FB7F8943881822F8095F7
:1006F00083238883EC912E2B2C939FBF06C08FB74A
:10070000F894E8812E2B28838FBFDF91CF91089535
:100710001F93CF93DF93282F30E0F901E859FF4F63
:100720008491F901E458FF4FD491F901E057FF4F4C
:10073000C491CC23C1F0162F811185DFEC2FF0E09E
:10074000EE0FFF1FEC55FF4FA591B4918FB7F894B2
:10075000111105C09C91ED2FE095E92302C0EC91A9
:10076000ED2BEC938FBFDF91CF911F910895FC018A
:10077000918D228D892F90E0805C9F4F821B910983
:100780008F7399270895FC01918D828D981731F010
:10079000828DE80FF11D858D90E008958FEF9FEF1A
:1007A0000895FC01918D828D981761F0828DDF0193
:1007B000A80FB11D5D968C91928D9F5F9F73928F54
:1007C00090E008958FEF9FEF0895FC01848DDF0185
:1007D000A80FB11DA35ABF4F2C91848D90E00196B4
:1007E0008F739927848FA689B7892C93A089B189A3
:1007F0008C9180648C93938D848D981306C00288AD
:10080000F389E02D80818F7D80830895CF93DF93DE
:10081000EC01888D8823C1F0EA89FB89808185FD00
:1008200005C0A889B9898C9186FD0EC00FB607FC5A
:10083000F5CF808185FFF2CFA889B9898C9185FF9A
:10084000EDCFCE01C2DFE8CFDF91CF910895EF92D7
:10085000FF920F931F93CF93DF93EC0181E0888F7A
:100860009B8D8C8D981305C0E889F989808185FD61
:1008700023C0F62E0B8D10E00F5F1F4F0F73112753
:10088000E02E8C8DE8120BC00FB607FCFACFE8897A
:10089000F989808185FFF5CFCE0197DFF2CF8B8D6F
:1008A000FE01E80FF11DE35AFF4FF0820B8FEA893A
:1008B000FB898081806207C0EE89FF896083E889B7
:1008C000F98980818064808381E090E0DF91CF911D
:1008D0001F910F91FF90EF900895CF92DF92EF92CA
:1008E000FF921F93CF93DF93EC016A017B01122FDC
:1008F000E889F98982E080834115514E61057105CF
:10090000A9F060E079E08DE390E0A701960108D7B7
:10091000DA01C9010197A109B109B695A795979583
:100920008795AC01411580E15807A0F0E889F98965
:10093000108260E874E88EE190E0A7019601F0D69D
:10094000BA01A9014150510961097109769567956C
:1009500057954795EC85FD855083EE85FF8540834F
:10096000188EEC89FD891083EA89FB89808180617A
:100970008083EA89FB89808188608083EA89FB899A
:10098000808180688083EA89FB8980818F7D808374
:10099000DF91CF911F91FF90EF90DF90CF9008955E
:1009A0001F920F920FB60F9211242F938F939F9344
:1009B000EF93FF93E0917101F09172018081E091DA
:1009C0007701F091780182FD12C0908180917A01C7
:1009D0008F5F8F7320917B01821751F0E0917A0134
:1009E000F0E0EF59FE4F958F80937A0101C080812E
:1009F000FF91EF919F918F912F910F900FBE0F90CC
:100A00001F9018951F920F920FB60F9211242F93DB
:100A10003F934F935F936F937F938F939F93AF9386
:100A2000BF93EF93FF9381E691E0CFDEFF91EF91CB
:100A3000BF91AF919F918F917F916F915F914F91F6
:100A40003F912F910F900FBE0F901F901895E1E6E8
:100A5000F1E01382128288EE93E0A0E0B0E084839C
:100A60009583A683B78385E491E09183808385ECA9
:100A700090E09587848784EC90E09787868780EC68
:100A800090E0918B808B81EC90E0938B828B82EC59
:100A900090E0958B848B86EC90E0978B868B118E03
:100AA000128E138E148E08958F929F92AF92BF92E2
:100AB000CF92DF92EF92FF920F931F93CF93DF932A
:100AC0007C018B016C0182E0C80ED11C4701E5E07E
:100AD0008E0E911CC0E0D0E0F60161916F014AE0FA
:100AE00050E0C801C5D05C016EE2C80167D08A0D34
:100AF0009B1DC80FD91FC814D90471F74AE050E0F4
:100B0000F7016581C801B4D08C0F9D1FDF91CF9193
:100B10001F910F91FF90EF90DF90CF90BF90AF901B
:100B20009F908F900895EEEFF1E085E591E091833D
:100B3000808312821382148215820895CF92DF92ED
:100B4000EF92FF920F931F93CF93DF936C017A0183
:100B50008B01C0E0D0E0CE15DF0589F0D8016D91A2
:100B60008D01D601ED91FC910190F081E02DC6013F
:100B70000995892B11F47E0102C02196ECCFC701A3
:100B8000DF91CF911F910F91FF90EF90DF90CF9069
:100B900008956115710579F0FB0101900020E9F7D6
:100BA0003197AF01461B570BDC01ED91FC910280A0
:100BB000F381E02D099480E090E00895DC01ED914F
:100BC000FC910190F081E02D09944F925F926F9219
:100BD0007F92EF92FF920F931F93CF93DF93CDB746
:100BE000DEB7A1970FB6F894DEBF0FBECDBF7C0174
:100BF000FA01CB0119A2223008F42AE08E010F5D20
:100C00001F4F422E512C612C712CBF01A301920168
:100C100087D5F901CA01015011096A3014F4605DE9
:100C200001C0695CD8016C93232B242B252B69F719
:100C3000B801C701AEDFA1960FB6F894DEBF0FBEB4
:100C4000CDBFDF91CF911F910F91FF90EF907F90DB
:100C50006F905F904F9008952115310541F4DC01AC
:100C6000ED91FC910190F081E02D642F0994ADCFBE
:100C70009A01462F50E060E070E0EECF813039F00D
:100C800018F0823051F0089510926E00089580910E
:100C90006F008D7F80936F000895809170008D7F2D
:100CA0008093700081E08093B0008091B100887FD4
:100CB00084608093B1001092B3000895CF93C82F41
:100CC00080912C018C1307C0E8EBF0E0E4918FEFEA
:100CD00080932C0101C0EFEF8E2FD0DF60E08C2FCE
:100CE000CF9116CD1F920F920FB60F9211242F9312
:100CF0003F934F935F936F937F938F939F93AF93A4
:100D0000BF93EF93FF938091070290910802A09107
:100D10000902B0910A02892B8A2B8B2B51F1809109
:100D20000402E0910502F0910602908189278083F8
:100D30008091070290910802A0910902B0910A02E5
:100D4000181619061A061B06BCF48091070290912A
:100D50000802A0910902B0910A020197A109B10904
:100D60008093070290930802A0930902B0930A02AD
:100D700003C080912C01A2DFFF91EF91BF91AF9151
:100D80009F918F917F916F915F914F913F912F91A3
:100D90000F900FBE0F901F9018954F925F926F9219
:100DA0007F92AF92BF92CF92DF92EF92FF920F931A
:100DB0001F93CF93DF93CDB7DEB729013A019B0193
:100DC000AC01241935094609570989899A89AB89E3
:100DD000BC89BC01CD016A197B098C099D0985D4A8
:100DE000A80197012419350946095709BBD4CA013E
:100DF000B9016A0D7B1D8C1D9D1DDF91CF911F9147
:100E00000F91FF90EF90DF90CF90BF90AF907F90C9
:100E10006F905F904F90089540E855E260E070E079
:100E200080E090E000C026E081E691E056CD70E0E1
:100E300090E09C01220F331F820F931F855F9D4F0F
:100E4000BDC170E090E09C01220F331F820F931F01
:100E5000855F9D4FEDC1CF93DF93CBE0D2E0CE0114
:100E600011D1239682E0CD31D807C9F7DF91CF9118
:100E700008951F920F920FB60F9211242F933F9354
:100E80004F935F936F937F938F939F93AF93BF9392
:100E9000EF93FF9386E08093B20080911D028F5FF5
:100EA00080931D02893119F410921D021BD2FF910B
:100EB000EF91BF91AF919F918F917F916F915F91D2
:100EC0004F913F912F910F900FBE0F901F9018954B
:100ED00086E08093B200E0E7F0E080818E7F80833F
:100EE000A0EBB0E08C918C7F8C93A1EBB0E08C9167
:100EF000877F8C938C9187608C93808181608083C5
:100F0000089581E008951F920F920FB60F92112459
:100F10002F933F934F935F936F937F938F939F9301
:100F2000AF93BF93EF93FF9380911F0287FF05C09C
:100F300010928500109284001BC020911F02022E87
:100F4000000C330B80911E0290E02817390784F4BF
:100F500080911F02082E000C990BFC01EE0FFF1F61
:100F60008E0F9F1FFC01E05EFD4F808186FD15C046
:100F700080911F028F5F80931F0220911F02022E1B
:100F8000000C330B80911E0290E028173907BCF447
:100F900080911F028C305CF112C080911F02082EDC
:100FA000000C990BFC01EE0FFF1F8E0F9F1FFC0121
:100FB000E05EFD4F808160E08F73AADBD9CF809126
:100FC000840090918500049680349C4918F480E454
:100FD0009CE905C0809184009091850004969093CF
:100FE0008900809388008FEF80931F023AC0209180
:100FF00084003091850080911F02082E000C990B0F
:10100000FC01EE0FFF1F8E0F9F1FFC01E05EFD4FE6
:1010100081819281820F931F909389008093880031
:1010200080911F02082E000C990BFC01EE0FFF1F90
:101030008E0F9F1FFC01E05EFD4F808186FF11C077
:1010400080911F02082E000C990BFC01EE0FFF1F70
:101050008E0F9F1FFC01E05EFD4F808161E08F736A
:1010600057DBFF91EF91BF91AF919F918F917F914E
:101070006F915F914F913F912F910F900FBE0F9005
:101080001F901895FC0190911E029C30A0F481E005
:10109000890F80931E029083892F90E0FC01EE0F50
:1010A000FF1F8E0F9F1FFC01E05EFD4F88EB9BE052
:1010B0009283818308958FEF80830895DF92EF926A
:1010C000FF920F931F93CF93DF93EC01D62E7A01FB
:1010D000890188818C3008F068C061E08D2DDCDAF0
:1010E0008881E82FF0E09F01220F331FE20FF31FEA
:1010F000E05EFD4F9D2D9F732081207CD22ED92A4A
:10110000D08260E272E0AB014E195F0957FF02C066
:101110004D5F5F4F5595479555954795498340E6F7
:1011200059E09A01201B310B37FF02C02D5F3F4F62
:1011300035952795359527952A836CE0E5D29CE077
:10114000899FB001112440E050E09A01260F371F1B
:10115000F901EE0FFF1F2E0F3F1FF901E05EFD4F5B
:10116000908196FD16C04F5F5F4F4C30510569F777
:1011700081110FC01092800082E080938100109254
:10118000850010928400B19A80916F0082608093F4
:101190006F00E881F0E0CF01880F991FE80FF91F79
:1011A000E05EFD4F8081806480838881DF91CF91F4
:1011B0001F910F91FF90EF90DF90089520E639E0A6
:1011C00040E252E07BCFFC0190819C3080F5818130
:1011D00028E830E0281B310987FD3395220F331FA3
:1011E000220F331F621773077CF0828128E532E0FB
:1011F000281B310987FD3395220F331F220F331F20
:10120000621773070CF49B0122503109220F331F20
:101210004FB7F894892F90E0FC01EE0FFF1F8E0F5F
:101220009F1FFC01E05EFD4F328321834FBF089575
:10123000AF92BF92CF92DF92EF92FF920F931F93E4
:10124000CF93DF93EC01603282E078070CF03EC070
:1012500077FD06C0653B71052CF064EB70E002C0C1
:1012600060E070E0898128E830E05901A81AB108EF
:1012700087FDB394AA0CBB1CAA0CBB1C0B2C000C46
:10128000CC08DD08072E000C880B990B2A8108E595
:1012900012E0021B110927FD1395000F111F000F0B
:1012A000111F012E000C220B330B3F932F931F9322
:1012B0000F9314EBE12EF12C00E010E020E030E081
:1012C000A9016BDD0F900F900F900F90CE01DF9171
:1012D000CF911F910F91FF90EF90DF90CF90BF9033
:1012E000AF9071CF8091440291E0980F90934402A7
:1012F000882339F021E030E0309346022093450204
:1013000007C078940E948900F8948091440281502B
:101310008093440208950F931F93CF93DF931F92FE
:10132000CDB7DEB781E0898353D976DD00913F01E7
:1013300010914001F8011182108250D8C9DD81E07E
:10134000F80120813181232B09F080E08983789492
:1013500078948981882389F081E0F80120813181A6
:10136000232B09F080E089838981882311F0C9DD6E
:1013700002C080E090E08983ECCF90D8F89480E0C0
:1013800090E00F90DF91CF911F910F9108955058E9
:10139000BB27AA270ED008C1F9D030F0FED020F02C
:1013A00031F49F3F11F41EF4EEC00EF4E095E7FB1C
:1013B000E4C0E92F0AD180F3BA17620773078407E4
:1013C000950718F071F49EF522C10EF4E0950B2EEE
:1013D000BA2FA02D0B01B90190010C01CA01A00187
:1013E0001124FF27591B99F0593F50F4503E68F1E2
:1013F0001A16F040A22F232F342F4427585FF3CF23
:10140000469537952795A795F0405395C9F77EF4F3
:101410001F16BA0B620B730B840BBAF09150A1F03C
:10142000FF0FBB1F661F771F881FC2F70EC0BA0FC2
:10143000621F731F841F48F4879577956795B7954A
:10144000F7959E3F08F0B3CF9395880F08F0992742
:10145000EE0F9795879508956CD008F481E0089574
:10146000BCD088F09F5790F0B92F9927B751A0F0C2
:10147000D1F0660F771F881F991F1AF0BA95C9F728
:1014800012C0B13081F0C3D0B1E00895C0C0672F61
:10149000782F8827B85F39F0B93FCCF386957795D8
:1014A0006795B395D9F73EF49095809570956195C1
:1014B0007F4F8F4F9F4F0895E89409C097FB3EF4EC
:1014C00090958095709561957F4F8F4F9F4F992391
:1014D000A9F0F92F96E9BB279395F695879577950F
:1014E0006795B795F111F8CFFAF4BB0F11F460FFCF
:1014F0001BC06F5F7F4F8F4F9F4F16C0882311F027
:1015000096E911C0772321F09EE8872F762F05C03A
:10151000662371F096E8862F70E060E02AF09A95D5
:10152000660F771F881FDAF7880F9695879597F9CA
:101530000895990F0008550FAA0BE0E8FEEF161664
:101540001706E807F907C0F012161306E407F507B7
:1015500098F0621B730B840B950B39F40A2661F02B
:10156000232B242B252B21F408950A2609F4A140CE
:10157000A6958FEF811D811D089597F99F6780E8DB
:1015800070E060E008959FEF80EC089500240A94D5
:101590001616170618060906089500240A9412164E
:1015A0001306140605060895092E0394000C11F481
:1015B000882352F0BB0F40F4BF2B11F460FF04C02E
:1015C0006F5F7F4F8F4F9F4F089557FD9058440F87
:1015D000551F59F05F3F71F04795880F97FB991F92
:1015E00061F09F3F79F0879508951216130614064F
:1015F000551FF2CF4695F1DF08C0161617061806DC
:10160000991FF1CF86957105610508940895E894B6
:10161000BB2766277727CB0197F908958ADF08F45F
:101620008FEF08950BD0C0CFB1DF28F0B6DF18F0F0
:10163000952309F0A2CFA7CF1124EACFC6DFA0F3EC
:10164000959FD1F3950F50E0551F629FF001729F57
:10165000BB27F00DB11D639FAA27F00DB11DAA1F76
:10166000649F6627B00DA11D661F829F2227B00DC3
:10167000A11D621F739FB00DA11D621F839FA00D4E
:10168000611D221F749F3327A00D611D231F849F9E
:10169000600D211D822F762F6A2F11249F575040F5
:1016A0008AF0E1F088234AF0EE0FFF1FBB1F661F90
:1016B000771F881F91505040A9F79E3F510570F049
:1016C0005CCFA6CF5F3FECF3983EDCF38695779531
:1016D0006795B795F795E7959F5FC1F7FE2B880F44
:1016E000911D9695879597F90895DB018F939F93A8
:1016F00055D0BF91AF91A29F800D911DA39F900DDA
:10170000B29F900D11240895991B79E004C0991F90
:10171000961708F0961B881F7A95C9F7809508954B
:10172000A1E21A2EAA1BBB1BFD010DC0AA1FBB1FE5
:10173000EE1FFF1FA217B307E407F50720F0A21B57
:10174000B30BE40BF50B661F771F881F991F1A94C4
:1017500069F760957095809590959B01AC01BD01EE
:10176000CF010895052E97FB16F400940FD057FD76
:1017700005D0D6DF07FC02D046F408C0509540954E
:10178000309521953F4F4F4F5F4F0895909580952D
:10179000709561957F4F8F4F9F4F08950FD0A59FF4
:1017A000900DB49F900DA49F800D911D112408955C
:1017B000EE0FFF1F0590F491E02D0994A29FB00158
:1017C000B39FC001A39F700D811D1124911DB29F75
:0E17D000700D811D1124911D0895F894FFCF16
:1017DE000000EA0280000100000003000000050086
:1017EE00000006000000090000000A0000000B00C7
:1017FE0000000001020304054F024F02FF46697804
:10180E006564537465704469736372657465004BE7
:10181E00020000000027049E05B703D103C3030690
:08182E00040000000054050055
:00000001FF
