:10000000FEC000000C945A110C94811120C1000014
:100010001EC100001CC100001AC100000C94DD15B7
:1000200016C100000C949E1612C100000C945222BE
:100030000EC100000CC100000AC1000008C1000090
:100040000C94A81104C100000C943A140C946C1484
:10005000FEC00000FCC00000FAC00000F8C00000B4
:10006000F6C00000F4C00000CC1E7920E320E6209A
:10007000CF1F02208B1EAC1E6F1EC020AF20BC20E5
:10008000E620E620E6205A1E05A84CCDB2D44EB993
:100090003836A9020C50B9918688083CA6AAAA2A2B
:1000A000BE000000803F00000008000201000003C5
:1000B00004070000000000000000010204081020F6
:1000C00040800102040810200102040810200404EA
:1000D00004040404040402020202020203030303F0
:1000E000030300000000250028002B000000000092
:1000F000240027002A0002001D3A2774694E53E8A5
:10010000F5D2CF9C81A6BBCDD0F7EAB9A4839E25BA
:10011000381F02514C6B76879ABDA0F3EEC9D46F9D
:100120007255481B06213C4A57706D3E230419A2A4
:10013000BF9885D6CBECF1130E2934677A5D40FB6E
:10014000E6C1DC8F92B5A8DEC3E4F9AAB7908D367C
:100150002B0C11425F78659489AEB3E0FDDAC77C61
:1001600061465B0815322F5944637E2D30170AB162
:10017000AC8B96C5D8FFE2263B1C01524F6875CE6A
:10018000D3F4E9BAA7809DEBF6D1CC9F82A5B80342
:100190001E3924776A4D50A1BC9B86D5C8EFF24921
:1001A00054736E3D20071A6C71564B1805223F841C
:1001B00099BEA3F0EDCAD735280F12415C7B66DDEE
:1001C000C0E7FAA9B4938EF8E5C2DF8C91B6AB1004
:1001D0000D2A3764795E43B2AF8895C6DBFCE15ADD
:1001E00047607D2E3314097F6245580B16312C97DA
:1001F0008AADB0E3FED9C4009114FD149A161124FF
:100200001FBECFEFD8E0DEBFCDBF12E0A0E0B1E06F
:10021000E0E3F2E502C005900D92A038B107D9F7EE
:1002200024E0A0E8B2E001C01D92AD36B207E1F7CC
:1002300010E0CFEFD0E004C02197FE010E94832799
:10024000CC3FD107C9F70E9461240C941629D8CE5F
:100250004F925F926F927F928F929F92AF92BF92D6
:10026000CF92DF92EF92FF92CF93DF93CDB7DEB7BD
:1002700028970FB6F894DEBF0FBECDBF80916504FE
:1002800090916604A0916704B0916804892B8A2B31
:100290008B2B91F120914C0430914D0440914E04F0
:1002A00050914F0460917E0170917F018091800197
:1002B000909181010E946A266B017C010E94CD26EB
:1002C00060935D0470935E0480935F049093600478
:1002D000C701B6010E944C256093610470936204CB
:1002E00080936304909364041092650410926604F2
:1002F000109267041092680480915D0490915E04EE
:10030000A0915F04B091600489839A83AB83BC831E
:1003100080908E0190908F01A0909001B0909101FB
:10032000C0906104D0906204E0906304F090640493
:1003300080918A0190918B01A0918C01B0918D01E7
:100340008D839E83AF83B887A501940169817A81EB
:100350008B819C810E946A262B013C012D813E816C
:100360004F815885C701B6010E946A269B01AC01E6
:10037000C301B2010E94E4242091860130918701DB
:1003800040918801509189010E946A262B013C010D
:10039000A5019401C701B6010E946A266B017C0188
:1003A0002D813E814F81588569817A818B819C8125
:1003B0000E946A269B01AC01C701B6010E94E3249A
:1003C00020918201309183014091840150918501F7
:1003D0000E946A269B01AC01C301B2010E94E42481
:1003E0002091760130917701409178015091790107
:1003F0000E946A2620917A0130917B0140917C0114
:1004000050917D010E94E4246B017C0120E030E0EA
:1004100040E853E40E94482587FF0EC020E030E00A
:10042000A901C701B6010E94662687FD07C0C70162
:10043000B6010E944F2503C06FEF01C060E08091BC
:1004400092010E948F1640905D0450905E0460906F
:100450005F04709060048090860190908701A09066
:100460008801B0908901C0906104D0906204E0904E
:100470006304F09064048091820190918301A091C3
:100480008401B091850189839A83AB83BC83A501E4
:100490009401C301B2010E946A266D837E838F831B
:1004A000988729813A814B815C81C701B6010E94FE
:1004B0006A269B01AC016D817E818F8198850E94A7
:1004C000E42460935D0470935E0480935F049093D2
:1004D0006004A5019401C701B6010E946A266B0160
:1004E0007C0129813A814B815C81C301B2010E9468
:1004F0006A269B01AC01C701B6010E94E324609308
:10050000610470936204809363049093640481E0B7
:1005100090E00E94071140914C0450914D0460916D
:100520004E0470914F0480E090E00E94031180908F
:10053000580490905904A0905A04B0905B0420E0B5
:1005400030E040E85FEBC501B4010E9448258823F4
:1005500031F1C0904C04D0904D04E0904E04F090E6
:100560004F04A7019601C501B4010E94E3244B0189
:100570005C0120E030E040E054E3C701B6010E9496
:100580006A269B01AC01C501B4010E9466261816BB
:1005900034F08CE991E09093370480933604809195
:1005A0005C04882331F08CE991E0909337048093C8
:1005B00036048091500490915104A0915204B0915E
:1005C0005304BC01CD016F5F7F4F8F4F9F4F6093EE
:1005D00050047093510480935204909353040E94EA
:1005E0007B2520915404309155044091560450913C
:1005F00057040E946A2660934C0470934D048093C4
:100600004E0490934F0428960FB6F894DEBF0FBEA9
:10061000CDBFDF91CF91FF90EF90DF90CF90BF9053
:10062000AF909F908F907F906F905F904F900895C4
:100630000F931F93CF93DF93E6E3F4E087E2DF01AC
:100640001D928A95E9F786E696E6AEE1B1E482A3CB
:1006500093A3A4A3B5A38AE999E9A9E9BEE3868F88
:10066000978FA0A3B1A38BE998E7A9EBB1ED8483A1
:100670009583A683B78382ED9CEAA3E0B0E58087EB
:100680009187A287B3878FEA95ECA5E9B0E98487C3
:100690009587A687B78783EF99E7A7E7B1EF808BA8
:1006A000918BA28BB38BA4E9B2E0B383A28382E9DE
:1006B00092E011969C938E938CE192E0909393023A
:1006C000809392028AE494E015969C938E931497FB
:1006D0008AE394E013969C938E9312978CE494E0B3
:1006E00017969C938E9316970DE514E08CE0E80125
:1006F00019928A95E9F7A0E8B2E082E1ED0119923A
:100700008A95E9F7B58BA48B8EE090E011969C93C7
:100710008E9386E591E013969C938E9312978AE3CD
:1007200091E015969C938E93149786E291E017962C
:100730009C938E9316978AE091E019969C938E93E2
:100740001897E2E7F1E0608180A10E94841681E0C1
:1007500090E0A0E0B0E0F80180879187A287B3879E
:10076000DF91CF911F910F9108950895EF92FF921D
:100770000F931F93CF93DF93DC01EA01F9011496E5
:100780008D919C91159712960D911C911397080FBE
:10079000191F2881398118964D915C91199742173C
:1007A000530728F04D915C911197452B39F1780151
:1007B000E21AF30A18964D915C911997481B590B50
:1007C0004E0D5F1D4617570794F1A901460F571F9D
:1007D00040175107E0F0F182E082338322836E19E3
:1007E0007F0975836483161617061CF4382F292F8A
:1007F00002C030E020E03683278313C018968D9125
:100800009C911997821B930B8617970784F071832D
:100810006083338322831582148217821682888133
:100820009981680F791F7983688380E001C081E036
:10083000DF91CF911F910F91FF90EF900895CF928C
:10084000DF92EF92FF92CF93DF936B017C0184E400
:100850008C9DE0018D9DD00D1124C056DD4F8AA9DD
:100860009BA9009721F00E9465281BAA1AAA84E47C
:100870008C9DF0018D9DF00D1124E056FD4F86A951
:1008800097A9009711F00E94652884E48C9DF001DF
:100890008D9DF00D1124E056FD4F138A128A168AA1
:1008A000178A108E118E128E138E148E158E168E40
:1008B000178E10A211A281E090E093A382A315A24B
:1008C00014A216A217A210A611A613A612A615A668
:1008D00014A616A617A610AA11AA13AA12AA15AA38
:1008E00014AA17AA16AA11AE10AE12AE13AE14AE09
:1008F00015AEDF01DE961D921D921D921C9213977C
:10090000EE5BFF4F11821082DF91CF91FF90EF904D
:10091000DF90CF9008950F931F93CF93DF93EB0158
:10092000DC018D919C91FC01A681B781E881F98160
:1009300023E0EE0FFF1F2A95E1F712962D913C91CF
:100940001397E20FF31F00811181AC85BD859D01D6
:10095000220F331FDC0112968D919C911397D901C0
:10096000A80FB91F8D919C9124813581232B19F4F7
:1009700061E070E002C062E070E0689F9001699FF2
:10098000300D789F300D112488859985289FB001FE
:10099000299F700D389F700D1124EC81FD812E9FD1
:1009A000C0012F9F900D3E9F900D1124800F911F2D
:1009B000FA019183808373836283DF91CF911F91CA
:1009C0000F9108952F923F924F925F926F927F9274
:1009D0008F929F92AF92BF92CF92DF92EF92FF924F
:1009E0000F931F93CF93DF9300D000D000D0CDB7EB
:1009F000DEB7DC011496ED91FC9115970190F08122
:100A0000E02D808591859A838983A281B381BC83FF
:100A1000AB83FB0181909190A190B1908F01C12C8B
:100A2000D12C7601C814D904EA04FB040CF05FC091
:100A3000D80114964D905D906D907C901797189604
:100A40004D915D916D917C911B97F8017096FE839D
:100A5000ED83F801A081B18183E0AA0FBB1F8A95C5
:100A6000E1F7E981FA8182819381A80FB91F2D9066
:100A70003C901197F80124853585220F331F8B8117
:100A80009C81280F391FF9010081118114968D91E5
:100A90009C911597892B19F481E090E002C082E0C7
:100AA00090E0809F9001819F300D909F300D112428
:100AB000249F8001259F100D349F100D1124249D2B
:100AC000C001259D900D349D900D1124A8016D81CC
:100AD0007E81820D931D0E94FD288D819E81080FCD
:100AE000191F9FEFC91AD90AE90AF90A9BCF26965E
:100AF0000FB6F894DEBF0FBECDBFDF91CF911F912F
:100B00000F91FF90EF90DF90CF90BF90AF909F90AC
:100B10008F907F906F905F904F903F902F900895AF
:100B2000CF93DF93DB01AD56BE4F2C91222369F0AA
:100B300024E4269FF001279FF00D1124E056FD4F7D
:100B4000EF0119922A95E9F71C9224E4269FF001FF
:100B5000279FF00D1124E056FD4F14821582168256
:100B600017821186108613861286118A108A1786BC
:100B70001686DF91CF9163CE2F923F924F925F9274
:100B80006F927F928F929F92AF92BF92CF92DF929D
:100B9000EF92FF920F931F93CF93DF93CDB7DEB702
:100BA00028970FB6F894DEBF0FBECDBF6B017C0156
:100BB0001A0184E48C9D90018D9D300D11242056E6
:100BC0003D4FF90184819581A681B781892B8A2BBC
:100BD0008B2B09F4B8C0A12CB12C412C512C320123
:100BE00038872F83C90104969A838983D90118967F
:100BF000BC83AB83E981FA8180819181A281B38139
:100C0000481659066A067B0694F5AB81BC81ED91C6
:100C1000FC91EA0DFB1D228133818901812C912CED
:100C200082149304C4F4D801ED91FC91309769F0DB
:100C3000848195812D833E830E946528F8018081FF
:100C400091810E9465283E812D81FFEF8F1A9F0AB6
:100C50000E5F1F4FE5CFC9010E9465288FEF481A2C
:100C6000580A680A780A94E0A90EB11CC3CFAF8174
:100C7000B88518968D919C9119970E946528EF81EF
:100C8000F88582859385892B59F1A12CB12C812C73
:100C9000912C84E48C9D80018D9D100D11240655AE
:100CA0001D4F8214930484F4D801ED91FC91EA0D58
:100CB000FB1D848195810E946528BFEF8B1A9B0ADA
:100CC000EEE0AE0EB11CEDCF84E48C9DF0018D9D65
:100CD000F00D1124E056FD4F828593850E94652812
:100CE00084E48C9D90018D9D300D11248901005666
:100CF0001D4FD80150968D919C9151970E94652867
:100D0000F801868597850E946528C701B60197DDA1
:100D1000C701B60128960FB6F894DEBF0FBECDBF4F
:100D2000DF91CF911F910F91FF90EF90DF90CF90C7
:100D3000BF90AF909F908F907F906F905F904F90FB
:100D40003F902F90EDCE28960FB6F894DEBF0FBEE1
:100D5000CDBFDF91CF911F910F91FF90EF90DF906A
:100D6000CF90BF90AF909F908F907F906F905F904B
:100D70004F903F902F90089524E4269FF001279FE5
:100D8000F00D1124E056FD4F828993890497029754
:100D900058F485E090E0938B828B8FEF9FEFDC011E
:100DA000828F938FA48FB58F08952F923F924F9289
:100DB0005F926F927F928F929F92AF92BF92CF92EB
:100DC000DF92EF92FF920F931F93CF93DF93CDB7F4
:100DD000DEB7E0970FB6F894DEBF0FBECDBF9AA383
:100DE00089A31B016A012801390184E4849D8001E3
:100DF000859D100D1124980120563D4F7901D90190
:100E00004D925D926D927C921397AB01C301B2013A
:100E1000B3DEF801EC55FD4FD6014D915D916D911A
:100E20007D918D01CA01408351836283738364E0A5
:100E300070E00E94B627F70191878087892B09F41B
:100E400099C11E8E1D8E198E1A8E1B8E1C8EF8A2B5
:100E5000EF8E97012C5F3F4F38A72FA32C5F3F4F9A
:100E60003AA729A7EFA1F8A580819181A281B3813A
:100E7000298D3A8D4B8D5C8D281739074A075B0702
:100E80000CF0E4C0A9A5BAA58D919C912D8D3E8D45
:100E9000280F391F3A8B298BD801ED91FC91EE0F69
:100EA000FF1FA9A1BAA18D919C91E80FF91F808124
:100EB0009181F90191838083D80114962D913D9100
:100EC0004D915C9117972BA33CA34DA35EA3085FA4
:100ED0001F4F62E070E0C1010E94B627E989FA89DC
:100EE00093838283892B09F445C11D8A1E8A1F8A38
:100EF000188E2D893E894F89588D8BA19CA1ADA15B
:100F0000BEA1281739074A075B070CF08CC0D8012F
:100F1000ED90FC90EE0CFF1CE989FA89C280D38029
:100F2000CE0CDF1C68E070E081E090E00E94B62704
:100F3000D6018D939C93E989FA8982819381FC0182
:100F4000EE0DFF1DC080D180C114D10409F412C17F
:100F5000D80114964D915D916D917C911797CA01BE
:100F6000F6014083518362837383085F1F4F64E0FF
:100F700070E00E94B627D60115969C938E93149725
:100F8000892B09F4F7C01C8A1B8A812C912C5401EF
:100F9000F60180819181A281B38188169906AA0603
:100FA000BB06A4F5F601E480F5802B893C89E20EAE
:100FB000F31EF801DE01119680E101900D928A95F1
:100FC000E1F7005F1F4FA701BE016F5F7F4FA9A12F
:100FD000BAA114968D919C9115979DDCF6012681FE
:100FE0003781D70112968D919C911397820F931F91
:100FF00097838683BFEF8B1A9B0AAB0ABB0A2B89A8
:101000003C892C5F3F4F3C8B2B8BC2CF2D893E8977
:101010004F89588D2F5F3F4F4F4F5F4F2D8B3E8B2A
:101020004F8B588F66CF298D3A8D4B8D5C8D2F5FFE
:101030003F4F4F4F5F4F298F3A8F4B8F5C8F2D8DD6
:101040003E8D2C5F3F4F3E8F2D8F0CCF6EE070E0BA
:10105000C1010E94B627AF8DB8A11B969C938E93B9
:101060001A97812C912CA12CB12CC12CD12C24E4C9
:10107000249DC001259D900D11249C0126553D4FB6
:101080003A8B298B21E030E0A214B3040CF04AC063
:10109000D8014D915D916D917D918D01CA01E989D4
:1010A000FA89E080F180E80CF91C57FD63C0D70194
:1010B00011963C932E930097A1F02FA738AB4BA726
:1010C0005CA76DA77EA70E94D027F7019583848334
:1010D0002FA538A94BA55CA56DA57EA5892B31F45C
:1010E00049C0D70115961C921E921497F70153839D
:1010F0004283848195819783868391878087138635
:10110000128681E090E0452B462B472B11F480E0BE
:1011100090E0C80ED91EFFEFAF1ABF0A4EE0840E52
:10112000911CB2CF84E4849D8001859D100D112413
:1011300000561D4FD8011D961C921E921C97C60189
:1011400033E0880F991F3A95E1F70E94D027F80104
:10115000918B808B892B71F0C601880F991F0E949B
:10116000D027D8011F969C938E931E97892B11F040
:1011700080E005C0A101C301B201FEDC81E0E09680
:101180000FB6F894DEBF0FBECDBFDF91CF911F9198
:101190000F91FF90EF90DF90CF90BF90AF909F9016
:1011A0008F907F906F905F904F903F902F90089519
:1011B0002F923F924F925F926F927F928F929F9267
:1011C000AF92BF92CF92DF92EF92FF920F931F9355
:1011D000CF93DF93CDB7DEB768970FB6F894DEBF35
:1011E0000FBECDBF9C8B8B8BDB0149015A0124E4E0
:1011F000289DC001299D900D11249C0120563D4F32
:1012000079012D913C911197F701358B248BFC01CD
:10121000EA54FD4F14964D915D916D917C91179715
:101220004083518362837383FC01E654FD4F18961B
:101230004D915D916D917C911B97408351836283A9
:101240007383FC01E254FD4F1C964D915D916D91AD
:101250007C911F974083518362837383FC01E25327
:10126000FD4F50965C91509751964C9151975296E4
:101270003C91529753962C915397508341833283DC
:1012800023838D010C5E1F4F852F942F181619068E
:101290000CF068C0880F991F880F991F0E94D027F3
:1012A000D701D3969C938E93D297892B09F4BCC017
:1012B000212C312C412C512C32019701225D3F4FC2
:1012C0003E8B2D8B2C5F3F4F388F2F8B2E5F3F4FE8
:1012D0003A8B298BB301A2012FEF421A520A620AFC
:1012E000720AED89FE8980819181A281B3814817BC
:1012F00059076A077B074CF5AF89B88DCD90DC9014
:10130000C20CD31CF801DE01119680E101900D9210
:101310008A95E1F7005F1F4FA601BE016F5F7F4F07
:10132000EB89FC8984819581F6DAA989BA898D9146
:101330009C911197F60122813381820F931F8D9327
:101340009C93F4E02F0E311CC5CFD701D4968D911C
:101350009C91D5970E94D027F70197AB86AB892B3C
:1013600009F462C0F80180819181A281B38124E4F3
:10137000289DF001299DF00D1124E056FD4FAC0190
:10138000BD014D7F21E030E0452B462B472B11F06E
:1013900020E030E033A322A324E4289DF001299D1E
:1013A000F00D1124E056FD4F0197A109B10921E08C
:1013B00030E00297A105B10510F020E030E035A340
:1013C00024A384E4889DF001899DF00D1124CF01B0
:1013D0008A539D4FD80114964D915D916D917C91EA
:1013E0001797DC014D935D936D937C931397E056B3
:1013F000FD4F868D978DA0A1B1A1B7FF10C0B0950C
:10140000A095909581959F4FAF4FBF4F82AF93AFFF
:10141000A4AFB5AF168E178E10A211A20AC012AEDD
:1014200013AE14AE15AE05C0C501B40108DA81E0F3
:1014300001C080E068960FB6F894DEBF0FBECDBF46
:10144000DF91CF911F910F91FF90EF90DF90CF90A0
:10145000BF90AF909F908F907F906F905F904F90D4
:101460003F902F900895CF92DF92EF92FF92CF930B
:10147000DF931092280324E4269FF001279FF00DAC
:101480001124E056FD4F15A614A620E030E0C12C33
:10149000D12CDF011A96C1E0D0E0C416D506D4F4F1
:1014A000ED91FC911197E20FF31FE280F3801E147F
:1014B0001F0454F4E480F580F782E682F186E0862A
:1014C00013861286D183C083EFEFCE1ADE0A225F25
:1014D0003F4FE3CF24E4269FF001279FF00D112416
:1014E000E056FD4F13A612A611AE10AEDF01DE9638
:1014F0001D921D921D921C92139782E090E0938B97
:10150000828BDF91CF91FF90EF90DF90CF90089585
:1015100024E4269FF001279FF00D1124E056FD4F93
:10152000138A128A29CB24E4269FF001279FF00D0D
:101530001124E056FD4F8289938981309105C8F0CE
:101540008530910518F0059769F008958FEF9FEFAA
:10155000DC01828F938FA48FB58F85E090E0938B11
:10156000828B08958FEF9FEFDC01828F938FA48F82
:10157000B58F089524E4249FF001259FF00D1124D8
:10158000E056FD4F2EE0AC01249FC001259F900D39
:1015900011240284F385E02DE80FF91F81E0809388
:1015A0002803828593859187808740855185268190
:1015B000378181E090E04217530711F080E090E01E
:1015C0009183808308952F923F924F925F926F9202
:1015D0007F928F929F92AF92BF92CF92DF92EF92C3
:1015E000FF920F931F93CF93DF93CDB7DEB7C25512
:1015F000D1090FB6F894DEBF0FBECDBF21969FAFC5
:101600008EAF21974BA75CA76DA77EA74801590114
:1016100084E4889D8001899D100D1124F801E05615
:10162000FD4F2285338527963FAF2EAF27978289BE
:101630009389029709F060C186A597A5A0A9B1A9D1
:10164000892B8A2B8B2B29F484E090E0938B828B5F
:1016500053C18489958921964EAD5FAD2197481776
:10166000590709F049C186A997A99AAB89AB1EAE63
:101670001DAE19AE1AAE1BAE1CAE8F01DF019E96D9
:101680002996BFAFAEAF2997F2962B96FFAFEEAF7C
:101690002B979801285C3F4F2D963FAF2EAF2D978B
:1016A000A8014A5D5F4F2F965FAF4EAF2F97C801DD
:1016B000829661969FAF8EAF61971A976396BFAF80
:1016C000AEAF63972996EEADFFAD299780819181EA
:1016D000A281B38129AD3AAD4BAD5CAD2817390776
:1016E0004A075B070CF0E7C02B96EEADFFAD2B97DA
:1016F000808191812DAD3EAD280F391F3EAB2DABC2
:10170000D90112960D90BC91A02D2396BFAFAEAF1C
:101710002397B695A795B695A7952596BFAFAEAF7B
:1017200025972D96EEADFFAD2D9780819181892B68
:1017300009F496C02F96AEADBFAD2F97CD90DD903A
:10174000ED90FC9029A83AA8F9010190F081E02DD4
:10175000F8ABEFA718AE1FAA8FA998AD2596AEAD2E
:10176000BFAD25978A179B070CF07AC06196AEAD86
:10177000BFAD61978D919C91892B69F1EFA5F8A977
:101780004080518062807380A7019601C301B2013D
:101790000E94662687FD0BC0A7019601D1016D91BD
:1017A0007D918D919C910E94482587FD8CC0A70159
:1017B0009601C301B2010E946626181664F4A701BF
:1017C0009601F10160817181828193810E94482597
:1017D000882309F478C06396AEADBFAD63978D9151
:1017E0009C91892B69F1EFA5F8A940805180628016
:1017F0007380A7019601C301B2010E94482587FFAB
:101800000BC0A7019601D1016D917D918D919C91A5
:101810000E94662687FF57C0A7019601C301B20147
:101820000E94482581110CC0A7019601F101608139
:101830007181828193810E94662618160CF443C040
:101840002FA938AD2F5F3F4F38AF2FAB34E0230EB9
:10185000311C4FA558A94C5F5F4F58AB4FA77CCFA9
:10186000EDA9FEA96081718123964EAD5FAD2397EE
:1018700089A99AA90E94FD2825968EAD9FAD25972E
:10188000880F991F880F991F29A93AA9280F391F76
:101890003AAB29AB89AD9AADABADBCAD0196A11DFC
:1018A000B11D89AF9AAFABAFBCAFADADBEAD1496B5
:1018B000BEAFADAF07CF81E090E0D801D9969C9341
:1018C0008E93D89719C084E4889DF001899DF00D0E
:1018D0001124E056FD4F868D978DA0A1B1A1892BD3
:1018E0008A2B8B2B09F064C284E090E0938B828B6F
:1018F00086AD97AD93A782A784E4889DF001899D6A
:10190000F00D1124E056FD4F8289938982309105B4
:1019100071F482AD93ADA4ADB5AD181619061A06D3
:101920001B060CF04CC2CC24C394D12C05C00497E8
:1019300009F045C2C12CD12C8EE02196EEADFFAD51
:1019400021978E9F70018F9FF00C112427962EAD4A
:101950003FAD2797E20EF31ED70112964D915C9191
:1019600013974115510509F42AC216968D919C9141
:1019700017979AA789A7FE01319684E1DF011D928E
:101980008A95E9F7898A9A8AAB8ABC8AC114D104FC
:1019900009F457C084E4889DF001899DF00D11245D
:1019A000E056FD4FDF01DE964D905D906D907C908E
:1019B00082AD93ADA4ADB5AD481659066A067B0657
:1019C00009F03FC0F701648175810084F185E02D45
:1019D00084819581A681B7819C018D8B9E8BAF8B75
:1019E000B88F285F3F4F3E8B2D8BD70118968D9176
:1019F0009C911997280F391F19963C932E9318978D
:101A000018968D919C911997460F571F841B950B23
:101A100097FD06C0860F971F19969C938E93189773
:101A200084E4889DF001899DF00D1124E252FD4F60
:101A3000B1E04B1A510861087108408251826282FC
:101A400073829E012B5E3F4FAE01475D5F4F64E1A5
:101A500070E0C7010E94B603082F10E001151105C0
:101A600009F091C18CE090E0A0E0B0E08D839E830E
:101A7000AF83B8879E01235E3F4FAE01475D5F4F46
:101A800064E070E0C7010E94B603082F10E0011562
:101A9000110509F078C180E190E0A0E0B0E08D830D
:101AA0009E83AF83B8874D8D5E8DBE01655D7F4F90
:101AB0008F8D98A10E94FD288BA19CA1009761F0B9
:101AC0006D8D7E8DEBE2F0E0EC0FFD1F6E0F7F1F42
:101AD00049A15AA10E94FD281DA21EA21FA218A65C
:101AE00021962EAD3FAD2197220F331F38AF2FAB7C
:101AF00024E4289DC001299D900D112480569D4FFE
:101B0000AC014C5F5F4F5AAF49AFDC011896BEAFD6
:101B1000ADAF2DA13EA14FA158A529AB3AAB4BAB20
:101B20005CABE9ADFAAD80819181A281B3812817C8
:101B300039074A075B070CF0CFC0ADADBEADED91E4
:101B4000FC9189A99AA9880F991F880F991FE80FFE
:101B5000F91FA081B1818C91882309F4AFC0833033
:101B600009F4ACC00280F381E02D2FA938ADE20F5B
:101B7000F31F4081518158AB4FA7452B09F49EC0FC
:101B800089859A85AB85BC850196A11DB11D898784
:101B90009A87AB87BC879E01235E3F4FAE01475DAE
:101BA0005F4F64E070E0C7010E94B60390E00097C9
:101BB00009F0E8C08D819E81AF81B8850496A11D92
:101BC000B11D8D839E83AF83B8874D8D5E8DBE0121
:101BD0006B5D7F4F8F8D98A10E94FD288BA19CA1EA
:101BE000009761F06D8D7E8DA5E2B0E0AC0FBD1F5A
:101BF0006A0F7B1F49A15AA10E94FD281EAA1DAA97
:101C0000412C512C3201EFA5F8A980819181A2814C
:101C1000B381481659066A067B060CF04FC0EFA543
:101C2000F8A9248035802DA93EA9220E331ED101AA
:101C300012966D917C9113979E01235E3F4FAE01EA
:101C4000475D5F4FC7010E94B60390E0009709F01F
:101C500099C0F10182819381092E000CAA0BBB0B64
:101C60004D815E816F817885840F951FA61FB71FF8
:101C70008D839E83AF83B887608171814D8D5E8D2A
:101C80008F8D98A10E94FD288BA19CA1009759F0EF
:101C9000D1016D917C912D8D3E8D620F731F49A1F5
:101CA0005AA10E94FD28BFEF4B1A5B0A6B0A7B0A00
:101CB000EDA9FEA93496FEABEDABA5CF49A85AA875
:101CC0006BA87CA8FFEF4F1A5F0A6F0A7F0A4DA22C
:101CD0005EA26FA278A61DCF89859A85AB85BC854B
:101CE000892B8A2B8B2B09F44EC08AE190E0A0E06F
:101CF000B0E089839A83AB83BC8321962EAD3FAD40
:101D00002197C901330FAA0BBB0B8D879E87AF8725
:101D1000B88B4D895E89BE016F5F7F4F8F89988D2B
:101D20000E94FD288B8D9C8D009761F06D897E89C6
:101D300041E050E04C0F5D1F640F751F498D5A8DB7
:101D40000E94FD2889A59AA5D70117969C938E938A
:101D5000169711961C921E92CD2889F184E4889DD5
:101D6000F001899DF00D1124E252FD4F8081918197
:101D7000A281B3810196A11DB11D80839183A283AD
:101D8000B3831DC08C01CD28D1F4012BC1F084E4B4
:101D9000889DF001899DF00D1124E056FD4F81E0F2
:101DA00090E095A784A785E090E0938B828B07C095
:101DB00083E090E0938B828B81E090E09BCDCE5AC4
:101DC000DF4F0FB6F894DEBF0FBECDBFDF91CF91CE
:101DD0001F910F91FF90EF90DF90CF90BF90AF9049
:101DE0009F908F907F906F905F904F903F902F903B
:101DF0000895CF92DF92EF92FF920F931F936B01A2
:101E00007C0184E48C9DF0018D9DF00D1124E05641
:101E1000FD4F82899389009709F450C00197B9F466
:101E200082A593A59C012F5F3F4F33A722A7092EC0
:101E3000000CAA0BBB0B028D138D248D358D8017E2
:101E40009107A207B307D1F5C701B6010CDB84E403
:101E50008C9DF0018D9DF00D1124E056FD4F82897F
:101E60009389039759F582A593A59C012F5F3F4F56
:101E700033A722A7092E000CAA0BBB0B468D578D4A
:101E800060A171A184179507A607B707BCF086ADBE
:101E900097AD93A782A784E090E0938B828B82AD6D
:101EA00093ADA4ADB5AD181619061A061B0634F489
:101EB000EE5BFF4F81E090E0918380831F910F9153
:101EC000FF90EF90DF90CF90089524E4269FF001DB
:101ED000279FF00D1124E056FD4F828993890497C6
:101EE000B1F482A593A5019693A782A7092E000CB1
:101EF000AA0BBB0B46895789608D718D8417950796
:101F0000A607B70721F485E090E0938B828B0895B4
:101F10002F923F924F925F926F927F928F929F92F9
:101F2000AF92BF92CF92DF92EF92FF920F931F93E7
:101F3000CF93DF93CDB7DEB72C970FB6F894DEBF03
:101F40000FBECDBF49835A836B837C834901442EE6
:101F5000552E24E4249DF001259DF00D1124E0561A
:101F6000FD4F228933892450310915861486223089
:101F7000310508F0DAC0DC0111961C921E9213960E
:101F80001C921E921297A12CB12C60E070E09F0170
:101F9000265F3F4F3E832D837F013CE0E30EF11C23
:101FA000DF015096B887AF839F01225F3F4F3A878A
:101FB0002987681579050CF06CC0ED81FE81A08140
:101FC000B1819D012A0D3B1D3C872B87D9012D91A5
:101FD0003C911197232B09F056C018960D911C9136
:101FE000199712962D903C90139716962D913C912F
:101FF0001797F70140815181DA01E3E0AA0FBB1F77
:10200000EA95E1F7EF81F885C080D180FD01EC0D04
:10201000FD1D440F551FA985BA85CD90DC904C0D50
:102020005D1DDA016D937C93D7014D915C91119701
:102030004F5F5F4F4D935C9313830283AB85BC85E9
:102040001B963C932E931A970217130748F4201BF4
:10205000310B31832083158214821782168213C0BC
:10206000AB85BC851496CD90DC901597A601420DEA
:10207000531D401B510B518340832C193D0935835F
:102080002483D782C6826F5F7F4FBEE0AB0EB11C48
:1020900090CF24E4249D8001259D100D112400562D
:1020A0001D4FF80124853585DC0111963C932E9354
:1020B0004089518913965C934E93129746855785B4
:1020C00015965C934E931497232BA1F582899389DF
:1020D000059781F510922803828D938DA48DB58D7F
:1020E000AE014F5F5F4F64E070E08F3F9F4FAF4F97
:1020F000BF4F59F480E290E00E945D1A69817A81B5
:102100008B819C81A40104DA15C08FE190E00E94CC
:102110005D1AD8019B961C921E929A9781E090E0DE
:1021200053969C938E93529705C0FC0111821082A6
:10213000138212822C960FB6F894DEBF0FBECDBF6D
:10214000DF91CF911F910F91FF90EF90DF90CF9093
:10215000BF90AF909F908F907F906F905F904F90C7
:102160003F902F900895EF92FF920F931F93CF937C
:10217000DF937C018B01EA010E94E01A811121C0EA
:102180008091950190919601049711F183E090E080
:1021900090939601809395011BC098819111F0CF87
:1021A00028ED38EB45E050E060E070E0CB010E94A4
:1021B0006A1DAE01B801C7010E94781DC8010E94C6
:1021C000431D8091290390912A03892B31F3D8CFA5
:1021D000DF91CF911F910F91FF90EF900895CF93D2
:1021E000DF9320919501309196012430310541F023
:1021F000EB010E94781DCE01DF91CF910C94431D1D
:10220000DF91CF9108950C9476210C946B210C945E
:1022100059210C94531D0C94FD20089560E070E04A
:1022200080E090E00C94BB1A0895AF92BF92CF92D9
:10223000DF92EF92FF920F931F93CF93DF9300D023
:10224000CDB7DEB75C0169017A018B0180E090E0D7
:10225000C114D104E104F104F1F0C114D10421E06E
:10226000E206F10410F4A60102C04FEF5FEF9E01F9
:102270002F5F3F4FB801C5010E9418228F3F2FEFFB
:10228000920749F029813A81C21AD30AE108F1087C
:10229000020F131FDDCF0F900F90DF91CF911F9191
:1022A0000F91FF90EF90DF90CF90BF90AF90089587
:1022B000089508951F920F920FB60F9211242F9335
:1022C0003F934F935F936F937F938F939F93AF93BE
:1022D000BF93EF93FF93E0919701F09198010995D7
:1022E000FF91EF91BF91AF919F918F917F916F91EE
:1022F0005F914F913F912F910F900FBE0F901F90C4
:1023000018951F920F920FB60F9211242F933F939F
:102310004F935F936F937F938F939F93AF93BF93ED
:10232000EF93FF93E0919901F0919A010995FF9144
:10233000EF91BF91AF919F918F917F916F915F913D
:102340004F913F912F910F900FBE0F901F901895B6
:102350001F920F920FB60F9211242F933F938F93DA
:102360009F93AF93BF9380912C0390912D03A091E5
:102370002E03B0912F0330912B0323E0230F2D3731
:1023800020F40196A11DB11D05C026E8230F029679
:10239000A11DB11D20932B0380932C0390932D033B
:1023A000A0932E03B0932F038091300390913103BB
:1023B000A0913203B09133030196A11DB11D80930A
:1023C000300390933103A0933203B0933303BF9152
:1023D000AF919F918F913F912F910F900FBE0F90D2
:1023E0001F9018953FB7F894809130039091310376
:1023F000A0913203B091330326B5A89B05C02F3FAF
:1024000019F00196A11DB11D3FBFBA2FA92F982F1A
:102410008827820F911DA11DB11DBC01CD0142E095
:10242000660F771F881F991F4A95D1F708958F92DD
:102430009F92AF92BF92CF92DF92EF92FF926B0189
:102440007C01D0DF4B015C01C114D104E104F10433
:10245000F1F02EDFC7DFDC01CB0188199909AA0949
:10246000BB09883E9340A105B10570F321E0C21A73
:10247000D108E108F10888EE880E83E0981EA11CBF
:10248000B11CC114D104E104F10421F7DDCFFF90A8
:10249000EF90DF90CF90BF90AF909F908F90089576
:1024A000789484B5826084BD84B5816084BD85B52F
:1024B000826085BD85B5816085BDEEE6F0E08081F6
:1024C00081608083E1E8F0E0108280818260808317
:1024D000808181608083E0E8F0E08081816080839A
:1024E000E1EBF0E0808184608083E0EBF0E08081CC
:1024F00081608083EAE7F0E080818460808380816E
:102500008260808380818160808380818068808315
:102510001092C1000895833081F028F4813099F041
:102520008230A1F008958730A9F08830B9F0843066
:10253000D1F4809180008F7D03C0809180008F77DF
:1025400080938000089584B58F7702C084B58F7D15
:1025500084BD08958091B0008F7703C08091B00052
:102560008F7D8093B0000895CF93DF9390E0FC01BE
:10257000E654FF4F2491FC01E253FF4F84918823DE
:1025800061F190E0880F991FFC01E451FF4FC59164
:10259000D491FC01EE51FF4FA591B491611109C096
:1025A0009FB7F8948881209582238883EC912E230D
:1025B0000BC0623061F49FB7F8943881822F809508
:1025C00083238883EC912E2B2C939FBF06C08FB75B
:1025D000F894E8812E2B28838FBFDF91CF91089547
:1025E0001F93CF93DF93282F30E0F901EA55FF4F77
:1025F0008491F901E654FF4FD491F901E253FF4F62
:10260000C491CC23C1F0162F811185DFEC2FF0E0AF
:10261000EE0FFF1FEE51FF4FA591B4918FB7F894C5
:10262000111105C09C91ED2FE095E92302C0EC91BA
:10263000ED2BEC938FBFDF91CF911F910895FC019B
:10264000918D228D892F90E0805C9F4F821B910994
:102650008F7399270895FC01918D828D981731F021
:10266000828DE80FF11D858D90E008958FEF9FEF2B
:102670000895FC01918D828D981761F0828DDF01A4
:10268000A80FB11D5D968C91928D9F5F9F73928F65
:1026900090E008958FEF9FEF0895FC01848DDF0196
:1026A000A80FB11DA35ABF4F2C91848D90E00196C5
:1026B0008F739927848FA689B7892C93A089B189B4
:1026C0008C9180648C93938D848D981306C00288BE
:1026D000F389E02D80818F7D80830895CF93DF93F0
:1026E000EC01888D8823C1F0EA89FB89808185FD12
:1026F00005C0A889B9898C9186FD0EC00FB607FC6C
:10270000F5CF808185FFF2CFA889B9898C9185FFAB
:10271000EDCFCE01C2DFE8CFDF91CF910895EF92E8
:10272000FF920F931F93CF93DF93EC0181E0888F8B
:102730009B8D8C8D981305C0E889F989808185FD72
:1027400023C0F62E0B8D10E00F5F1F4F0F73112764
:10275000E02E8C8DE8120BC00FB607FCFACFE8898B
:10276000F989808185FFF5CFCE0197DFF2CF8B8D80
:10277000FE01E80FF11DE35AFF4FF0820B8FEA894B
:10278000FB898081806207C0EE89FF896083E889C8
:10279000F98980818064808381E090E0DF91CF912E
:1027A0001F910F91FF90EF900895CF92DF92EF92DB
:1027B000FF921F93CF93DF93EC016A017B01122FED
:1027C000E889F98982E080834115514E61057105E0
:1027D000B1F060E079E08DE390E0A70196010E94FE
:1027E0004527DA01C9010197A109B109B695A79555
:1027F00097958795AC01411580E15807A8F0E889C5
:10280000F989108260E874E88EE190E0A7019601F2
:102810000E944527BA01A901415051096109710976
:102820007695679557954795EC85FD855083EE85A0
:10283000FF854083188EEC89FD891083EA89FB8926
:10284000808180618083EA89FB89808188608083C0
:10285000EA89FB89808180688083EA89FB8980819D
:102860008F7D8083DF91CF911F91FF90EF90DF905C
:10287000CF9008951F920F920FB60F9211242F93AD
:102880008F939F93EF93FF93E0914403F09145035F
:102890008081E0914A03F0914B0382FD12C0908148
:1028A00080914D038F5F8F7320914E03821751F0FB
:1028B000E0914D03F0E0EC5CFC4F958F80934D036D
:1028C00001C08081FF91EF919F918F912F910F9087
:1028D0000FBE0F901F9018951F920F920FB60F9278
:1028E00011242F933F934F935F936F937F938F9315
:1028F0009F93AF93BF93EF93FF9384E393E0CDDE79
:10290000FF91EF91BF91AF919F918F917F916F91C7
:102910005F914F913F912F910F900FBE0F901F909D
:102920001895E4E3F3E01382128288EE93E0A0E0CE
:10293000B0E084839583A683B78383E292E091839A
:10294000808385EC90E09587848784EC90E097877E
:10295000868780EC90E0918B808B81EC90E0938B6C
:10296000828B82EC90E0958B848B86EC90E0978B49
:10297000868B118E128E138E148E08958F929F92D5
:10298000AF92BF92CF92DF92EF92FF920F931F937D
:10299000CF93DF937C018B016C0182E0C80ED11CC8
:1029A0004701E5E08E0E911CC0E0D0E0F601619198
:1029B0006F014AE050E0C801C6D05C016EE2C80178
:1029C00067D08A0D9B1DC80FD91FC814D90471F791
:1029D0004AE050E0F7016581C801B5D08C0F9D1F1A
:1029E000DF91CF911F910F91FF90EF90DF90CF90EB
:1029F000BF90AF909F908F900895E1EDF3E083E357
:102A000092E091838083128213821482158208954A
:102A1000CF92DF92EF92FF920F931F93CF93DF93AA
:102A20006C017A018B01C0E0D0E0CE15DF0589F0A2
:102A3000D8016D918D01D601ED91FC910190F0814D
:102A4000E02DC6010995892B11F47E0102C0219663
:102A5000ECCFC701DF91CF911F910F91FF90EF90C5
:102A6000DF90CF9008956115710579F0FB01019019
:102A70000020E9F73197AF01461B570BDC01ED91C0
:102A8000FC910280F381E02D099480E090E00895AC
:102A9000DC01ED91FC910190F081E02D09944F92C1
:102AA0005F926F927F92EF92FF920F931F93CF935B
:102AB000DF93CDB7DEB7A1970FB6F894DEBF0FBE98
:102AC000CDBF7C01FA01CB0119A2223008F42AE023
:102AD0008E010F5D1F4F422E512C612C712CBF01B6
:102AE000A30192010E944527F901CA010150110971
:102AF0006A3014F4605D01C0695CD8016C93232BCB
:102B0000242B252B61F7B801C701ADDFA1960FB6C5
:102B1000F894DEBF0FBECDBFDF91CF911F910F9113
:102B2000FF90EF907F906F905F904F9008952115E8
:102B3000310541F4DC01ED91FC910190F081E02D33
:102B4000642F0994ACCF9A01462F50E060E070E00A
:102B5000EECF813039F018F0823051F008951092A4
:102B60006E00089580916F008D7F80936F000895AF
:102B7000809170008D7F8093700081E08093B00021
:102B80008091B100887F84608093B1001092B3007F
:102B90000895CF93C82F80919B018C1307C0E6EF57
:102BA000F0E0E4918FEF80939B0101C0EFEF8E2F57
:102BB000D0DF60E08C2FCF9113CD1F920F920FB614
:102BC0000F9211242F933F934F935F936F937F93B3
:102BD0008F939F93AF93BF93EF93FF938091DA030B
:102BE0009091DB03A091DC03B091DD03892B8A2B4C
:102BF0008B2B51F18091D703E091D803F091D90349
:102C00009081892780838091DA039091DB03A091E2
:102C1000DC03B091DD03181619061A061B06BCF476
:102C20008091DA039091DB03A091DC03B091DD0386
:102C30000197A109B1098093DA039093DB03A09374
:102C4000DC03B093DD0303C080919B01A2DFFF9101
:102C5000EF91BF91AF919F918F917F916F915F9114
:102C60004F913F912F910F900FBE0F901F9018958D
:102C70004F925F926F927F92AF92BF92CF92DF920C
:102C8000EF92FF920F931F93CF93DF93CDB7DEB7F1
:102C900029013A019B01AC0124193509460957095C
:102CA00089899A89AB89BC89BC01CD016A197B09E4
:102CB0008C099D090E941727A8019701241935093D
:102CC000460957090E946727CA01B9016A0D7B1D91
:102CD0008C1D9D1DDF91CF911F910F91FF90EF9063
:102CE000DF90CF90BF90AF907F906F905F904F90AC
:102CF000089540E855E260E070E080E090E000C0B8
:102D000026E084E393E051CD70E090E09C01220F37
:102D1000331F820F931F82529C4F0C94B02370E09C
:102D200090E09C01220F331F820F931F82529C4F11
:102D30000C94EA238EED93E00C9413231F920F92D0
:102D40000FB60F9211242F933F934F935F936F937E
:102D50007F938F939F93AF93BF93EF93FF9386E0FF
:102D60008093B2008091E1038F5F8093E1038B3405
:102D700021F41092E1030E944524FF91EF91BF914D
:102D8000AF919F918F917F916F915F914F913F9103
:102D90002F910F900FBE0F901F90189586E0809393
:102DA000B200A0E7B0E08C918E7F8C93E0EBF0E076
:102DB00080818C7F8083E1EBF0E08081877F80835E
:102DC00080818660808380818E7F80838C9181600A
:102DD0008C93089581E008956F927F928F929F92D5
:102DE000AF92BF92CF92DF92EF92FF920F931F9319
:102DF000CF93DF935C017B014A0101E010E00E15E7
:102E00001F0564F568018FEFC81AD80AE801CC0FD6
:102E1000DD1FC80DD91D6880798061147104E1F04F
:102E200065E372E0C3010E940D29892B19F4198210
:102E3000188212C068E372E0C3010E940D29892B39
:102E400059F4CE14DF0441F06801E2E0CE0ED11C4B
:102E5000198218821B821A828601D1CF81E0F50186
:102E60008083B401C7010E94A121F501928381836F
:102E700080E090E0DF91CF911F910F91FF90EF9054
:102E8000DF90CF90BF90AF909F908F907F906F908A
:102E9000089582EE93E0089580E008950F931F93C4
:102EA000CF93DF938B01BA01E9011982188298014F
:102EB000012E000C440B550BFC0181819281B5D988
:102EC000019621F01983088380E001C081E0DF9141
:102ED000CF911F910F9108950F931F93CF93DF937D
:102EE00000D0CDB7DEB7FB018A01B9019E012F5F8B
:102EF0003F4FAF01FC01818192810E94BA2101966E
:102F000039F089819A81F8019183808380E001C042
:102F100081E00F900F90DF91CF911F910F91089555
:102F2000FC01808108950895089581E0FB0180836C
:102F300080E00895089510920C040895FC018181A9
:102F400092810C949821CF93DF93CDB7DEB72A9767
:102F50000FB6F894DEBF0FBECDBFAC01CB0160E071
:102F600070E049835A836B837C83092E000CAA0B83
:102F7000BB0B8D839E83AF83B8879E01275F3F4F36
:102F8000AE014F5F5F4F68E070E080910504909163
:102F9000060484DF811108C081E029853A85283044
:102FA000310519F480E001C081E02A960FB6F8944B
:102FB000DEBF0FBECDBFDF91CF9108950F931F935A
:102FC000CF93DF9300D0CDB7DEB78B019E012F5F8B
:102FD0003F4FAC0180910504909106045FDF8111A1
:102FE00008C081E029813A812017310719F480E077
:102FF00001C081E00F900F90DF91CF911F910F9151
:103000000895CF93DF93EC01109209041092080405
:1030100010920B0410920A04AC0160E070E0CB0146
:103020000E94880AAE0161E070E080E090E00E94BA
:10303000880A8091050490910604DF91CF917ACFA0
:103040004F925F926F927F928F929F92AF92BF92B8
:10305000CF92DF92EF92FF920F931F93CF93DF9364
:1030600000D0CDB7DEB79C016C0197FF03C087E0AD
:10307000C80ED11C43E0D594C7944A95E1F7C90125
:1030800068E070E00E9432278C017901E2E0EE0EE8
:10309000F11C80910304909104048E159F050CF09F
:1030A00092C08091010490910204009731F00E9437
:1030B00065281092040410920304C7010E94D027CF
:1030C0009093020480930104892B29F0F092040468
:1030D000E092030478C0412C512C3201A12CB12C78
:1030E000AC14BD040CF4AAC10115110509F48AC180
:1030F000E12CF12C68012FEFC21AD20A580182E0AC
:10310000A80EB11C0B511C4FCE14DF040CF47AC175
:1031100097012B513C4FAE014F5F5F4F61E070E074
:103120008091050490910604D7DE81116BC18981DD
:103130009A81EFEF4E1A5E0A6E0A7E0AF0E94F1688
:10314000FFE55F06F1E06F0671041CF4E80EF91E5E
:103150000CC060910A0470910B048DEE90E0F3DED8
:10316000412C512C3201E12CF12CEA14FB0461F6C4
:10317000A60160E070E085EE93E00E944422609139
:103180000A0470910B048823A9F0F801808190E073
:103190006817790709F0B8CF8EEE90E0D4DE809101
:1031A0000A0490910B040196992790930B04809345
:1031B0000A04AACF8FEE90E0C6DE412C512C3201DA
:1031C000E12CF12CA1CFE12CF12CEC14FD040CF03E
:1031D00078C0412C512C3201A12CB12C470193E035
:1031E000880C991C9A95E1F7209101043091020412
:1031F000C4018A0D9B1D280F391FAE014F5F5F4F21
:1032000061E070E0809105049091060465DE811113
:10321000F9C089819A81FFEF4F1A5F0A6F0A7F0A0E
:1032200020E942162FE5520621E0620671043CF0C7
:1032300060910A0470910B048DEE90E035C0A80EE9
:10324000B91E8AE0A816B104B1F549E050E0B40116
:1032500080910104909102040E94442260910A042A
:1032600070910B048823F1F0809101049091020485
:10327000FC01E80DF91D808590E06817790709F0D9
:10328000A4CF8EEE90E05FDE80910A0490910B0453
:103290000196992790930B0480930A04EFEFEE1A9E
:1032A000FE0A93CF8FEE90E04EDE412C512C32017E
:1032B000A12CB12C99CFFAE0AF16B1040CF494CF45
:1032C00084CF0115110509F47EC083E0EE0CFF1CCC
:1032D0008A95E1F74701800E911E412C512C320155
:1032E000C12CD12C58012FEFA21AB20A0E5F1F4F2A
:1032F000AC14BD040CF467C02091010430910204A9
:10330000C6018E0D9F1D280F391FAE014F5F5F4F05
:1033100061E070E08091050490910604DDDD81118B
:1033200071C089819A81EFEF4E1A5E0A6E0A7E0A99
:10333000F0E94F16FFE55F06F1E06F0671041CF43B
:10334000C80ED91E0CC060910A0470910B048DEE5A
:1033500090E0F9DD412C512C3201C12CD12CC0164A
:10336000D10631F6A501B7018091010490910204C4
:103370000E94442260910A0470910B048823D1F0CA
:10338000E0910104F0910204E80DF91D808190E0C4
:103390006817790709F0ACCF8EEE90E0D4DD80910C
:1033A0000A0490910B040196992790930B04809343
:1033B0000A049ECF8FEE90E0C6DD412C512C3201E5
:1033C000C12CD12C95CF809101049091020462C050
:1033D000E80EF91E8AE0E816F10499F1FAE0EF161A
:1033E000F1040CF07DCE97012B513C4FAE014F5FA5
:1033F0005F4F61E070E080910504909106046CDD00
:10340000882319F080E090E045C089819A81FFEF20
:103410004F1A5F0A6F0A7F0A20E942162FE552060B
:1034200021E062067104A4F260910A0470910B0419
:103430008DEE90E088DD412C512C3201E12CF12CF5
:10344000D2CF49E050E060E070E085EE93E00E946A
:10345000442260910A0470910B048823C1F080918A
:10346000ED0390E06817790709F03ACE8EEE90E010
:103470006ADD80910A0490910B040196992790933C
:103480000B0480930A04EFEFAE1ABE0A29CE8FEE2A
:1034900090E0D0CF0F900F90DF91CF911F910F91BF
:1034A000FF90EF90DF90CF90BF90AF909F908F9064
:1034B0007F906F905F904F900895CF92DF92EF9240
:1034C000FF920F931F93CF93DF931F92CDB7DEB779
:1034D0006C017B018A01452B31F0AB0160E070E0AB
:1034E000C801CED78983B701C6012DDD81110DC07A
:1034F0000115110551F0B701C80160DD811105C04A
:1035000061E070E0CE01019659DD0F90DF91CF911F
:103510001F910F91FF90EF90DF90CF900895CF9281
:10352000DF92EF92FF92CF93DF93CDB7DEB728976C
:103530000FB6F894DEBF0FBECDBF6B01E12CF12CAE
:10354000C982DA82EB82FC822D833E834F835887C7
:10355000AE014F5F5F4F68E070E0AFDF28960FB6B7
:10356000F894DEBF0FBECDBFDF91CF91FF90EF90FB
:10357000DF90CF9008950F931F93CF93DF93EC01CB
:103580008B0187DC9093060480930504009739F043
:10359000A801BE0121DCEC01892B19F40BC0C4E4A5
:1035A000D2E08091050490910604BDDC10920604DF
:1035B00010920504CE01DF91CF911F910F910895D4
:1035C0008091050490910604ABCC2F923F924F92CC
:1035D0005F926F927F928F929F92AF92BF92CF92A3
:1035E000DF92EF92FF920F931F93CF93DF93CDB7AC
:1035F000DEB769970FB6F894DEBF0FBECDBF20913E
:103600000904222309F426C25D8B4C8B688B798BCD
:103610008A8B9B8B9A01AB01BC01CE0101960E9463
:10362000880F10E038E0232E312C89819A811816FA
:1036300019060CF00AC21F861E861D861C8689810B
:103640009A81AC85BD85A817B9070CF0F3C1EB8151
:10365000FC812E853F85E20FF31F2081318130935D
:1036600000042093FF03848195819093FE0380934F
:10367000FD03428153815093FC034093FB03468139
:1036800057815093FA034093F903820F931F9C01D3
:10369000990F440B550B2E8B3F8B488F598FC12CA4
:1036A000D12C76012E893F89488D598DC216D306BB
:1036B000E406F50608F0A2C11F826091FF03709135
:1036C00000048B01072E000C220B330BD701C6011F
:1036D0000496A11DB11D80179107A207B30728F416
:1036E000E091FB03F091FC030AC0E4E0F0E0E61B8C
:1036F000F70BEC0DFD1D8091F9039091FA03E80F93
:10370000F91F4080512C612C712CD701C601059600
:10371000A11DB11D80179107A207B30728F4E091FE
:10372000FB03F091FC030AC0E5E0F0E0E61BF70BB9
:10373000EC0DFD1D8091F9039091FA03E80FF91F3C
:103740008081582AD701C6010696A11DB11D801798
:103750009107A207B30728F4E091FB03F091FC0363
:103760000AC0E6E0F0E0E61BF70BEC0DFD1D8091D2
:10377000F9039091FA03E80FF91F8081682AD701B5
:10378000C6010796A11DB11D80179107A207B307B7
:1037900028F4E091FB03F091FC030AC0E7E0F0E0BD
:1037A000E61BF70BEC0DFD1D8091F9039091FA03D8
:1037B000E80FF91F8081782A4601570148E0840EFE
:1037C000911CA11CB11C081519052A053B0508F41C
:1037D000B4C0C016D106E206F30638F48091FB03AC
:1037E0009091FC038C0D9D1D09C0C601861B970B93
:1037F0002091F9033091FA03820F931F68E070E083
:10380000DDDBE091FF03F09100049F010F2E000C1F
:10381000440B550BD301C201880D991DAA1DBB1D78
:10382000281739074A075B07C8F082169306A406D3
:10383000B50638F42091FB033091FC03C6010896CD
:1038400009C0C1018E1B9F0B8C0D9D1D2091F9039A
:103850003091FA03820F931FB20199C08601BF0114
:10386000685071096C197D0982169306A406B50685
:1038700038F42091FB033091FC03C601089609C07F
:10388000C1018E1B9F0B8C0D9D1D2091F903309162
:10389000FA03820F931F92DB8091FF039091000443
:1038A000B101681B790B600F711F640D751D80914C
:1038B000F9039091FA0382DB8091FF039091000459
:1038C000AC0148505109FA01E01BF10BAC01092E83
:1038D000000C660B770B84169506A606B70638F41F
:1038E0002091FB033091FC03C60108960AC09101A8
:1038F000281B390BC9018C0D9D1D2091F9033091B6
:10390000FA03820F931FAF0160E070E0B9D58F8397
:103910002091FF0330910004A101421B530B9A0137
:10392000200F311F240D351D40E050E0682F80919D
:10393000F9039091FA0390D550C0C016D106E20663
:10394000F306C8F46C197D098091FB039091FC0388
:103950008C0D9D1D33DB8091FF0390910004B1011C
:10396000681B790B6C0D7D1D640D751D8091F9032D
:103970009091FA030CC0C601861B970B2091F903A6
:103980003091FA03B201685F7F4F820F931F16DBFD
:103990008091FF0390910004AC01092E000C660B8E
:1039A000770B84169506A606B70638F42091FB031C
:1039B0003091FC03C60108960AC0D101A81BB90BBF
:1039C000CD018C0D9D1D2091F9033091FA03820FDA
:1039D000931FA20160E070E053D58F8361E070E037
:1039E000CE010796EBDA182FB8E04B0E511C611C84
:1039F000711CC40CD51CE61CF71C54CE8C859D850F
:103A0000880F991FED81FE81E80FF91F48895989B8
:103A10006A897B89808191810E94BA0A4C855D8583
:103A20004F5F5F4F5D874C878E859F8508969F8788
:103A30008E8705CE2C893D89488959896A897B8979
:103A4000CE0101960E94880FF0CD112319F08C89C8
:103A50009D89D7DA69960FB6F894DEBF0FBECDBF49
:103A6000DF91CF911F910F91FF90EF90DF90CF905A
:103A7000BF90AF909F908F907F906F905F904F908E
:103A80003F902F900895CF93DF93EC01AC0160E05D
:103A900070E0CB019ADDAE0161E070E080E090E083
:103AA000DF91CF9192CDCF93809105049091060440
:103AB000F3D9C82F81110BC060E070E0CB010E94E8
:103AC000900561E070E080E090E00E9490058C2F0E
:103AD000CF9108950F931F9389019A01AB01BC0107
:103AE00080910504909106041FDA1F910F910895AB
:103AF0004F925F926F927F928F929F92AF92BF92FE
:103B0000CF92DF92EF92FF920F931F93CF93DF93A9
:103B1000CDB7DEB767970FB6F894DEBF0FBECDBF47
:103B20006C017B015A0180910904882331F0809156
:103B30000904882309F44AC30AC069E074E080914B
:103B4000050490910604F1D9811140C3F0CF809112
:103B500008041A821982882309F46AC0E0E94E2E0B
:103B6000EFE55E2E66246394712C00E010E098016E
:103B700021513C4FAE014F5F5F4F61E070E080919B
:103B8000050490910604A8D9982E81114DC0898111
:103B90009A81080F191F0115110509F445C081E02C
:103BA000481A51086108710839F460910A0470914B
:103BB0000B048DEE90E030C00A30110589F549E024
:103BC00050E060E070E08FEE93E05ED460910A0414
:103BD00070910B048823F1F08091F70390E068174F
:103BE0007907D9F48EEE90E0AED988E0EFEEF3E0FD
:103BF000DE01199601900D928A95E1F720910A0451
:103C000030910B042F5F3F4F332730930B042093E9
:103C10000A040AC08FEE90E096D91A82198204C075
:103C20000A3011050CF4A3CF81E029813A8124C028
:103C300000E010E078E0672E712C29E030E02C0FD6
:103C40003D1F200F311FAE014F5F5F4FB301601B5F
:103C5000710B80910504909106043ED9982E29811C
:103C60003A81811108C0020F131F0115110519F0C7
:103C70000830110514F381E0121613060CF080E0F1
:103C80009110A1C2882309F4A1C280910804811176
:103C900004C019861A861B861C8689859A85AB8581
:103CA000BC858031910508F091C2FC01EC5CFF4FAE
:103CB0000C948327D6011696ED91FC91179780817D
:103CC0009181A281B38189839A83AB83BC83AE0146
:103CD0004F5F5F4F64E070E085E190E07EC18D85CD
:103CE0009E85AED9009731F42FEF3FEFA90161E037
:103CF00070E00EC0FC0180809180A280B380A7019B
:103D0000C501B4010E94330AA501940160E070E08E
:103D10008DE190E056C28D859E8592D9009721F461
:103D20002FEF3FEFA90110C0DC018D909D90AD9069
:103D3000BD90AD0195018401B701C6010E94D50671
:103D4000A5019401882319F061E070E002C060E0F1
:103D500070E08BE190E035C28D859E8571D900972A
:103D600021F42FEF3FEFA9010FC0FC01819091904A
:103D7000A190B190BF01A5019401C6010E94D8088D
:103D8000A5019401882319F061E070E002C060E0B1
:103D900070E08CE190E015C2D6011496ED91FC9193
:103DA000159700811181F80182809380A080B180F5
:103DB00060E1462E512C612C712C49825A826B8213
:103DC0007C8288E090E0A0E0B0E08D839E83AF83AA
:103DD000B8879E012F5E3F4FAE014F5F5F4F68E097
:103DE00070E0809105049091060458D8882319F05A
:103DF00000E010E0BBC089899A890897C9F7D8010B
:103E0000ED90FC90B8E0EB0EF11CEE0CFF1CEE0CFC
:103E1000FF1CC7010E94D0278C01892B49F34982DE
:103E20005A826B827C82C7010F2C000CAA0BBB0B41
:103E30008D839E83AF83B8879E012F5E3F4FAE0177
:103E40004F5F5F4F68E070E0809105049091060439
:103E500025D881118BC089899A89089709F086C075
:103E6000D6011296ED91FC911397408151816281A8
:103E70007381D8014D935D936D937C931397448127
:103E800055816681778114964D935D936D937C93F4
:103E90001797408551856285738518964D935D937C
:103EA0006D937C931B9784859585A685B785F801CE
:103EB00084879587A687B787108A118A128A138A02
:103EC00084E090E0A0E0B0E0848B958BA68BB78B6C
:103ED0008091950190919601A0E0B0E0808F918F44
:103EE000A28FB38FC5010B2C000CAA0BBB0B848FC8
:103EF000958FA68FB78FF401D801909680E090E05F
:103F00008A159B0554F44191519160E070E04D9306
:103F10005D936D937D930196F3CF9E012F5E3F4F8E
:103F2000A801B70180910504909106040E944E17E4
:103F300081111CC089899A898E159F05B9F4A70142
:103F400060E070E0C8019CD28B8B9E012F5E3F4FDA
:103F5000AE014D5E5F4F61E070E08091050490918D
:103F600006040E944E1781E080930804C8016796FA
:103F70000FB6F894DEBF0FBECDBFDF91CF911F917A
:103F80000F91FF90EF90DF90CF90BF90AF909F90F8
:103F90008F907F906F905F904F900C9465288D85E7
:103FA0009E85AF85B8890097A105B10521F481E010
:103FB000809307040BC144D8009789F481E090E016
:103FC000A0E0B0E089839A83AB83BC83AE014F5FEE
:103FD0005F4F64E070E082E190E06FDAF7C0BC010F
:103FE000C6010E94E20419821A821B821C82AE0161
:103FF0004F5F5F4F64E070E082E190E05EDA811134
:10400000E5C0D5CFD6011496ED91FC91159701909E
:10401000F081E02D008511850115110509F462C0BC
:10402000D801ED90FC90C280D38020E030E060E0C9
:1040300070E080E090E08E159F050CF5F801A281FC
:10404000B381A20FB31F1296ED91FC911397EE0F5F
:10405000FF1FEC0DFD1D0190F081E02D16960D90D7
:10406000BC91A02DEA9FA001EB9F500DFA9F500D2F
:104070001124640F751F0196285F3F4FDCCF83E149
:1040800090E00E94A3178111A1C0812C912CA12C3A
:10409000B12CAE14BF040CF099C0D8011296ED916A
:1040A000FC911397E80DF91DA281B381AA0FBB1FE4
:1040B000AC0DBD1D2D913C9186819781289FB0014B
:1040C000299F700D389F700D1124808191810E946D
:1040D000DE17B8E08B0E911C811178C0EFEFAE1A9D
:1040E000BE0AD7CF60E070E083E190E00E94A317A2
:1040F0006DC040E050E060E070E081E190E0DDD92B
:10410000811164C0812C912C5401C501B4010E941D
:10411000BC0680912803882321F0A701C501B401C2
:1041200054DAA701C501B4010E94BC058A9489280C
:104130008A288B2829F0812C912C54018394E5CF77
:10414000109209041092080410920B0410920A04B1
:1041500080910504909106040E949B1737C081E06E
:1041600090E090932A038093290340E050E060E0C0
:1041700070E086E190E031CF81E0D5018C9326C0DC
:104180008D859E850E942018009731F42FEF3FEF18
:10419000A90161E070E013C0FC01208131814281FE
:1041A0005381CA01B9012C8B3D8B4E8B5F8B0E94D2
:1041B000930A2C893D894E895F8960E070E08EE129
:1041C00090E0ADD903C0C7010E94011867960FB6F1
:1041D000F894DEBF0FBECDBFDF91CF911F910F913D
:1041E000FF90EF90DF90CF90BF90AF909F908F9017
:1041F0007F906F905F904F900895CF92DF92EF92F3
:10420000FF92CF93DF93EC01C12CD12C7601C70133
:10421000B6010E94BC06AE01C701B601D6D9AE01F7
:10422000C701B6010E94BC0580910104909102046F
:10423000009729F04AD71092020410920104CA9400
:10424000CD28CE28CF2829F0C12CD12C7601C394BB
:10425000DECF80910804882359F040E050E060E010
:1042600070E084E190E029D9F82E1092080401C092
:10427000F12C80910904882341F01092090481E017
:1042800090E0909396018093950180910504909120
:1042900006040E949E1780910504909106040E94D6
:1042A00093178F2DDF91CF91FF90EF90DF90CF90FC
:1042B0000895CF93DF93EC01AC0160E070E0CB0197
:1042C0000E94F90EAE0161E070E080E090E0DF91C5
:1042D000CF910C94F90E60E070E0CB010E94650F65
:1042E00061E070E080E090E00C94650FCF92DF9287
:1042F000EF92FF920F931F93CF93DF93EC016A012C
:104300007B0100E010E098010E94E30A01E010E068
:1043100020E030E0B701A601CE010E94E30ADF9160
:10432000CF911F910F91FF90EF90DF90CF90089564
:1043300068EE73E080E090E00E94171280E090E069
:1043400008950E94501226E040E050E16EE070E0D7
:1043500084E393E00E94D51384E393E00E941F134B
:10436000892B29F084E393E00E943913F5CF80E094
:1043700090E00895AF92BF92CF92DF92EF92FF92BA
:104380000F931F93CF93DF9300D0CDB7DEB77A01A1
:104390008901F9011182108284E393E069837A83B1
:1043A0000E941F1369817A81892B99F15B01DD24B9
:1043B000D39485E6C82E80910C04811124C084E337
:1043C00093E00E94391385369105A9F7D0920C0429
:1043D000F501C1925F01F80180819181019691837D
:1043E0008083E9CF84E393E00E9439138F3FFFEF8E
:1043F0009F0749F0F50181935F01F8018081918168
:10440000019691838083F801808191818E159F05AB
:1044100048F380E090E00F900F90DF91CF911F91D3
:104420000F91FF90EF90DF90CF90BF90AF900895E5
:104430000F931F93CF93DF93EA01890184E393E005
:104440000E940815F801D183C08380E090E0DF91DD
:10445000CF911F910F910895DC01A40FB51F240F78
:10446000351FAD01481B590B4217530738F4ED9126
:10447000E627F0E0E950FF4F6491F3CF862F0895CF
:104480009A01AB016FEFE8CFCF93FC01E60FF71F66
:10449000E40FF51FC081F4DF91E0C81390E0892F8D
:1044A000CF9108951F920F920FB60F9211242F9360
:1044B0003F934F935F936F937F938F939F93AF93AC
:1044C000BF93EF93FF9380910E0487FF05C0109276
:1044D0008500109284001BC020910E04022E000C57
:1044E000330B80910D0490E02817390784F48091F4
:1044F0000E04082E000C990BFC01EE0FFF1F8E0F0F
:104500009F1FFC01E15FFB4F808186FD15C08091FC
:104510000E048F5F80930E0420910E04022E000C77
:10452000330B80910D0490E028173907C4F4809173
:104530000E048C3064F113C080910E04082E000C20
:10454000990BFC01EE0FFF1F8E0F9F1FFC01E15F17
:10455000FB4F808160E08F730E94F012D8CF809172
:10456000840090918500049680349C4918F480E47E
:104570009CE905C0809184009091850004969093F9
:104580008900809388008FEF80930E043BC02091B8
:1045900084003091850080910E04082E000C990B48
:1045A000FC01EE0FFF1F8E0F9F1FFC01E15FFB4F11
:1045B00081819281820F931F90938900809388005C
:1045C00080910E04082E000C990BFC01EE0FFF1FCA
:1045D0008E0F9F1FFC01E15FFB4F808186FF12C0A1
:1045E00080910E04082E000C990BFC01EE0FFF1FAA
:1045F0008E0F9F1FFC01E15FFB4F808161E08F7395
:104600000E94F012FF91EF91BF91AF919F918F9116
:104610007F916F915F914F913F912F910F900FBEBE
:104620000F901F901895FC0190910D049C30A0F400
:1046300081E0890F80930D049083892F90E0FC0125
:10464000EE0FFF1F8E0F9F1FFC01E15FFB4F88EBFA
:104650009BE09283818308958FEF80830895DF929A
:10466000EF92FF920F931F93CF93DF93EC01D62E1F
:104670007A01890188818C3008F069C061E08D2D54
:104680000E94B4128881E82FF0E09F01220F331FAF
:10469000E20FF31FE15FFB4F9D2D9F732081207C74
:1046A000D22ED92AD08260E272E0AB014E195F09A6
:1046B00057FF02C04D5F5F4F5595479555954795FC
:1046C000498340E659E09A01201B310B37FF02C0B5
:1046D0002D5F3F4F35952795359527952A836CE0BB
:1046E000B5D39CE0899FB001112440E050E09A01CD
:1046F000260F371FF901EE0FFF1F2E0F3F1FF90185
:10470000E15FFB4F908196FD16C04F5F5F4F4C30CD
:10471000510569F781110FC01092800082E08093EB
:1047200081001092850010928400B19A80916F00F0
:10473000826080936F00E881F0E0CF01880F991FBD
:10474000E80FF91FE15FFB4F8081806480838881DF
:10475000DF91CF911F910F91FF90EF90DF9008951F
:1047600020E639E040E252E07ACFFC0190819C30B3
:1047700080F5818128E830E0281B310987FD3395D9
:10478000220F331F220F331F621773077CF08281C1
:1047900028E532E0281B310987FD3395220F331FAE
:1047A000220F331F621773070CF49B01225031094B
:1047B000220F331F4FB7F894892F90E0FC01EE0FC2
:1047C000FF1F8E0F9F1FFC01E15FFB4F3283218390
:1047D0004FBF0895AF92BF92CF92DF92EF92FF92B8
:1047E0000F931F93CF93DF93EC01603282E0780741
:1047F0000CF03FC077FD06C0653B71052CF064EB03
:1048000070E002C060E070E0898128E830E0590182
:10481000A81AB10887FDB394AA0CBB1CAA0CBB1C38
:104820000B2C000CCC08DD08072E000C880B990B14
:104830002A8108E512E0021B110927FD1395000FDC
:10484000111F000F111F012E000C220B330B3F9381
:104850002F931F930F9314EBE12EF12C00E010E047
:1048600020E030E0A9010E9438160F900F900F90C1
:104870000F90CE01DF91CF911F910F91FF90EF909C
:10488000DF90CF90BF90AF9070CF8091330491E0D4
:10489000980F90933304882349F021E030E030935F
:1048A00035042093340480933304089578940E944F
:1048B0002801F894809133048150809333040C9440
:1048C0000511FF920F931F93CF93DF9300D0CDB7C5
:1048D000DEB7FF24F394FA820E9450120E947916E8
:1048E00000911D0210911E02F8011182108260E0F9
:1048F00070E080E090E00E940E110E94180378940E
:10490000C80182960E940D1181E090E00E94091179
:104910001982AE014F5F5F4F61E070E0F801828164
:1049200093810E94B3108981882311F0F801F6A2C7
:104930000E941411F8940E94CE16F8018081918192
:10494000892B19F481E096A1911180E08A837894F3
:104950007894FF24F3948A81882321F11982AE018F
:104960004F5F5F4F61E070E0F801828193810E94A8
:10497000EF108981882311F0F801F6A2F8018081F7
:104980009181892B19F481E096A1911180E08A83AD
:104990008A81882319F00E94EA1602C080E090E024
:1049A0008A83D9CF81E090E00E940B110E94B50369
:1049B000F89480E090E00F900F90DF91CF911F91DD
:1049C0000F91FF9008955058BB27AA270ED033C1EE
:1049D000FCD030F001D120F031F49F3F11F41EF4EF
:1049E000F1C00EF4E095E7FBE7C0E92F46D180F374
:1049F000BA17620773078407950718F071F49EF5DC
:104A00005EC10EF4E0950B2EBA2FA02D0B01B9015B
:104A100090010C01CA01A0011124FF27591B99F034
:104A2000593F50F4503E68F11A16F040A22F232F40
:104A3000342F4427585FF3CF469537952795A79590
:104A4000F0405395C9F77EF41F16BA0B620B730B37
:104A5000840BBAF09150A1F0FF0FBB1F661F771FA8
:104A6000881FC2F70EC0BA0F621F731F841F48F45D
:104A7000879577956795B795F7959E3F08F0B3CFE3
:104A80009395880F08F09927EE0F979587950895CD
:104A90006FD008F481E00895A7D0E395DDC0F5D08C
:104AA00088F09F5790F0B92F9927B751A0F0D1F017
:104AB000660F771F881F991F1AF0BA95C9F712C0A1
:104AC000B13081F0FCD0B1E00895F9C0672F782FA4
:104AD0008827B85F39F0B93FCCF38695779567950D
:104AE000B395D9F73EF490958095709561957F4F79
:104AF0008F4F9F4F0895E89409C097FB3EF490951F
:104B00008095709561957F4F8F4F9F4F9923A9F0A6
:104B1000F92F96E9BB279395F69587957795679535
:104B2000B795F111F8CFFAF4BB0F11F460FF1BC079
:104B30006F5F7F4F8F4F9F4F16C0882311F096E90C
:104B400011C0772321F09EE8872F762F05C06623BA
:104B500071F096E8862F70E060E02AF09A95660F73
:104B6000771F881FDAF7880F9695879597F908952C
:104B7000990F0008550FAA0BE0E8FEEF161617066E
:104B8000E807F907C0F012161306E407F50798F0D6
:104B9000621B730B840B950B39F40A2661F0232BEF
:104BA000242B252B21F408950A2609F4A140A6956B
:104BB0008FEF811D811D089597F99F6780E870E050
:104BC00060E008959FEF80EC089500240A94161683
:104BD000170618060906089500240A9412161306EB
:104BE000140605060895EECF50D0E8F3E894E0E00F
:104BF000BB279F57F0F02AED3FE049EC06C0EE0FCF
:104C0000BB0F661F771F881F28F0B23A6207730731
:104C1000840728F0B25A620B730B840BE3959A95C4
:104C200072F7803830F49A95BB0F661F771F881F84
:104C3000D2F79048BAC0092E0394000C11F48823CF
:104C400052F0BB0F40F4BF2B11F460FF04C06F5F44
:104C50007F4F8F4F9F4F0895EF93E0FF06C0A2EA6A
:104C60002AED3FE049EC5FEBC0DEE5DF0F900394F7
:104C700001FC9058E8E8F0E0A4C057FD9058440FBC
:104C8000551F59F05F3F71F04795880F97FB991FAB
:104C900061F09F3F79F08795089512161306140668
:104CA000551FF2CF4695F1DF08C0161617061806F5
:104CB000991FF1CF86957105610508940895E894D0
:104CC000BB2766277727CB0197F9089551DF08F4B2
:104CD0008FEF08950BD0AFCF78DF28F07DDF18F08D
:104CE000952309F069CF6ECF1124EACFC6DFA0F378
:104CF000959FD1F3950F50E0551F629FF001729F71
:104D0000BB27F00DB11D639FAA27F00DB11DAA1F8F
:104D1000649F6627B00DA11D661F829F2227B00DDC
:104D2000A11D621F739FB00DA11D621F839FA00D67
:104D3000611D221F749F3327A00D611D231F849FB7
:104D4000600D211D822F762F6A2F11249F5750400E
:104D50008AF0E1F088234AF0EE0FFF1FBB1F661FA9
:104D6000771F881F91505040A9F79E3F510570F062
:104D700023CFA6CF5F3FECF3983EDCF38695779583
:104D80006795B795F795E7959F5FC1F7FE2B880F5D
:104D9000911D9695879597F908959F9325DF0F901C
:104DA00007FCEE5F59CF9F3F31F0915020F487957B
:104DB00077956795B795880F911D9695879597F983
:104DC00008959F938F937F936F93FF93EF939B012E
:104DD000AC0180DFEF91FF9105D02F913F914F9172
:104DE0005F9178CFDF93CF931F930F93FF92EF9252
:104DF000DF927B018C01689405C0DA2EEF0176DF2B
:104E0000FE01E894A5912591359145915591AEF318
:104E1000EF01EBDDFE019701A801DA9479F7DF904D
:104E2000EF90FF900F911F91CF91DF910895DB01DB
:104E30008F939F936ED0BF91AF91A29F800D911DD4
:104E4000A39F900DB29F900D11240895991B79E0B6
:104E500004C0991F961708F0961B881F7A95C9F70A
:104E60008095089597FB072E16F4009406D077FDE1
:104E700008D059D007FC05D03EF4909581959F4FFE
:104E80000895709561957F4F0895A1E21A2EAA1B8F
:104E9000BB1BFD010DC0AA1FBB1FEE1FFF1FA217EA
:104EA000B307E407F50720F0A21BB30BE40BF50BE7
:104EB000661F771F881F991F1A9469F76095709570
:104EC000809590959B01AC01BD01CF010895052E01
:104ED00097FB16F400940FD057FD05D0D6DF07FCE2
:104EE00002D046F408C050954095309521953F4F2B
:104EF0004F4F5F4F089590958095709561957F4FC6
:104F00008F4F9F4F0895EE0FFF1F0590F491E02DF6
:104F100009941DD0A59F900DB49F900DA49F800D66
:104F2000911D11240895AA1BBB1B51E107C0AA1FA4
:104F3000BB1FA617B70710F0A61BB70B881F991F3A
:104F40005A95A9F780959095BC01CD010895A29F2F
:104F5000B001B39FC001A39F700D811D1124911D4D
:104F6000B29F700D811D1124911D08950F931F9301
:104F7000CF93DF93869F8001879F100D969F100D22
:104F80001124C8010DD0EC01009721F0A80160E0C8
:104F900070E03CD1CE01DF91CF911F910F91089528
:104FA000CF93DF938230910510F482E090E0E0919E
:104FB0006B04F0916C0420E030E0C0E0D0E030976A
:104FC00011F14081518148175907C0F0481759071E
:104FD00061F482819381209719F09B838A832BC08F
:104FE00090936C0480936B0426C02115310519F051
:104FF0004217530718F49A01BE01DF01EF01028046
:10500000F381E02DDCCF2115310509F1281B390B87
:105010002430310590F412968D919C91139761156F
:10502000710521F0FB019383828304C090936C048B
:1050300080936B04FD01329644C0FD01E20FF31F23
:1050400081939193225031092D933C933AC0209142
:10505000690430916A04232B41F4209102013091BC
:10506000030130936A042093690420910001309178
:1050700001012115310541F42DB73EB740910401DE
:1050800050910501241B350BE0916904F0916A04ED
:10509000E217F307A0F42E1B3F0B2817390778F00F
:1050A000AC014E5F5F4F2417350748F04E0F5F1F6E
:1050B00050936A04409369048193919302C0E0E0A5
:1050C000F0E0CF01DF91CF9108950F931F93CF931D
:1050D000DF93009709F48CC0FC013297138212828F
:1050E00000916B0410916C040115110581F420816D
:1050F0003181820F931F2091690430916A0428172F
:10510000390779F5F0936A04E093690471C0D80116
:1051100040E050E0AE17BF0750F412962D913C913D
:105120001397AD012115310509F1D901F3CF9D0187
:10513000DA013383228360817181860F971F821782
:10514000930769F4EC0128813981260F371F2E5F00
:105150003F4F318320838A819B8193838283452BB8
:1051600029F4F0936C04E0936B0442C01396FC9313
:10517000EE931297ED01499159919E01240F351F2D
:10518000E217F30771F480819181840F951F0296D5
:1051900011969C938E938281938113969C938E9308
:1051A0001297E0E0F0E0D80112968D919C91139750
:1051B000009719F0F8018C01F6CF8D919C91980120
:1051C0002E5F3F4F820F931F2091690430916A0434
:1051D0002817390769F4309729F410926C0410925B
:1051E0006B0402C01382128210936A040093690454
:1051F000DF91CF911F910F910895FB01DC0102C057
:1052000001900D9241505040D8F70895DC0101C043
:105210006D9341505040E0F70895FB01DC018D9102
:10522000019080190110D9F3990B0895F894FFCFDC
:1052300000006D0480000100000003000E017201F7
:105240000700000001007601000000000700920145
:1052500003000000010002002A015D0400000000BC
:1052600002006504060000000100B001B701C101A1
:10527000C001C901C801D201D101DA01E401EF0185
:10528000F501FF0108020400040001000100020012
:1052900002000400040001000400020002000400F7
:1052A0000800090000000000B4420000B442000001
:1052B000803F6D4E973EEF90743F6D4E97BEEF90DE
:1052C000743F000101010059115911FF53696D75B7
:1052D0006C6174696F6E2066696E697368656400DD
:1052E0007265616C5F54007265616C33325F5400AB
:1052F00075696E74385F540075696E7431365F5429
:105300000075696E7433325F5400626F6F6C656153
:105310006E5F540066636E5F63616C6C5F5400691E
:105320006E745F5400706F696E7465725F540061D3
:105330006374696F6E5F540074696D65725F75693F
:105340006E7433325F706169725F5400013604001D
:105350000000008F1308151F1339132B136E130051
:10536000000000BE142D77002D69676E6F72652DE9
:1053700061726700436F756C64206E6F7420637296
:10538000656174652065787465726E616C206D6FFF
:105390006465207573657220646174612E20204FEE
:1053A0007574206F66206D656D6F72792E0A00002E
:00000001FF
